{
  "_format": "hh-sol-artifact-1",
  "contractName": "HasherAdapter",
  "sourceName": "src/HasherAdapter.sol",
  "abi": [
    {
      "inputs": [
        {
          "internalType": "address",
          "name": "_mimcSponge",
          "type": "address"
        }
      ],
      "stateMutability": "nonpayable",
      "type": "constructor"
    },
    {
      "inputs": [
        {
          "internalType": "uint256",
          "name": "left",
          "type": "uint256"
        },
        {
          "internalType": "uint256",
          "name": "right",
          "type": "uint256"
        }
      ],
      "name": "MiMCSponge",
      "outputs": [
        {
          "internalType": "uint256",
          "name": "",
          "type": "uint256"
        }
      ],
      "stateMutability": "view",
      "type": "function"
    },
    {
      "inputs": [
        {
          "internalType": "uint256",
          "name": "input",
          "type": "uint256"
        }
      ],
      "name": "hash",
      "outputs": [
        {
          "internalType": "uint256",
          "name": "",
          "type": "uint256"
        }
      ],
      "stateMutability": "view",
      "type": "function"
    },
    {
      "inputs": [],
      "name": "mimcSponge",
      "outputs": [
        {
          "internalType": "contract IMiMCSponge",
          "name": "",
          "type": "address"
        }
      ],
      "stateMutability": "view",
      "type": "function"
    }
  ],
  "bytecode": "0x60a0604052348015600e575f5ffd5b506040516103e33803806103e3833981016040819052602b91603b565b6001600160a01b03166080526066565b5f60208284031215604a575f5ffd5b81516001600160a01b0381168114605f575f5ffd5b9392505050565b60805161035861008b5f395f8181606e0152818161015401526101ca01526103585ff3fe608060405234801561000f575f5ffd5b506004361061003f575f3560e01c8063b189fd4c14610043578063e7472b9114610069578063f47d33b5146100a8575b5f5ffd5b61005661005136600461029e565b6100bb565b6040519081526020015b60405180910390f35b6100907f000000000000000000000000000000000000000000000000000000000000000081565b6040516001600160a01b039091168152602001610060565b6100566100b63660046102b5565b610128565b60405163f47d33b560e01b815260048101829052602481018290525f90309063f47d33b590604401602060405180830381865afa1580156100fe573d5f5f3e3d5ffd5b505050506040513d601f19601f8201168201806040525081019061012291906102d5565b92915050565b604051633f1a118760e01b8152600481018390525f6024820181905260448201819052908190819081907f00000000000000000000000000000000000000000000000000000000000000006001600160a01b031690633f1a1187906064016040805180830381865afa1580156101a0573d5f5f3e3d5ffd5b505050506040513d601f19601f820116820180604052508101906101c491906102ec565b915091507f00000000000000000000000000000000000000000000000000000000000000006001600160a01b0316633f1a11877f30644e72e131a029b85045b68181585d2833e84879b9709143e1f593f0000001806102255761022561030e565b8488086040516001600160e01b031960e084901b168152600481019190915260248101849052604481018690526064016040805180830381865afa15801561026f573d5f5f3e3d5ffd5b505050506040513d601f19601f8201168201806040525081019061029391906102ec565b509695505050505050565b5f602082840312156102ae575f5ffd5b5035919050565b5f5f604083850312156102c6575f5ffd5b50508035926020909101359150565b5f602082840312156102e5575f5ffd5b5051919050565b5f5f604083850312156102fd575f5ffd5b505080516020909101519092909150565b634e487b7160e01b5f52601260045260245ffdfea264697066735822122064064c14aaba92d407b9ba858100905c93a0e7823cd4780247ba3d5ffc1b776064736f6c634300081e0033",
  "linkReferences": {},
  "deployedLinkReferences": {}
}