{
  "_format": "hh-sol-artifact-1",
  "contractName": "HasherAdapter",
  "sourceName": "src/HasherAdapter.sol",
  "abi": [
    {
      "inputs": [
        {
          "internalType": "address",
          "name": "_mimcSponge",
          "type": "address"
        }
      ],
      "stateMutability": "nonpayable",
      "type": "constructor"
    },
    {
      "inputs": [
        {
          "internalType": "uint256",
          "name": "left",
          "type": "uint256"
        },
        {
          "internalType": "uint256",
          "name": "right",
          "type": "uint256"
        }
      ],
      "name": "MiMCSponge",
      "outputs": [
        {
          "internalType": "uint256",
          "name": "",
          "type": "uint256"
        }
      ],
      "stateMutability": "view",
      "type": "function"
    },
    {
      "inputs": [
        {
          "internalType": "uint256",
          "name": "input",
          "type": "uint256"
        }
      ],
      "name": "hash",
      "outputs": [
        {
          "internalType": "uint256",
          "name": "",
          "type": "uint256"
        }
      ],
      "stateMutability": "view",
      "type": "function"
    },
    {
      "inputs": [],
      "name": "mimcSponge",
      "outputs": [
        {
          "internalType": "contract IMiMCSponge",
          "name": "",
          "type": "address"
        }
      ],
      "stateMutability": "view",
      "type": "function"
    }
  ],
  "bytecode": "0x60a034607557601f61041738819003918201601f19168301916001600160401b03831184841017607957808492602094604052833981010312607557516001600160a01b03811690819003607557608052604051610389908161008e82396080518181816073015281816101b9015261021d0152f35b5f80fd5b634e487b7160e01b5f52604160045260245ffdfe6080806040526004361015610012575f80fd5b5f3560e01c908163b189fd4c146101e857508063e7472b91146101a45763f47d33b51461003d575f80fd5b346101a05760403660031901126101a05760408051633f1a118760e01b815260048035908201525f6024820181905260448201527f00000000000000000000000000000000000000000000000000000000000000006001600160a01b03169181606481855afa91821561014b575f915f93610156575b5060646040927f30644e72e131a029b85045b68181585d2833e84879b9709143e1f593f00000019284519586948593633f1a118760e01b855260243508600484015260248301525f60448301525afa801561014b576020915f9161011b575b50604051908152f35b61013d915060403d604011610144575b6101358183610307565b81019061033d565b505f610112565b503d61012b565b6040513d5f823e3d90fd5b7f30644e72e131a029b85045b68181585d2833e84879b9709143e1f593f000000191935060409250610196606491843d8611610144576101358183610307565b94925092506100b3565b5f80fd5b346101a0575f3660031901126101a0576040517f00000000000000000000000000000000000000000000000000000000000000006001600160a01b03168152602090f35b346101a05760203660031901126101a057633f1a118760e01b8152600480359082018190525f602483018190526044830152907f00000000000000000000000000000000000000000000000000000000000000006001600160a01b0316604082606481845afa91821561014b577f30644e72e131a029b85045b68181585d2833e84879b9709143e1f593f0000001936040935f925f916102e5575b50926064929385519687958694633f1a118760e01b865208600484015260248301525f60448301525afa801561014b576020915f916102c55750604051908152f35b6102de915060403d604011610144576101358183610307565b5082610112565b606493506103009150853d8711610144576101358183610307565b9092610283565b90601f8019910116810190811067ffffffffffffffff82111761032957604052565b634e487b7160e01b5f52604160045260245ffd5b91908260409103126101a057602082519201519056fea2646970667358221220f8b7399d7df61fd951721234c7206cec133f03f3e23cc874998ad45b287b2bce64736f6c634300081e0033",
  "linkReferences": {},
  "deployedLinkReferences": {}
}