{
  "_format": "hh-sol-artifact-1",
  "contractName": "VerifierAdapter",
  "sourceName": "src/VerifierAdapter.sol",
  "abi": [
    {
      "inputs": [
        {
          "internalType": "address",
          "name": "_groth16Verifier",
          "type": "address"
        }
      ],
      "stateMutability": "nonpayable",
      "type": "constructor"
    },
    {
      "inputs": [],
      "name": "groth16Verifier",
      "outputs": [
        {
          "internalType": "contract IGroth16Verifier",
          "name": "",
          "type": "address"
        }
      ],
      "stateMutability": "view",
      "type": "function"
    },
    {
      "inputs": [
        {
          "internalType": "uint256[2]",
          "name": "_pA",
          "type": "uint256[2]"
        },
        {
          "internalType": "uint256[2][2]",
          "name": "_pB",
          "type": "uint256[2][2]"
        },
        {
          "internalType": "uint256[2]",
          "name": "_pC",
          "type": "uint256[2]"
        },
        {
          "internalType": "uint256[]",
          "name": "_pubSignals",
          "type": "uint256[]"
        }
      ],
      "name": "verifyProof",
      "outputs": [
        {
          "internalType": "bool",
          "name": "",
          "type": "bool"
        }
      ],
      "stateMutability": "view",
      "type": "function"
    }
  ],
  "bytecode": "0x60a034606f57601f61052038819003918201601f19168301916001600160401b03831184841017607357808492602094604052833981010312606f57516001600160a01b03811690819003606f576080526040516104989081610088823960805181818161022c01526103ce0152f35b5f80fd5b634e487b7160e01b5f52604160045260245ffdfe6080806040526004361015610012575f80fd5b5f3560e01c90816319c813be146103bc575063c32e370e14610032575f80fd5b346102a6576101203660031901126102a65736602312156102a6576040805161005b8282610419565b80366044116102a6576004905b604482106103ac57505036606312156102a6578151906100888383610419565b813660c4116102a6576044905b60c482106103535750503660e312156102a6578251906100b58483610419565b8136610104116102a65760c4905b6101048210610343575050610104359167ffffffffffffffff83116102a657366023840112156102a65782600401359067ffffffffffffffff821161032f578160051b938651926101176020870185610419565b83526020830160248196830101913683116102a657929695949392602401905b82821061031f57505050602086519261014f846103fd565b8051845201516020830152855193610166856103fd565b8651610171816103fd565b815151815260208251015160208201528552602080885192610192846103fd565b0180515183525101516020820152602085015260208651956101b3876103fd565b805187520151602086015285516361971b8760e11b81529485946101248601936101e190600488019061043b565b5f604487015b600282106102d5575050506102009060c486019061043b565b61012061010485015251809152610144830191905f5b8181106102bc57506020939283900391508290507f00000000000000000000000000000000000000000000000000000000000000006001600160a01b03165afa9081156102b2575f91610270575b50602091519015158152f35b90506020813d6020116102aa575b8161028b60209383610419565b810103126102a657519081151582036102a657906020610264565b5f80fd5b3d915061027e565b82513d5f823e3d90fd5b8251845285945060209384019390920191600101610216565b909192939495965088835182905f915b600283106103065750505060209060019201930191018796959493926101e7565b815181528c9350600190920191602091820191016102e5565b8135815260209182019101610137565b634e487b7160e01b5f52604160045260245ffd5b81358152602091820191016100c3565b36601f830112156102a657845161036a8682610419565b808684013681116102a65791879285949294905b80821061039657505081529201916020019050610095565b813586526020958601958a95509091019061037e565b8135815260209182019101610068565b346102a6575f3660031901126102a6577f00000000000000000000000000000000000000000000000000000000000000006001600160a01b03168152602090f35b6040810190811067ffffffffffffffff82111761032f57604052565b90601f8019910116810190811067ffffffffffffffff82111761032f57604052565b905f905b6002821061044c57505050565b602080600192855181520193019101909161043f56fea264697066735822122027b658b886e3a74bd6c974fd21b0ef7b8c528cc9a0d3f823cf3a16b412026dbb64736f6c634300081e0033",
  "linkReferences": {},
  "deployedLinkReferences": {}
}