{
  "_format": "hh-sol-artifact-1",
  "contractName": "MerkleTreeWithHistory",
  "sourceName": "src/MerkleTreeWithHistory.sol",
  "abi": [
    {
      "inputs": [
        {
          "internalType": "address",
          "name": "_hasher",
          "type": "address"
        }
      ],
      "stateMutability": "nonpayable",
      "type": "constructor"
    },
    {
      "inputs": [],
      "name": "InvalidRoot",
      "type": "error"
    },
    {
      "inputs": [],
      "name": "MerkleTreeFull",
      "type": "error"
    },
    {
      "anonymous": false,
      "inputs": [
        {
          "indexed": true,
          "internalType": "bytes32",
          "name": "leaf",
          "type": "bytes32"
        },
        {
          "indexed": true,
          "internalType": "uint256",
          "name": "leafIndex",
          "type": "uint256"
        },
        {
          "indexed": false,
          "internalType": "bytes32",
          "name": "newRoot",
          "type": "bytes32"
        }
      ],
      "name": "LeafInserted",
      "type": "event"
    },
    {
      "inputs": [],
      "name": "FIELD_SIZE",
      "outputs": [
        {
          "internalType": "uint256",
          "name": "",
          "type": "uint256"
        }
      ],
      "stateMutability": "view",
      "type": "function"
    },
    {
      "inputs": [],
      "name": "ROOT_HISTORY_SIZE",
      "outputs": [
        {
          "internalType": "uint256",
          "name": "",
          "type": "uint256"
        }
      ],
      "stateMutability": "view",
      "type": "function"
    },
    {
      "inputs": [],
      "name": "TREE_DEPTH",
      "outputs": [
        {
          "internalType": "uint256",
          "name": "",
          "type": "uint256"
        }
      ],
      "stateMutability": "view",
      "type": "function"
    },
    {
      "inputs": [],
      "name": "currentRootIndex",
      "outputs": [
        {
          "internalType": "uint256",
          "name": "",
          "type": "uint256"
        }
      ],
      "stateMutability": "view",
      "type": "function"
    },
    {
      "inputs": [
        {
          "internalType": "uint256",
          "name": "",
          "type": "uint256"
        }
      ],
      "name": "filledSubtrees",
      "outputs": [
        {
          "internalType": "bytes32",
          "name": "",
          "type": "bytes32"
        }
      ],
      "stateMutability": "view",
      "type": "function"
    },
    {
      "inputs": [],
      "name": "getLatestRoot",
      "outputs": [
        {
          "internalType": "bytes32",
          "name": "",
          "type": "bytes32"
        }
      ],
      "stateMutability": "view",
      "type": "function"
    },
    {
      "inputs": [],
      "name": "hasher",
      "outputs": [
        {
          "internalType": "contract IHasher",
          "name": "",
          "type": "address"
        }
      ],
      "stateMutability": "view",
      "type": "function"
    },
    {
      "inputs": [
        {
          "internalType": "bytes32",
          "name": "root",
          "type": "bytes32"
        }
      ],
      "name": "isKnownRoot",
      "outputs": [
        {
          "internalType": "bool",
          "name": "",
          "type": "bool"
        }
      ],
      "stateMutability": "view",
      "type": "function"
    },
    {
      "inputs": [],
      "name": "nextLeafIndex",
      "outputs": [
        {
          "internalType": "uint256",
          "name": "",
          "type": "uint256"
        }
      ],
      "stateMutability": "view",
      "type": "function"
    },
    {
      "inputs": [
        {
          "internalType": "uint256",
          "name": "",
          "type": "uint256"
        }
      ],
      "name": "roots",
      "outputs": [
        {
          "internalType": "bytes32",
          "name": "",
          "type": "bytes32"
        }
      ],
      "stateMutability": "view",
      "type": "function"
    },
    {
      "inputs": [
        {
          "internalType": "uint256",
          "name": "",
          "type": "uint256"
        }
      ],
      "name": "zeros",
      "outputs": [
        {
          "internalType": "bytes32",
          "name": "",
          "type": "bytes32"
        }
      ],
      "stateMutability": "view",
      "type": "function"
    }
  ],
  "bytecode": "0x60a080604052346100ca57602081610486803803809161001f82856100ce565b8339810103126100ca57516001600160a01b038116908190036100ca576080527f07c4283b2fa75d5910795d3d364c3b7ea0eea1ab8202d239d76a40c863f9aced806021555f805260016020528060405f20556001905b60148210156100a65761008b81600192610105565b91828160210155805f52816020528260405f20550190610076565b6100b09080610105565b6002556040516102ff908161018782396080518160f30152f35b5f80fd5b601f909101601f19168101906001600160401b038211908210176100f157604052565b634e487b7160e01b5f52604160045260245ffd5b60805160405163f47d33b560e01b81526004810192909252602482019290925290602090829060449082906001600160a01b03165afa90811561017b575f9161014c575090565b90506020813d602011610173575b81610167602093836100ce565b810103126100ca575190565b3d915061015a565b6040513d5f823e3d90fdfe6080806040526004361015610012575f80fd5b5f3560e01c9081630be4f4221461025257508063414a37ba146102185780635445b007146101d95780636d9833e3146101b157806390eeb02b14610195578063c2b40ae414610169578063cd87a3b41461014e578063e829558814610122578063ed33639f146100de578063f1650536146100c35763f178e47c14610095575f80fd5b346100bf5760203660031901126100bf576004355f526001602052602060405f2054604051908152f35b5f80fd5b346100bf575f3660031901126100bf57602060405160148152f35b346100bf575f3660031901126100bf576040517f00000000000000000000000000000000000000000000000000000000000000006001600160a01b03168152602090f35b346100bf5760203660031901126100bf5760043560148110156100bf5760209060210154604051908152f35b346100bf575f3660031901126100bf576020604051601e8152f35b346100bf5760203660031901126100bf57600435601e8110156100bf5760209060020154604051908152f35b346100bf575f3660031901126100bf5760208054604051908152f35b346100bf5760203660031901126100bf5760206101cf60043561026b565b6040519015158152f35b346100bf575f3660031901126100bf57602054601e8110156102045760209060020154604051908152f35b634e487b7160e01b5f52603260045260245ffd5b346100bf575f3660031901126100bf5760206040517f30644e72e131a029b85045b68181585d2833e84879b9709143e1f593f00000018152f35b346100bf575f3660031901126100bf576020905f548152f35b9081156102c457602054918260015b156102b6575b5f93601e81101561020457806002015483146102ad57806102a45750601d9361027a565b5f19019361027a565b50600193505050565b80840361028057505f925050565b5f915056fea264697066735822122043009b4b5fb362e62dc6963e4f6cb071f8098ba8ab3f14589caf4f1a51f1073c64736f6c634300081e0033",
  "linkReferences": {},
  "deployedLinkReferences": {}
}