{
  "_format": "hh-sol-artifact-1",
  "contractName": "MerkleTreeWithHistory",
  "sourceName": "src/MerkleTreeWithHistory.sol",
  "abi": [
    {
      "inputs": [
        {
          "internalType": "address",
          "name": "_hasher",
          "type": "address"
        }
      ],
      "stateMutability": "nonpayable",
      "type": "constructor"
    },
    {
      "inputs": [],
      "name": "InvalidRoot",
      "type": "error"
    },
    {
      "inputs": [],
      "name": "MerkleTreeFull",
      "type": "error"
    },
    {
      "anonymous": false,
      "inputs": [
        {
          "indexed": true,
          "internalType": "bytes32",
          "name": "leaf",
          "type": "bytes32"
        },
        {
          "indexed": true,
          "internalType": "uint256",
          "name": "leafIndex",
          "type": "uint256"
        },
        {
          "indexed": false,
          "internalType": "bytes32",
          "name": "newRoot",
          "type": "bytes32"
        }
      ],
      "name": "LeafInserted",
      "type": "event"
    },
    {
      "inputs": [],
      "name": "FIELD_SIZE",
      "outputs": [
        {
          "internalType": "uint256",
          "name": "",
          "type": "uint256"
        }
      ],
      "stateMutability": "view",
      "type": "function"
    },
    {
      "inputs": [],
      "name": "ROOT_HISTORY_SIZE",
      "outputs": [
        {
          "internalType": "uint256",
          "name": "",
          "type": "uint256"
        }
      ],
      "stateMutability": "view",
      "type": "function"
    },
    {
      "inputs": [],
      "name": "TREE_DEPTH",
      "outputs": [
        {
          "internalType": "uint256",
          "name": "",
          "type": "uint256"
        }
      ],
      "stateMutability": "view",
      "type": "function"
    },
    {
      "inputs": [],
      "name": "currentRootIndex",
      "outputs": [
        {
          "internalType": "uint256",
          "name": "",
          "type": "uint256"
        }
      ],
      "stateMutability": "view",
      "type": "function"
    },
    {
      "inputs": [
        {
          "internalType": "uint256",
          "name": "",
          "type": "uint256"
        }
      ],
      "name": "filledSubtrees",
      "outputs": [
        {
          "internalType": "bytes32",
          "name": "",
          "type": "bytes32"
        }
      ],
      "stateMutability": "view",
      "type": "function"
    },
    {
      "inputs": [],
      "name": "getLatestRoot",
      "outputs": [
        {
          "internalType": "bytes32",
          "name": "",
          "type": "bytes32"
        }
      ],
      "stateMutability": "view",
      "type": "function"
    },
    {
      "inputs": [],
      "name": "hasher",
      "outputs": [
        {
          "internalType": "contract IHasher",
          "name": "",
          "type": "address"
        }
      ],
      "stateMutability": "view",
      "type": "function"
    },
    {
      "inputs": [
        {
          "internalType": "bytes32",
          "name": "root",
          "type": "bytes32"
        }
      ],
      "name": "isKnownRoot",
      "outputs": [
        {
          "internalType": "bool",
          "name": "",
          "type": "bool"
        }
      ],
      "stateMutability": "view",
      "type": "function"
    },
    {
      "inputs": [],
      "name": "nextLeafIndex",
      "outputs": [
        {
          "internalType": "uint256",
          "name": "",
          "type": "uint256"
        }
      ],
      "stateMutability": "view",
      "type": "function"
    },
    {
      "inputs": [
        {
          "internalType": "uint256",
          "name": "",
          "type": "uint256"
        }
      ],
      "name": "roots",
      "outputs": [
        {
          "internalType": "bytes32",
          "name": "",
          "type": "bytes32"
        }
      ],
      "stateMutability": "view",
      "type": "function"
    },
    {
      "inputs": [
        {
          "internalType": "uint256",
          "name": "",
          "type": "uint256"
        }
      ],
      "name": "zeros",
      "outputs": [
        {
          "internalType": "bytes32",
          "name": "",
          "type": "bytes32"
        }
      ],
      "stateMutability": "view",
      "type": "function"
    }
  ],
  "bytecode": "0x60a080604052346100cc57602081610492803803809161001f82856100d0565b8339810103126100cc57516001600160a01b038116908190036100cc576080527f07c4283b2fa75d5910795d3d364c3b7ea0eea1ab8202d239d76a40c863f9aced806101f7555f805260016020528060405f20556001905b60148210156100a85761008c81600192610107565b9182816101f70155805f52816020528260405f20550190610077565b6100b29080610107565b600255604051610309908161018982396080518160f30152f35b5f80fd5b601f909101601f19168101906001600160401b038211908210176100f357604052565b634e487b7160e01b5f52604160045260245ffd5b60805160405163f47d33b560e01b81526004810192909252602482019290925290602090829060449082906001600160a01b03165afa90811561017d575f9161014e575090565b90506020813d602011610175575b81610169602093836100d0565b810103126100cc575190565b3d915061015c565b6040513d5f823e3d90fdfe6080806040526004361015610012575f80fd5b5f3560e01c9081630be4f4221461025957508063414a37ba1461021f5780635445b007146101de5780636d9833e3146101b657806390eeb02b14610198578063c2b40ae41461016b578063cd87a3b41461014f578063e829558814610122578063ed33639f146100de578063f1650536146100c35763f178e47c14610095575f80fd5b346100bf5760203660031901126100bf576004355f526001602052602060405f2054604051908152f35b5f80fd5b346100bf575f3660031901126100bf57602060405160148152f35b346100bf575f3660031901126100bf576040517f00000000000000000000000000000000000000000000000000000000000000006001600160a01b03168152602090f35b346100bf5760203660031901126100bf5760043560148110156100bf576020906101f70154604051908152f35b346100bf575f3660031901126100bf5760206040516101f48152f35b346100bf5760203660031901126100bf576004356101f48110156100bf5760209060020154604051908152f35b346100bf575f3660031901126100bf5760206101f654604051908152f35b346100bf5760203660031901126100bf5760206101d4600435610272565b6040519015158152f35b346100bf575f3660031901126100bf576101f6546101f481101561020b5760209060020154604051908152f35b634e487b7160e01b5f52603260045260245ffd5b346100bf575f3660031901126100bf5760206040517f30644e72e131a029b85045b68181585d2833e84879b9709143e1f593f00000018152f35b346100bf575f3660031901126100bf576020905f548152f35b9081156102ce576101f654918260015b156102c0575b5f936101f481101561020b57806002015483146102b757806102ae57506101f393610282565b5f190193610282565b50600193505050565b80840361028857505f925050565b5f915056fea2646970667358221220afc291393bc0aa5f62ab7e672355afed9d41a3d7d8ac24801e77029b30b9a9da64736f6c634300081e0033",
  "linkReferences": {},
  "deployedLinkReferences": {}
}