{"src/Hasher.sol":{"Hasher":{"abi":[{"inputs":[],"stateMutability":"nonpayable","type":"constructor"},{"inputs":[{"internalType":"uint256","name":"left","type":"uint256"},{"internalType":"uint256","name":"right","type":"uint256"}],"name":"MiMCSponge","outputs":[{"internalType":"uint256","name":"result","type":"uint256"}],"stateMutability":"view","type":"function"},{"inputs":[{"internalType":"uint256","name":"input","type":"uint256"}],"name":"hash","outputs":[{"internalType":"uint256","name":"result","type":"uint256"}],"stateMutability":"view","type":"function"}],"evm":{"bytecode":{"linkReferences":{},"object":"6080604052348015600e575f5ffd5b505f5b60dc8110156096576040516c646f67656e61646f5f6d696d6360981b6020820152602d81018290527f30644e72e131a029b85045b68181585d2833e84879b9709143e1f593f000000190604d01604051602081830303815290604052805190602001205f1c607e9190609b565b5f8260dc8110608d57608d60b9565b01556001016011565b5060cd565b5f8260b457634e487b7160e01b5f52601260045260245ffd5b500690565b634e487b7160e01b5f52603260045260245ffd5b61032c806100da5f395ff3fe608060405234801561000f575f5ffd5b5060043610610034575f3560e01c8063b189fd4c14610038578063f47d33b51461005d575b5f5ffd5b61004b610046366004610274565b610070565b60405190815260200160405180910390f35b61004b61006b36600461028b565b6100dd565b60405163f47d33b560e01b815260048101829052602481018290525f90309063f47d33b590604401602060405180830381865afa1580156100b3573d5f5f3e3d5ffd5b505050506040513d601f19601f820116820180604052508101906100d791906102ab565b92915050565b5f808084815b60dc811015610189575f5160206102d75f395f51905f52845f5160206102d75f395f51905f525f8460dc811061011b5761011b6102c2565b015485080892505f5160206102d75f395f51905f5283840992505f5160206102d75f395f51905f5283840992505f5160206102d75f395f51905f5280855f5160206102d75f395f51905f525f8560dc8110610178576101786102c2565b0154860808840991506001016100e3565b505f5160206102d75f395f51905f5283820890505f5160206102d75f395f51905f5285820890505f5b60dc811015610258575f5160206102d75f395f51905f52845f5160206102d75f395f51905f525f8460dc81106101ea576101ea6102c2565b015485080892505f5160206102d75f395f51905f5283840992505f5160206102d75f395f51905f5283840992505f5160206102d75f395f51905f5280855f5160206102d75f395f51905f525f8560dc8110610247576102476102c2565b0154860808840991506001016101b2565b505f5160206102d75f395f51905f528382089695505050505050565b5f60208284031215610284575f5ffd5b5035919050565b5f5f6040838503121561029c575f5ffd5b50508035926020909101359150565b5f602082840312156102bb575f5ffd5b5051919050565b634e487b7160e01b5f52603260045260245ffdfe30644e72e131a029b85045b68181585d2833e84879b9709143e1f593f0000001a2646970667358221220570b96bf2c022204b75dc4fa28568db8236d9ab00fcbcbb47267349d3f0242fc64736f6c634300081e0033","opcodes":"PUSH1 0x80 PUSH1 0x40 MSTORE CALLVALUE DUP1 ISZERO PUSH1 0xE JUMPI PUSH0 PUSH0 REVERT JUMPDEST POP PUSH0 JUMPDEST PUSH1 0xDC DUP2 LT ISZERO PUSH1 0x96 JUMPI PUSH1 0x40 MLOAD PUSH13 0x646F67656E61646F5F6D696D63 PUSH1 0x98 SHL PUSH1 0x20 DUP3 ADD MSTORE PUSH1 0x2D DUP2 ADD DUP3 SWAP1 MSTORE PUSH32 0x30644E72E131A029B85045B68181585D2833E84879B9709143E1F593F0000001 SWAP1 PUSH1 0x4D ADD PUSH1 0x40 MLOAD PUSH1 0x20 DUP2 DUP4 SUB SUB DUP2 MSTORE SWAP1 PUSH1 0x40 MSTORE DUP1 MLOAD SWAP1 PUSH1 0x20 ADD KECCAK256 PUSH0 SHR PUSH1 0x7E SWAP2 SWAP1 PUSH1 0x9B JUMP JUMPDEST PUSH0 DUP3 PUSH1 0xDC DUP2 LT PUSH1 0x8D JUMPI PUSH1 0x8D PUSH1 0xB9 JUMP JUMPDEST ADD SSTORE PUSH1 0x1 ADD PUSH1 0x11 JUMP JUMPDEST POP PUSH1 0xCD JUMP JUMPDEST PUSH0 DUP3 PUSH1 0xB4 JUMPI PUSH4 0x4E487B71 PUSH1 0xE0 SHL PUSH0 MSTORE PUSH1 0x12 PUSH1 0x4 MSTORE PUSH1 0x24 PUSH0 REVERT JUMPDEST POP MOD SWAP1 JUMP JUMPDEST PUSH4 0x4E487B71 PUSH1 0xE0 SHL PUSH0 MSTORE PUSH1 0x32 PUSH1 0x4 MSTORE PUSH1 0x24 PUSH0 REVERT JUMPDEST PUSH2 0x32C DUP1 PUSH2 0xDA PUSH0 CODECOPY PUSH0 RETURN INVALID PUSH1 0x80 PUSH1 0x40 MSTORE CALLVALUE DUP1 ISZERO PUSH2 0xF JUMPI PUSH0 PUSH0 REVERT JUMPDEST POP PUSH1 0x4 CALLDATASIZE LT PUSH2 0x34 JUMPI PUSH0 CALLDATALOAD PUSH1 0xE0 SHR DUP1 PUSH4 0xB189FD4C EQ PUSH2 0x38 JUMPI DUP1 PUSH4 0xF47D33B5 EQ PUSH2 0x5D JUMPI JUMPDEST PUSH0 PUSH0 REVERT JUMPDEST PUSH2 0x4B PUSH2 0x46 CALLDATASIZE PUSH1 0x4 PUSH2 0x274 JUMP JUMPDEST PUSH2 0x70 JUMP JUMPDEST PUSH1 0x40 MLOAD SWAP1 DUP2 MSTORE PUSH1 0x20 ADD PUSH1 0x40 MLOAD DUP1 SWAP2 SUB SWAP1 RETURN JUMPDEST PUSH2 0x4B PUSH2 0x6B CALLDATASIZE PUSH1 0x4 PUSH2 0x28B JUMP JUMPDEST PUSH2 0xDD JUMP JUMPDEST PUSH1 0x40 MLOAD PUSH4 0xF47D33B5 PUSH1 0xE0 SHL DUP2 MSTORE PUSH1 0x4 DUP2 ADD DUP3 SWAP1 MSTORE PUSH1 0x24 DUP2 ADD DUP3 SWAP1 MSTORE PUSH0 SWAP1 ADDRESS SWAP1 PUSH4 0xF47D33B5 SWAP1 PUSH1 0x44 ADD PUSH1 0x20 PUSH1 0x40 MLOAD DUP1 DUP4 SUB DUP2 DUP7 GAS STATICCALL ISZERO DUP1 ISZERO PUSH2 0xB3 JUMPI RETURNDATASIZE PUSH0 PUSH0 RETURNDATACOPY RETURNDATASIZE PUSH0 REVERT JUMPDEST POP POP POP POP PUSH1 0x40 MLOAD RETURNDATASIZE PUSH1 0x1F NOT PUSH1 0x1F DUP3 ADD AND DUP3 ADD DUP1 PUSH1 0x40 MSTORE POP DUP2 ADD SWAP1 PUSH2 0xD7 SWAP2 SWAP1 PUSH2 0x2AB JUMP JUMPDEST SWAP3 SWAP2 POP POP JUMP JUMPDEST PUSH0 DUP1 DUP1 DUP5 DUP2 JUMPDEST PUSH1 0xDC DUP2 LT ISZERO PUSH2 0x189 JUMPI PUSH0 MLOAD PUSH1 0x20 PUSH2 0x2D7 PUSH0 CODECOPY PUSH0 MLOAD SWAP1 PUSH0 MSTORE DUP5 PUSH0 MLOAD PUSH1 0x20 PUSH2 0x2D7 PUSH0 CODECOPY PUSH0 MLOAD SWAP1 PUSH0 MSTORE PUSH0 DUP5 PUSH1 0xDC DUP2 LT PUSH2 0x11B JUMPI PUSH2 0x11B PUSH2 0x2C2 JUMP JUMPDEST ADD SLOAD DUP6 ADDMOD ADDMOD SWAP3 POP PUSH0 MLOAD PUSH1 0x20 PUSH2 0x2D7 PUSH0 CODECOPY PUSH0 MLOAD SWAP1 PUSH0 MSTORE DUP4 DUP5 MULMOD SWAP3 POP PUSH0 MLOAD PUSH1 0x20 PUSH2 0x2D7 PUSH0 CODECOPY PUSH0 MLOAD SWAP1 PUSH0 MSTORE DUP4 DUP5 MULMOD SWAP3 POP PUSH0 MLOAD PUSH1 0x20 PUSH2 0x2D7 PUSH0 CODECOPY PUSH0 MLOAD SWAP1 PUSH0 MSTORE DUP1 DUP6 PUSH0 MLOAD PUSH1 0x20 PUSH2 0x2D7 PUSH0 CODECOPY PUSH0 MLOAD SWAP1 PUSH0 MSTORE PUSH0 DUP6 PUSH1 0xDC DUP2 LT PUSH2 0x178 JUMPI PUSH2 0x178 PUSH2 0x2C2 JUMP JUMPDEST ADD SLOAD DUP7 ADDMOD ADDMOD DUP5 MULMOD SWAP2 POP PUSH1 0x1 ADD PUSH2 0xE3 JUMP JUMPDEST POP PUSH0 MLOAD PUSH1 0x20 PUSH2 0x2D7 PUSH0 CODECOPY PUSH0 MLOAD SWAP1 PUSH0 MSTORE DUP4 DUP3 ADDMOD SWAP1 POP PUSH0 MLOAD PUSH1 0x20 PUSH2 0x2D7 PUSH0 CODECOPY PUSH0 MLOAD SWAP1 PUSH0 MSTORE DUP6 DUP3 ADDMOD SWAP1 POP PUSH0 JUMPDEST PUSH1 0xDC DUP2 LT ISZERO PUSH2 0x258 JUMPI PUSH0 MLOAD PUSH1 0x20 PUSH2 0x2D7 PUSH0 CODECOPY PUSH0 MLOAD SWAP1 PUSH0 MSTORE DUP5 PUSH0 MLOAD PUSH1 0x20 PUSH2 0x2D7 PUSH0 CODECOPY PUSH0 MLOAD SWAP1 PUSH0 MSTORE PUSH0 DUP5 PUSH1 0xDC DUP2 LT PUSH2 0x1EA JUMPI PUSH2 0x1EA PUSH2 0x2C2 JUMP JUMPDEST ADD SLOAD DUP6 ADDMOD ADDMOD SWAP3 POP PUSH0 MLOAD PUSH1 0x20 PUSH2 0x2D7 PUSH0 CODECOPY PUSH0 MLOAD SWAP1 PUSH0 MSTORE DUP4 DUP5 MULMOD SWAP3 POP PUSH0 MLOAD PUSH1 0x20 PUSH2 0x2D7 PUSH0 CODECOPY PUSH0 MLOAD SWAP1 PUSH0 MSTORE DUP4 DUP5 MULMOD SWAP3 POP PUSH0 MLOAD PUSH1 0x20 PUSH2 0x2D7 PUSH0 CODECOPY PUSH0 MLOAD SWAP1 PUSH0 MSTORE DUP1 DUP6 PUSH0 MLOAD PUSH1 0x20 PUSH2 0x2D7 PUSH0 CODECOPY PUSH0 MLOAD SWAP1 PUSH0 MSTORE PUSH0 DUP6 PUSH1 0xDC DUP2 LT PUSH2 0x247 JUMPI PUSH2 0x247 PUSH2 0x2C2 JUMP JUMPDEST ADD SLOAD DUP7 ADDMOD ADDMOD DUP5 MULMOD SWAP2 POP PUSH1 0x1 ADD PUSH2 0x1B2 JUMP JUMPDEST POP PUSH0 MLOAD PUSH1 0x20 PUSH2 0x2D7 PUSH0 CODECOPY PUSH0 MLOAD SWAP1 PUSH0 MSTORE DUP4 DUP3 ADDMOD SWAP7 SWAP6 POP POP POP POP POP POP JUMP JUMPDEST PUSH0 PUSH1 0x20 DUP3 DUP5 SUB SLT ISZERO PUSH2 0x284 JUMPI PUSH0 PUSH0 REVERT JUMPDEST POP CALLDATALOAD SWAP2 SWAP1 POP JUMP JUMPDEST PUSH0 PUSH0 PUSH1 0x40 DUP4 DUP6 SUB SLT ISZERO PUSH2 0x29C JUMPI PUSH0 PUSH0 REVERT JUMPDEST POP POP DUP1 CALLDATALOAD SWAP3 PUSH1 0x20 SWAP1 SWAP2 ADD CALLDATALOAD SWAP2 POP JUMP JUMPDEST PUSH0 PUSH1 0x20 DUP3 DUP5 SUB SLT ISZERO PUSH2 0x2BB JUMPI PUSH0 PUSH0 REVERT JUMPDEST POP MLOAD SWAP2 SWAP1 POP JUMP JUMPDEST PUSH4 0x4E487B71 PUSH1 0xE0 SHL PUSH0 MSTORE PUSH1 0x32 PUSH1 0x4 MSTORE PUSH1 0x24 PUSH0 REVERT INVALID ADDRESS PUSH5 0x4E72E131A0 0x29 0xB8 POP GASLIMIT 0xB6 DUP2 DUP2 PC TSTORE 0x28 CALLER 0xE8 BASEFEE PUSH26 0xB9709143E1F593F0000001A2646970667358221220570B96BF2C MUL 0x22 DIV 0xB7 TSTORE 0xC4 STATICCALL 0x28 JUMP DUP14 0xB8 0x23 PUSH14 0x9AB00FCBCBB47267349D3F0242FC PUSH5 0x736F6C6343 STOP ADDMOD 0x1E STOP CALLER "},"methodIdentifiers":{"MiMCSponge(uint256,uint256)":"f47d33b5","hash(uint256)":"b189fd4c"}}}}}