{"src/MixerPool.sol":{"MixerPool":{"abi":[{"inputs":[{"internalType":"address","name":"_verifier","type":"address"},{"internalType":"address","name":"_hasher","type":"address"},{"internalType":"address","name":"_token","type":"address"},{"internalType":"uint256","name":"_denomination","type":"uint256"}],"stateMutability":"nonpayable","type":"constructor"},{"inputs":[],"name":"CommitmentAlreadyExists","type":"error"},{"inputs":[],"name":"InvalidDenomination","type":"error"},{"inputs":[],"name":"InvalidFee","type":"error"},{"inputs":[],"name":"InvalidMerkleRoot","type":"error"},{"inputs":[],"name":"InvalidProof","type":"error"},{"inputs":[],"name":"InvalidRoot","type":"error"},{"inputs":[],"name":"MerkleTreeFull","type":"error"},{"inputs":[],"name":"NullifierAlreadySpent","type":"error"},{"inputs":[],"name":"ReentrancyGuardReentrantCall","type":"error"},{"inputs":[{"internalType":"address","name":"token","type":"address"}],"name":"SafeERC20FailedOperation","type":"error"},{"inputs":[],"name":"TransferFailed","type":"error"},{"anonymous":false,"inputs":[{"indexed":true,"internalType":"bytes32","name":"commitment","type":"bytes32"},{"indexed":true,"internalType":"uint256","name":"leafIndex","type":"uint256"},{"indexed":false,"internalType":"uint256","name":"timestamp","type":"uint256"}],"name":"Deposit","type":"event"},{"anonymous":false,"inputs":[{"indexed":true,"internalType":"bytes32","name":"leaf","type":"bytes32"},{"indexed":true,"internalType":"uint256","name":"leafIndex","type":"uint256"},{"indexed":false,"internalType":"bytes32","name":"newRoot","type":"bytes32"}],"name":"LeafInserted","type":"event"},{"anonymous":false,"inputs":[{"indexed":true,"internalType":"address","name":"recipient","type":"address"},{"indexed":true,"internalType":"bytes32","name":"nullifierHash","type":"bytes32"},{"indexed":true,"internalType":"address","name":"relayer","type":"address"},{"indexed":false,"internalType":"uint256","name":"fee","type":"uint256"}],"name":"Withdrawal","type":"event"},{"inputs":[],"name":"FIELD_SIZE","outputs":[{"internalType":"uint256","name":"","type":"uint256"}],"stateMutability":"view","type":"function"},{"inputs":[],"name":"ROOT_HISTORY_SIZE","outputs":[{"internalType":"uint256","name":"","type":"uint256"}],"stateMutability":"view","type":"function"},{"inputs":[],"name":"TREE_DEPTH","outputs":[{"internalType":"uint256","name":"","type":"uint256"}],"stateMutability":"view","type":"function"},{"inputs":[{"internalType":"bytes32","name":"","type":"bytes32"}],"name":"commitments","outputs":[{"internalType":"bool","name":"","type":"bool"}],"stateMutability":"view","type":"function"},{"inputs":[],"name":"currentRootIndex","outputs":[{"internalType":"uint256","name":"","type":"uint256"}],"stateMutability":"view","type":"function"},{"inputs":[],"name":"denomination","outputs":[{"internalType":"uint256","name":"","type":"uint256"}],"stateMutability":"view","type":"function"},{"inputs":[{"internalType":"bytes32","name":"commitment","type":"bytes32"}],"name":"deposit","outputs":[],"stateMutability":"nonpayable","type":"function"},{"inputs":[{"internalType":"uint256","name":"","type":"uint256"}],"name":"filledSubtrees","outputs":[{"internalType":"bytes32","name":"","type":"bytes32"}],"stateMutability":"view","type":"function"},{"inputs":[],"name":"getLatestRoot","outputs":[{"internalType":"bytes32","name":"","type":"bytes32"}],"stateMutability":"view","type":"function"},{"inputs":[],"name":"getPoolInfo","outputs":[{"internalType":"address","name":"_token","type":"address"},{"internalType":"uint256","name":"_denomination","type":"uint256"},{"internalType":"uint256","name":"_depositsCount","type":"uint256"},{"internalType":"bytes32","name":"_root","type":"bytes32"}],"stateMutability":"view","type":"function"},{"inputs":[],"name":"hasher","outputs":[{"internalType":"contract IHasher","name":"","type":"address"}],"stateMutability":"view","type":"function"},{"inputs":[{"internalType":"bytes32","name":"commitment","type":"bytes32"}],"name":"isDeposited","outputs":[{"internalType":"bool","name":"","type":"bool"}],"stateMutability":"view","type":"function"},{"inputs":[{"internalType":"bytes32","name":"root","type":"bytes32"}],"name":"isKnownRoot","outputs":[{"internalType":"bool","name":"","type":"bool"}],"stateMutability":"view","type":"function"},{"inputs":[{"internalType":"bytes32","name":"nullifierHash","type":"bytes32"}],"name":"isSpent","outputs":[{"internalType":"bool","name":"","type":"bool"}],"stateMutability":"view","type":"function"},{"inputs":[],"name":"nextLeafIndex","outputs":[{"internalType":"uint256","name":"","type":"uint256"}],"stateMutability":"view","type":"function"},{"inputs":[{"internalType":"bytes32","name":"","type":"bytes32"}],"name":"nullifierHashes","outputs":[{"internalType":"bool","name":"","type":"bool"}],"stateMutability":"view","type":"function"},{"inputs":[{"internalType":"uint256","name":"","type":"uint256"}],"name":"roots","outputs":[{"internalType":"bytes32","name":"","type":"bytes32"}],"stateMutability":"view","type":"function"},{"inputs":[],"name":"token","outputs":[{"internalType":"contract IERC20","name":"","type":"address"}],"stateMutability":"view","type":"function"},{"inputs":[],"name":"verifier","outputs":[{"internalType":"contract IVerifier","name":"","type":"address"}],"stateMutability":"view","type":"function"},{"inputs":[{"internalType":"uint256[8]","name":"proof","type":"uint256[8]"},{"internalType":"bytes32","name":"root","type":"bytes32"},{"internalType":"bytes32","name":"nullifierHash","type":"bytes32"},{"internalType":"address","name":"recipient","type":"address"},{"internalType":"address","name":"relayer","type":"address"},{"internalType":"uint256","name":"fee","type":"uint256"}],"name":"withdraw","outputs":[],"stateMutability":"nonpayable","type":"function"},{"inputs":[{"internalType":"uint256","name":"","type":"uint256"}],"name":"zeros","outputs":[{"internalType":"bytes32","name":"","type":"bytes32"}],"stateMutability":"view","type":"function"}],"evm":{"bytecode":{"linkReferences":{},"object":"610100604052348015610010575f5ffd5b5060405161114a38038061114a83398101604081905261002f916101e9565b6001600160a01b038316608052825f6100887f30644e72e131a029b85045b68181585d2833e84879b9709143e1f593f00000017f98f11393d33c3dd6396a2e60bad04496198a5a84ef2f23eda310218433f9acf0610231565b90508060215f01555f8052600160208190527fa6eef7e35abe7026729641147f7915573c7e97b47efa546f5f6e3230263bcb498290555b6014811015610103576100d28280610155565b915081602182601481106100e8576100e8610250565b01555f818152600160208190526040909120839055016100bf565b5061010e8180610155565b600255505060016035555f81900361013957604051637833d9e360e11b815260040160405180910390fd5b6001600160a01b0393841660c052921660a0525060e05261027b565b60805160405163f47d33b560e01b815260048101849052602481018390525f916001600160a01b03169063f47d33b590604401602060405180830381865afa1580156101a3573d5f5f3e3d5ffd5b505050506040513d601f19601f820116820180604052508101906101c79190610264565b9392505050565b80516001600160a01b03811681146101e4575f5ffd5b919050565b5f5f5f5f608085870312156101fc575f5ffd5b610205856101ce565b9350610213602086016101ce565b9250610221604086016101ce565b6060959095015193969295505050565b5f8261024b57634e487b7160e01b5f52601260045260245ffd5b500690565b634e487b7160e01b5f52603260045260245ffd5b5f60208284031215610274575f5ffd5b5051919050565b60805160a05160c05160e051610e4f6102fb5f395f818161027f015281816103db0152818161048a015281816105520152818161063701526107cf01525f81816101aa015261058601525f8181610375015281816103ba0152818161066a015281816106ba01526107ab01525f81816103270152610b020152610e4f5ff3fe608060405234801561000f575f5ffd5b5060043610610132575f3560e01c806390eeb02b116100b4578063e5285dcc11610079578063e5285dcc146102ed578063e82955881461030f578063ed33639f14610322578063f165053614610349578063f178e47c14610351578063fc0c546a14610370575f5ffd5b806390eeb02b146102a1578063a151918a146102aa578063b214faa5146102bf578063c2b40ae4146102d2578063cd87a3b4146102e5575f5ffd5b80635445b007116100fa5780635445b0071461020b57806360246c88146102135780636d9833e314610245578063839df945146102585780638bca6d161461027a575f5ffd5b80630be4f4221461013657806317cc915c14610151578063230ddd90146101835780632b7ac3f3146101a5578063414a37ba146101e4575b5f5ffd5b61013e5f5481565b6040519081526020015b60405180910390f35b61017361015f366004610b7c565b60366020525f908152604090205460ff1681565b6040519015158152602001610148565b610173610191366004610b7c565b5f9081526037602052604090205460ff1690565b6101cc7f000000000000000000000000000000000000000000000000000000000000000081565b6040516001600160a01b039091168152602001610148565b61013e7f30644e72e131a029b85045b68181585d2833e84879b9709143e1f593f000000181565b61013e610397565b61021b6103b4565b604080516001600160a01b0390951685526020850193909352918301526060820152608001610148565b610173610253366004610b7c565b610412565b610173610266366004610b7c565b60376020525f908152604090205460ff1681565b61013e7f000000000000000000000000000000000000000000000000000000000000000081565b61013e60205481565b6102bd6102b8366004610bae565b610480565b005b6102bd6102cd366004610b7c565b610743565b61013e6102e0366004610b7c565b61083c565b61013e601e81565b6101736102fb366004610b7c565b5f9081526036602052604090205460ff1690565b61013e61031d366004610b7c565b610852565b6101cc7f000000000000000000000000000000000000000000000000000000000000000081565b61013e601481565b61013e61035f366004610b7c565b60016020525f908152604090205481565b6101cc7f000000000000000000000000000000000000000000000000000000000000000081565b5f6002602054601e81106103ad576103ad610c15565b0154905090565b5f5f5f5f7f00000000000000000000000000000000000000000000000000000000000000007f00000000000000000000000000000000000000000000000000000000000000005f54610404610397565b935093509350935090919293565b5f8161041f57505f919050565b6020545b600281601e811061043657610436610c15565b015483036104475750600192915050565b805f036104615761045a6001601e610c3d565b905061046f565b8061046b81610c50565b9150505b602054810361042357505f92915050565b610488610861565b7f00000000000000000000000000000000000000000000000000000000000000008111156104c9576040516358d620b360e01b815260040160405180910390fd5b6104d285610412565b6104ef57604051639dd854d360e01b815260040160405180910390fd5b5f8481526036602052604090205460ff161561051e5760405163b115d85760e01b815260040160405180910390fd5b6040805160c081018252868152602081018690526001600160a01b03808616828401528481166060830152608082018490527f000000000000000000000000000000000000000000000000000000000000000060a0830152915163139650cb60e31b815290917f00000000000000000000000000000000000000000000000000000000000000001690639cb28658906105bd908a908590600401610c65565b602060405180830381865afa1580156105d8573d5f5f3e3d5ffd5b505050506040513d601f19601f820116820180604052508101906105fc9190610ca1565b610619576040516309bde33960e01b815260040160405180910390fd5b5f858152603660205260408120805460ff1916600117905561065b837f0000000000000000000000000000000000000000000000000000000000000000610c3d565b90506106916001600160a01b037f000000000000000000000000000000000000000000000000000000000000000016868361088b565b5f831180156106a857506001600160a01b03841615155b156106e1576106e16001600160a01b037f000000000000000000000000000000000000000000000000000000000000000016858561088b565b836001600160a01b031686866001600160a01b03167fe9e508bad6d4c3227e881ca19068f099da81b5164dd6d62b2eaf1e8bc6c349318660405161072791815260200190565b60405180910390a4505061073b6001603555565b505050505050565b61074b610861565b5f8181526037602052604090205460ff161561077a5760405163145718a760e01b815260040160405180910390fd5b5f610784826108ef565b5f838152603760205260409020805460ff1916600117905590506107f36001600160a01b037f00000000000000000000000000000000000000000000000000000000000000001633307f0000000000000000000000000000000000000000000000000000000000000000610a34565b80827fe1f1096fd8bc7d572fb7ad7e4102736b6615500975c0252ea91ef1b765c498974260405161082691815260200190565b60405180910390a3506108396001603555565b50565b600281601e811061084b575f80fd5b0154905081565b6021816014811061084b575f80fd5b60026035540361088457604051633ee5aeb560e01b815260040160405180910390fd5b6002603555565b6040516001600160a01b038381166024830152604482018390526108ea91859182169063a9059cbb906064015b604051602081830303815290604052915060e01b6020820180516001600160e01b038381831617835250505050610a73565b505050565b5f80546108fe60146002610daa565b811061091d576040516377ae67b360e11b815260040160405180910390fd5b80835f80805b60148110156109a157610937600286610dc9565b5f0361096c578392506021816014811061095357610953610c15565b01545f8281526001602052604090208590559150610980565b5f8181526001602052604090205492508391505b61098a8383610ae3565b9350610997600286610ddc565b9450600101610923565b505f601e60205460016109b49190610def565b6109be9190610dc9565b905083600282601e81106109d4576109d4610c15565b015560208190556109e6866001610def565b5f8190555085965086887fd50e83984b64a106ac2ee6314d689ec4d2a656d5ece6d94c585796944b52240c86604051610a2191815260200190565b60405180910390a3505050505050919050565b6040516001600160a01b038481166024830152838116604483015260648201839052610a6d9186918216906323b872dd906084016108b8565b50505050565b5f5f60205f8451602086015f885af180610a92576040513d5f823e3d81fd5b50505f513d91508115610aa9578060011415610ab6565b6001600160a01b0384163b155b15610a6d57604051635274afe760e01b81526001600160a01b038516600482015260240160405180910390fd5b60405163f47d33b560e01b815260048101839052602481018290525f907f00000000000000000000000000000000000000000000000000000000000000006001600160a01b03169063f47d33b590604401602060405180830381865afa158015610b4f573d5f5f3e3d5ffd5b505050506040513d601f19601f82011682018060405250810190610b739190610e02565b90505b92915050565b5f60208284031215610b8c575f5ffd5b5035919050565b80356001600160a01b0381168114610ba9575f5ffd5b919050565b5f5f5f5f5f5f6101a08789031215610bc4575f5ffd5b610100870188811115610bd5575f5ffd5b8796503594506101208601359350610bf06101408701610b93565b9250610bff6101608801610b93565b9598949750929591949361018090920135925050565b634e487b7160e01b5f52603260045260245ffd5b634e487b7160e01b5f52601160045260245ffd5b81810381811115610b7657610b76610c29565b5f81610c5e57610c5e610c29565b505f190190565b6101c081016101008483376101008201835f5b6006811015610c97578151835260209283019290910190600101610c78565b5050509392505050565b5f60208284031215610cb1575f5ffd5b81518015158114610cc0575f5ffd5b9392505050565b6001815b6001841115610d0257808504811115610ce657610ce6610c29565b6001841615610cf457908102905b60019390931c928002610ccb565b935093915050565b5f82610d1857506001610b76565b81610d2457505f610b76565b8160018114610d3a5760028114610d4457610d60565b6001915050610b76565b60ff841115610d5557610d55610c29565b50506001821b610b76565b5060208310610133831016604e8410600b8410161715610d83575081810a610b76565b610d8f5f198484610cc7565b805f1904821115610da257610da2610c29565b029392505050565b5f610cc08383610d0a565b634e487b7160e01b5f52601260045260245ffd5b5f82610dd757610dd7610db5565b500690565b5f82610dea57610dea610db5565b500490565b80820180821115610b7657610b76610c29565b5f60208284031215610e12575f5ffd5b505191905056fea26469706673582212206c5f83c431a9f1e93d7015a3ba2efd82101928bc68c0c115387c244550b57e3264736f6c634300081e0033","opcodes":"PUSH2 0x100 PUSH1 0x40 MSTORE CALLVALUE DUP1 ISZERO PUSH2 0x10 JUMPI PUSH0 PUSH0 REVERT JUMPDEST POP PUSH1 0x40 MLOAD PUSH2 0x114A CODESIZE SUB DUP1 PUSH2 0x114A DUP4 CODECOPY DUP2 ADD PUSH1 0x40 DUP2 SWAP1 MSTORE PUSH2 0x2F SWAP2 PUSH2 0x1E9 JUMP JUMPDEST PUSH1 0x1 PUSH1 0x1 PUSH1 0xA0 SHL SUB DUP4 AND PUSH1 0x80 MSTORE DUP3 PUSH0 PUSH2 0x88 PUSH32 0x30644E72E131A029B85045B68181585D2833E84879B9709143E1F593F0000001 PUSH32 0x98F11393D33C3DD6396A2E60BAD04496198A5A84EF2F23EDA310218433F9ACF0 PUSH2 0x231 JUMP JUMPDEST SWAP1 POP DUP1 PUSH1 0x21 PUSH0 ADD SSTORE PUSH0 DUP1 MSTORE PUSH1 0x1 PUSH1 0x20 DUP2 SWAP1 MSTORE PUSH32 0xA6EEF7E35ABE7026729641147F7915573C7E97B47EFA546F5F6E3230263BCB49 DUP3 SWAP1 SSTORE JUMPDEST PUSH1 0x14 DUP2 LT ISZERO PUSH2 0x103 JUMPI PUSH2 0xD2 DUP3 DUP1 PUSH2 0x155 JUMP JUMPDEST SWAP2 POP DUP2 PUSH1 0x21 DUP3 PUSH1 0x14 DUP2 LT PUSH2 0xE8 JUMPI PUSH2 0xE8 PUSH2 0x250 JUMP JUMPDEST ADD SSTORE PUSH0 DUP2 DUP2 MSTORE PUSH1 0x1 PUSH1 0x20 DUP2 SWAP1 MSTORE PUSH1 0x40 SWAP1 SWAP2 KECCAK256 DUP4 SWAP1 SSTORE ADD PUSH2 0xBF JUMP JUMPDEST POP PUSH2 0x10E DUP2 DUP1 PUSH2 0x155 JUMP JUMPDEST PUSH1 0x2 SSTORE POP POP PUSH1 0x1 PUSH1 0x35 SSTORE PUSH0 DUP2 SWAP1 SUB PUSH2 0x139 JUMPI PUSH1 0x40 MLOAD PUSH4 0x7833D9E3 PUSH1 0xE1 SHL DUP2 MSTORE PUSH1 0x4 ADD PUSH1 0x40 MLOAD DUP1 SWAP2 SUB SWAP1 REVERT JUMPDEST PUSH1 0x1 PUSH1 0x1 PUSH1 0xA0 SHL SUB SWAP4 DUP5 AND PUSH1 0xC0 MSTORE SWAP3 AND PUSH1 0xA0 MSTORE POP PUSH1 0xE0 MSTORE PUSH2 0x27B JUMP JUMPDEST PUSH1 0x80 MLOAD PUSH1 0x40 MLOAD PUSH4 0xF47D33B5 PUSH1 0xE0 SHL DUP2 MSTORE PUSH1 0x4 DUP2 ADD DUP5 SWAP1 MSTORE PUSH1 0x24 DUP2 ADD DUP4 SWAP1 MSTORE PUSH0 SWAP2 PUSH1 0x1 PUSH1 0x1 PUSH1 0xA0 SHL SUB AND SWAP1 PUSH4 0xF47D33B5 SWAP1 PUSH1 0x44 ADD PUSH1 0x20 PUSH1 0x40 MLOAD DUP1 DUP4 SUB DUP2 DUP7 GAS STATICCALL ISZERO DUP1 ISZERO PUSH2 0x1A3 JUMPI RETURNDATASIZE PUSH0 PUSH0 RETURNDATACOPY RETURNDATASIZE PUSH0 REVERT JUMPDEST POP POP POP POP PUSH1 0x40 MLOAD RETURNDATASIZE PUSH1 0x1F NOT PUSH1 0x1F DUP3 ADD AND DUP3 ADD DUP1 PUSH1 0x40 MSTORE POP DUP2 ADD SWAP1 PUSH2 0x1C7 SWAP2 SWAP1 PUSH2 0x264 JUMP JUMPDEST SWAP4 SWAP3 POP POP POP JUMP JUMPDEST DUP1 MLOAD PUSH1 0x1 PUSH1 0x1 PUSH1 0xA0 SHL SUB DUP2 AND DUP2 EQ PUSH2 0x1E4 JUMPI PUSH0 PUSH0 REVERT JUMPDEST SWAP2 SWAP1 POP JUMP JUMPDEST PUSH0 PUSH0 PUSH0 PUSH0 PUSH1 0x80 DUP6 DUP8 SUB SLT ISZERO PUSH2 0x1FC JUMPI PUSH0 PUSH0 REVERT JUMPDEST PUSH2 0x205 DUP6 PUSH2 0x1CE JUMP JUMPDEST SWAP4 POP PUSH2 0x213 PUSH1 0x20 DUP7 ADD PUSH2 0x1CE JUMP JUMPDEST SWAP3 POP PUSH2 0x221 PUSH1 0x40 DUP7 ADD PUSH2 0x1CE JUMP JUMPDEST PUSH1 0x60 SWAP6 SWAP1 SWAP6 ADD MLOAD SWAP4 SWAP7 SWAP3 SWAP6 POP POP POP JUMP JUMPDEST PUSH0 DUP3 PUSH2 0x24B JUMPI PUSH4 0x4E487B71 PUSH1 0xE0 SHL PUSH0 MSTORE PUSH1 0x12 PUSH1 0x4 MSTORE PUSH1 0x24 PUSH0 REVERT JUMPDEST POP MOD SWAP1 JUMP JUMPDEST PUSH4 0x4E487B71 PUSH1 0xE0 SHL PUSH0 MSTORE PUSH1 0x32 PUSH1 0x4 MSTORE PUSH1 0x24 PUSH0 REVERT JUMPDEST PUSH0 PUSH1 0x20 DUP3 DUP5 SUB SLT ISZERO PUSH2 0x274 JUMPI PUSH0 PUSH0 REVERT JUMPDEST POP MLOAD SWAP2 SWAP1 POP JUMP JUMPDEST PUSH1 0x80 MLOAD PUSH1 0xA0 MLOAD PUSH1 0xC0 MLOAD PUSH1 0xE0 MLOAD PUSH2 0xE4F PUSH2 0x2FB PUSH0 CODECOPY PUSH0 DUP2 DUP2 PUSH2 0x27F ADD MSTORE DUP2 DUP2 PUSH2 0x3DB ADD MSTORE DUP2 DUP2 PUSH2 0x48A ADD MSTORE DUP2 DUP2 PUSH2 0x552 ADD MSTORE DUP2 DUP2 PUSH2 0x637 ADD MSTORE PUSH2 0x7CF ADD MSTORE PUSH0 DUP2 DUP2 PUSH2 0x1AA ADD MSTORE PUSH2 0x586 ADD MSTORE PUSH0 DUP2 DUP2 PUSH2 0x375 ADD MSTORE DUP2 DUP2 PUSH2 0x3BA ADD MSTORE DUP2 DUP2 PUSH2 0x66A ADD MSTORE DUP2 DUP2 PUSH2 0x6BA ADD MSTORE PUSH2 0x7AB ADD MSTORE PUSH0 DUP2 DUP2 PUSH2 0x327 ADD MSTORE PUSH2 0xB02 ADD MSTORE PUSH2 0xE4F PUSH0 RETURN INVALID PUSH1 0x80 PUSH1 0x40 MSTORE CALLVALUE DUP1 ISZERO PUSH2 0xF JUMPI PUSH0 PUSH0 REVERT JUMPDEST POP PUSH1 0x4 CALLDATASIZE LT PUSH2 0x132 JUMPI PUSH0 CALLDATALOAD PUSH1 0xE0 SHR DUP1 PUSH4 0x90EEB02B GT PUSH2 0xB4 JUMPI DUP1 PUSH4 0xE5285DCC GT PUSH2 0x79 JUMPI DUP1 PUSH4 0xE5285DCC EQ PUSH2 0x2ED JUMPI DUP1 PUSH4 0xE8295588 EQ PUSH2 0x30F JUMPI DUP1 PUSH4 0xED33639F EQ PUSH2 0x322 JUMPI DUP1 PUSH4 0xF1650536 EQ PUSH2 0x349 JUMPI DUP1 PUSH4 0xF178E47C EQ PUSH2 0x351 JUMPI DUP1 PUSH4 0xFC0C546A EQ PUSH2 0x370 JUMPI PUSH0 PUSH0 REVERT JUMPDEST DUP1 PUSH4 0x90EEB02B EQ PUSH2 0x2A1 JUMPI DUP1 PUSH4 0xA151918A EQ PUSH2 0x2AA JUMPI DUP1 PUSH4 0xB214FAA5 EQ PUSH2 0x2BF JUMPI DUP1 PUSH4 0xC2B40AE4 EQ PUSH2 0x2D2 JUMPI DUP1 PUSH4 0xCD87A3B4 EQ PUSH2 0x2E5 JUMPI PUSH0 PUSH0 REVERT JUMPDEST DUP1 PUSH4 0x5445B007 GT PUSH2 0xFA JUMPI DUP1 PUSH4 0x5445B007 EQ PUSH2 0x20B JUMPI DUP1 PUSH4 0x60246C88 EQ PUSH2 0x213 JUMPI DUP1 PUSH4 0x6D9833E3 EQ PUSH2 0x245 JUMPI DUP1 PUSH4 0x839DF945 EQ PUSH2 0x258 JUMPI DUP1 PUSH4 0x8BCA6D16 EQ PUSH2 0x27A JUMPI PUSH0 PUSH0 REVERT JUMPDEST DUP1 PUSH4 0xBE4F422 EQ PUSH2 0x136 JUMPI DUP1 PUSH4 0x17CC915C EQ PUSH2 0x151 JUMPI DUP1 PUSH4 0x230DDD90 EQ PUSH2 0x183 JUMPI DUP1 PUSH4 0x2B7AC3F3 EQ PUSH2 0x1A5 JUMPI DUP1 PUSH4 0x414A37BA EQ PUSH2 0x1E4 JUMPI JUMPDEST PUSH0 PUSH0 REVERT JUMPDEST PUSH2 0x13E PUSH0 SLOAD DUP2 JUMP JUMPDEST PUSH1 0x40 MLOAD SWAP1 DUP2 MSTORE PUSH1 0x20 ADD JUMPDEST PUSH1 0x40 MLOAD DUP1 SWAP2 SUB SWAP1 RETURN JUMPDEST PUSH2 0x173 PUSH2 0x15F CALLDATASIZE PUSH1 0x4 PUSH2 0xB7C JUMP JUMPDEST PUSH1 0x36 PUSH1 0x20 MSTORE PUSH0 SWAP1 DUP2 MSTORE PUSH1 0x40 SWAP1 KECCAK256 SLOAD PUSH1 0xFF AND DUP2 JUMP JUMPDEST PUSH1 0x40 MLOAD SWAP1 ISZERO ISZERO DUP2 MSTORE PUSH1 0x20 ADD PUSH2 0x148 JUMP JUMPDEST PUSH2 0x173 PUSH2 0x191 CALLDATASIZE PUSH1 0x4 PUSH2 0xB7C JUMP JUMPDEST PUSH0 SWAP1 DUP2 MSTORE PUSH1 0x37 PUSH1 0x20 MSTORE PUSH1 0x40 SWAP1 KECCAK256 SLOAD PUSH1 0xFF AND SWAP1 JUMP JUMPDEST PUSH2 0x1CC PUSH32 0x0 DUP2 JUMP JUMPDEST PUSH1 0x40 MLOAD PUSH1 0x1 PUSH1 0x1 PUSH1 0xA0 SHL SUB SWAP1 SWAP2 AND DUP2 MSTORE PUSH1 0x20 ADD PUSH2 0x148 JUMP JUMPDEST PUSH2 0x13E PUSH32 0x30644E72E131A029B85045B68181585D2833E84879B9709143E1F593F0000001 DUP2 JUMP JUMPDEST PUSH2 0x13E PUSH2 0x397 JUMP JUMPDEST PUSH2 0x21B PUSH2 0x3B4 JUMP JUMPDEST PUSH1 0x40 DUP1 MLOAD PUSH1 0x1 PUSH1 0x1 PUSH1 0xA0 SHL SUB SWAP1 SWAP6 AND DUP6 MSTORE PUSH1 0x20 DUP6 ADD SWAP4 SWAP1 SWAP4 MSTORE SWAP2 DUP4 ADD MSTORE PUSH1 0x60 DUP3 ADD MSTORE PUSH1 0x80 ADD PUSH2 0x148 JUMP JUMPDEST PUSH2 0x173 PUSH2 0x253 CALLDATASIZE PUSH1 0x4 PUSH2 0xB7C JUMP JUMPDEST PUSH2 0x412 JUMP JUMPDEST PUSH2 0x173 PUSH2 0x266 CALLDATASIZE PUSH1 0x4 PUSH2 0xB7C JUMP JUMPDEST PUSH1 0x37 PUSH1 0x20 MSTORE PUSH0 SWAP1 DUP2 MSTORE PUSH1 0x40 SWAP1 KECCAK256 SLOAD PUSH1 0xFF AND DUP2 JUMP JUMPDEST PUSH2 0x13E PUSH32 0x0 DUP2 JUMP JUMPDEST PUSH2 0x13E PUSH1 0x20 SLOAD DUP2 JUMP JUMPDEST PUSH2 0x2BD PUSH2 0x2B8 CALLDATASIZE PUSH1 0x4 PUSH2 0xBAE JUMP JUMPDEST PUSH2 0x480 JUMP JUMPDEST STOP JUMPDEST PUSH2 0x2BD PUSH2 0x2CD CALLDATASIZE PUSH1 0x4 PUSH2 0xB7C JUMP JUMPDEST PUSH2 0x743 JUMP JUMPDEST PUSH2 0x13E PUSH2 0x2E0 CALLDATASIZE PUSH1 0x4 PUSH2 0xB7C JUMP JUMPDEST PUSH2 0x83C JUMP JUMPDEST PUSH2 0x13E PUSH1 0x1E DUP2 JUMP JUMPDEST PUSH2 0x173 PUSH2 0x2FB CALLDATASIZE PUSH1 0x4 PUSH2 0xB7C JUMP JUMPDEST PUSH0 SWAP1 DUP2 MSTORE PUSH1 0x36 PUSH1 0x20 MSTORE PUSH1 0x40 SWAP1 KECCAK256 SLOAD PUSH1 0xFF AND SWAP1 JUMP JUMPDEST PUSH2 0x13E PUSH2 0x31D CALLDATASIZE PUSH1 0x4 PUSH2 0xB7C JUMP JUMPDEST PUSH2 0x852 JUMP JUMPDEST PUSH2 0x1CC PUSH32 0x0 DUP2 JUMP JUMPDEST PUSH2 0x13E PUSH1 0x14 DUP2 JUMP JUMPDEST PUSH2 0x13E PUSH2 0x35F CALLDATASIZE PUSH1 0x4 PUSH2 0xB7C JUMP JUMPDEST PUSH1 0x1 PUSH1 0x20 MSTORE PUSH0 SWAP1 DUP2 MSTORE PUSH1 0x40 SWAP1 KECCAK256 SLOAD DUP2 JUMP JUMPDEST PUSH2 0x1CC PUSH32 0x0 DUP2 JUMP JUMPDEST PUSH0 PUSH1 0x2 PUSH1 0x20 SLOAD PUSH1 0x1E DUP2 LT PUSH2 0x3AD JUMPI PUSH2 0x3AD PUSH2 0xC15 JUMP JUMPDEST ADD SLOAD SWAP1 POP SWAP1 JUMP JUMPDEST PUSH0 PUSH0 PUSH0 PUSH0 PUSH32 0x0 PUSH32 0x0 PUSH0 SLOAD PUSH2 0x404 PUSH2 0x397 JUMP JUMPDEST SWAP4 POP SWAP4 POP SWAP4 POP SWAP4 POP SWAP1 SWAP2 SWAP3 SWAP4 JUMP JUMPDEST PUSH0 DUP2 PUSH2 0x41F JUMPI POP PUSH0 SWAP2 SWAP1 POP JUMP JUMPDEST PUSH1 0x20 SLOAD JUMPDEST PUSH1 0x2 DUP2 PUSH1 0x1E DUP2 LT PUSH2 0x436 JUMPI PUSH2 0x436 PUSH2 0xC15 JUMP JUMPDEST ADD SLOAD DUP4 SUB PUSH2 0x447 JUMPI POP PUSH1 0x1 SWAP3 SWAP2 POP POP JUMP JUMPDEST DUP1 PUSH0 SUB PUSH2 0x461 JUMPI PUSH2 0x45A PUSH1 0x1 PUSH1 0x1E PUSH2 0xC3D JUMP JUMPDEST SWAP1 POP PUSH2 0x46F JUMP JUMPDEST DUP1 PUSH2 0x46B DUP2 PUSH2 0xC50 JUMP JUMPDEST SWAP2 POP POP JUMPDEST PUSH1 0x20 SLOAD DUP2 SUB PUSH2 0x423 JUMPI POP PUSH0 SWAP3 SWAP2 POP POP JUMP JUMPDEST PUSH2 0x488 PUSH2 0x861 JUMP JUMPDEST PUSH32 0x0 DUP2 GT ISZERO PUSH2 0x4C9 JUMPI PUSH1 0x40 MLOAD PUSH4 0x58D620B3 PUSH1 0xE0 SHL DUP2 MSTORE PUSH1 0x4 ADD PUSH1 0x40 MLOAD DUP1 SWAP2 SUB SWAP1 REVERT JUMPDEST PUSH2 0x4D2 DUP6 PUSH2 0x412 JUMP JUMPDEST PUSH2 0x4EF JUMPI PUSH1 0x40 MLOAD PUSH4 0x9DD854D3 PUSH1 0xE0 SHL DUP2 MSTORE PUSH1 0x4 ADD PUSH1 0x40 MLOAD DUP1 SWAP2 SUB SWAP1 REVERT JUMPDEST PUSH0 DUP5 DUP2 MSTORE PUSH1 0x36 PUSH1 0x20 MSTORE PUSH1 0x40 SWAP1 KECCAK256 SLOAD PUSH1 0xFF AND ISZERO PUSH2 0x51E JUMPI PUSH1 0x40 MLOAD PUSH4 0xB115D857 PUSH1 0xE0 SHL DUP2 MSTORE PUSH1 0x4 ADD PUSH1 0x40 MLOAD DUP1 SWAP2 SUB SWAP1 REVERT JUMPDEST PUSH1 0x40 DUP1 MLOAD PUSH1 0xC0 DUP2 ADD DUP3 MSTORE DUP7 DUP2 MSTORE PUSH1 0x20 DUP2 ADD DUP7 SWAP1 MSTORE PUSH1 0x1 PUSH1 0x1 PUSH1 0xA0 SHL SUB DUP1 DUP7 AND DUP3 DUP5 ADD MSTORE DUP5 DUP2 AND PUSH1 0x60 DUP4 ADD MSTORE PUSH1 0x80 DUP3 ADD DUP5 SWAP1 MSTORE PUSH32 0x0 PUSH1 0xA0 DUP4 ADD MSTORE SWAP2 MLOAD PUSH4 0x139650CB PUSH1 0xE3 SHL DUP2 MSTORE SWAP1 SWAP2 PUSH32 0x0 AND SWAP1 PUSH4 0x9CB28658 SWAP1 PUSH2 0x5BD SWAP1 DUP11 SWAP1 DUP6 SWAP1 PUSH1 0x4 ADD PUSH2 0xC65 JUMP JUMPDEST PUSH1 0x20 PUSH1 0x40 MLOAD DUP1 DUP4 SUB DUP2 DUP7 GAS STATICCALL ISZERO DUP1 ISZERO PUSH2 0x5D8 JUMPI RETURNDATASIZE PUSH0 PUSH0 RETURNDATACOPY RETURNDATASIZE PUSH0 REVERT JUMPDEST POP POP POP POP PUSH1 0x40 MLOAD RETURNDATASIZE PUSH1 0x1F NOT PUSH1 0x1F DUP3 ADD AND DUP3 ADD DUP1 PUSH1 0x40 MSTORE POP DUP2 ADD SWAP1 PUSH2 0x5FC SWAP2 SWAP1 PUSH2 0xCA1 JUMP JUMPDEST PUSH2 0x619 JUMPI PUSH1 0x40 MLOAD PUSH4 0x9BDE339 PUSH1 0xE0 SHL DUP2 MSTORE PUSH1 0x4 ADD PUSH1 0x40 MLOAD DUP1 SWAP2 SUB SWAP1 REVERT JUMPDEST PUSH0 DUP6 DUP2 MSTORE PUSH1 0x36 PUSH1 0x20 MSTORE PUSH1 0x40 DUP2 KECCAK256 DUP1 SLOAD PUSH1 0xFF NOT AND PUSH1 0x1 OR SWAP1 SSTORE PUSH2 0x65B DUP4 PUSH32 0x0 PUSH2 0xC3D JUMP JUMPDEST SWAP1 POP PUSH2 0x691 PUSH1 0x1 PUSH1 0x1 PUSH1 0xA0 SHL SUB PUSH32 0x0 AND DUP7 DUP4 PUSH2 0x88B JUMP JUMPDEST PUSH0 DUP4 GT DUP1 ISZERO PUSH2 0x6A8 JUMPI POP PUSH1 0x1 PUSH1 0x1 PUSH1 0xA0 SHL SUB DUP5 AND ISZERO ISZERO JUMPDEST ISZERO PUSH2 0x6E1 JUMPI PUSH2 0x6E1 PUSH1 0x1 PUSH1 0x1 PUSH1 0xA0 SHL SUB PUSH32 0x0 AND DUP6 DUP6 PUSH2 0x88B JUMP JUMPDEST DUP4 PUSH1 0x1 PUSH1 0x1 PUSH1 0xA0 SHL SUB AND DUP7 DUP7 PUSH1 0x1 PUSH1 0x1 PUSH1 0xA0 SHL SUB AND PUSH32 0xE9E508BAD6D4C3227E881CA19068F099DA81B5164DD6D62B2EAF1E8BC6C34931 DUP7 PUSH1 0x40 MLOAD PUSH2 0x727 SWAP2 DUP2 MSTORE PUSH1 0x20 ADD SWAP1 JUMP JUMPDEST PUSH1 0x40 MLOAD DUP1 SWAP2 SUB SWAP1 LOG4 POP POP PUSH2 0x73B PUSH1 0x1 PUSH1 0x35 SSTORE JUMP JUMPDEST POP POP POP POP POP POP JUMP JUMPDEST PUSH2 0x74B PUSH2 0x861 JUMP JUMPDEST PUSH0 DUP2 DUP2 MSTORE PUSH1 0x37 PUSH1 0x20 MSTORE PUSH1 0x40 SWAP1 KECCAK256 SLOAD PUSH1 0xFF AND ISZERO PUSH2 0x77A JUMPI PUSH1 0x40 MLOAD PUSH4 0x145718A7 PUSH1 0xE0 SHL DUP2 MSTORE PUSH1 0x4 ADD PUSH1 0x40 MLOAD DUP1 SWAP2 SUB SWAP1 REVERT JUMPDEST PUSH0 PUSH2 0x784 DUP3 PUSH2 0x8EF JUMP JUMPDEST PUSH0 DUP4 DUP2 MSTORE PUSH1 0x37 PUSH1 0x20 MSTORE PUSH1 0x40 SWAP1 KECCAK256 DUP1 SLOAD PUSH1 0xFF NOT AND PUSH1 0x1 OR SWAP1 SSTORE SWAP1 POP PUSH2 0x7F3 PUSH1 0x1 PUSH1 0x1 PUSH1 0xA0 SHL SUB PUSH32 0x0 AND CALLER ADDRESS PUSH32 0x0 PUSH2 0xA34 JUMP JUMPDEST DUP1 DUP3 PUSH32 0xE1F1096FD8BC7D572FB7AD7E4102736B6615500975C0252EA91EF1B765C49897 TIMESTAMP PUSH1 0x40 MLOAD PUSH2 0x826 SWAP2 DUP2 MSTORE PUSH1 0x20 ADD SWAP1 JUMP JUMPDEST PUSH1 0x40 MLOAD DUP1 SWAP2 SUB SWAP1 LOG3 POP PUSH2 0x839 PUSH1 0x1 PUSH1 0x35 SSTORE JUMP JUMPDEST POP JUMP JUMPDEST PUSH1 0x2 DUP2 PUSH1 0x1E DUP2 LT PUSH2 0x84B JUMPI PUSH0 DUP1 REVERT JUMPDEST ADD SLOAD SWAP1 POP DUP2 JUMP JUMPDEST PUSH1 0x21 DUP2 PUSH1 0x14 DUP2 LT PUSH2 0x84B JUMPI PUSH0 DUP1 REVERT JUMPDEST PUSH1 0x2 PUSH1 0x35 SLOAD SUB PUSH2 0x884 JUMPI PUSH1 0x40 MLOAD PUSH4 0x3EE5AEB5 PUSH1 0xE0 SHL DUP2 MSTORE PUSH1 0x4 ADD PUSH1 0x40 MLOAD DUP1 SWAP2 SUB SWAP1 REVERT JUMPDEST PUSH1 0x2 PUSH1 0x35 SSTORE JUMP JUMPDEST PUSH1 0x40 MLOAD PUSH1 0x1 PUSH1 0x1 PUSH1 0xA0 SHL SUB DUP4 DUP2 AND PUSH1 0x24 DUP4 ADD MSTORE PUSH1 0x44 DUP3 ADD DUP4 SWAP1 MSTORE PUSH2 0x8EA SWAP2 DUP6 SWAP2 DUP3 AND SWAP1 PUSH4 0xA9059CBB SWAP1 PUSH1 0x64 ADD JUMPDEST PUSH1 0x40 MLOAD PUSH1 0x20 DUP2 DUP4 SUB SUB DUP2 MSTORE SWAP1 PUSH1 0x40 MSTORE SWAP2 POP PUSH1 0xE0 SHL PUSH1 0x20 DUP3 ADD DUP1 MLOAD PUSH1 0x1 PUSH1 0x1 PUSH1 0xE0 SHL SUB DUP4 DUP2 DUP4 AND OR DUP4 MSTORE POP POP POP POP PUSH2 0xA73 JUMP JUMPDEST POP POP POP JUMP JUMPDEST PUSH0 DUP1 SLOAD PUSH2 0x8FE PUSH1 0x14 PUSH1 0x2 PUSH2 0xDAA JUMP JUMPDEST DUP2 LT PUSH2 0x91D JUMPI PUSH1 0x40 MLOAD PUSH4 0x77AE67B3 PUSH1 0xE1 SHL DUP2 MSTORE PUSH1 0x4 ADD PUSH1 0x40 MLOAD DUP1 SWAP2 SUB SWAP1 REVERT JUMPDEST DUP1 DUP4 PUSH0 DUP1 DUP1 JUMPDEST PUSH1 0x14 DUP2 LT ISZERO PUSH2 0x9A1 JUMPI PUSH2 0x937 PUSH1 0x2 DUP7 PUSH2 0xDC9 JUMP JUMPDEST PUSH0 SUB PUSH2 0x96C JUMPI DUP4 SWAP3 POP PUSH1 0x21 DUP2 PUSH1 0x14 DUP2 LT PUSH2 0x953 JUMPI PUSH2 0x953 PUSH2 0xC15 JUMP JUMPDEST ADD SLOAD PUSH0 DUP3 DUP2 MSTORE PUSH1 0x1 PUSH1 0x20 MSTORE PUSH1 0x40 SWAP1 KECCAK256 DUP6 SWAP1 SSTORE SWAP2 POP PUSH2 0x980 JUMP JUMPDEST PUSH0 DUP2 DUP2 MSTORE PUSH1 0x1 PUSH1 0x20 MSTORE PUSH1 0x40 SWAP1 KECCAK256 SLOAD SWAP3 POP DUP4 SWAP2 POP JUMPDEST PUSH2 0x98A DUP4 DUP4 PUSH2 0xAE3 JUMP JUMPDEST SWAP4 POP PUSH2 0x997 PUSH1 0x2 DUP7 PUSH2 0xDDC JUMP JUMPDEST SWAP5 POP PUSH1 0x1 ADD PUSH2 0x923 JUMP JUMPDEST POP PUSH0 PUSH1 0x1E PUSH1 0x20 SLOAD PUSH1 0x1 PUSH2 0x9B4 SWAP2 SWAP1 PUSH2 0xDEF JUMP JUMPDEST PUSH2 0x9BE SWAP2 SWAP1 PUSH2 0xDC9 JUMP JUMPDEST SWAP1 POP DUP4 PUSH1 0x2 DUP3 PUSH1 0x1E DUP2 LT PUSH2 0x9D4 JUMPI PUSH2 0x9D4 PUSH2 0xC15 JUMP JUMPDEST ADD SSTORE PUSH1 0x20 DUP2 SWAP1 SSTORE PUSH2 0x9E6 DUP7 PUSH1 0x1 PUSH2 0xDEF JUMP JUMPDEST PUSH0 DUP2 SWAP1 SSTORE POP DUP6 SWAP7 POP DUP7 DUP9 PUSH32 0xD50E83984B64A106AC2EE6314D689EC4D2A656D5ECE6D94C585796944B52240C DUP7 PUSH1 0x40 MLOAD PUSH2 0xA21 SWAP2 DUP2 MSTORE PUSH1 0x20 ADD SWAP1 JUMP JUMPDEST PUSH1 0x40 MLOAD DUP1 SWAP2 SUB SWAP1 LOG3 POP POP POP POP POP POP SWAP2 SWAP1 POP JUMP JUMPDEST PUSH1 0x40 MLOAD PUSH1 0x1 PUSH1 0x1 PUSH1 0xA0 SHL SUB DUP5 DUP2 AND PUSH1 0x24 DUP4 ADD MSTORE DUP4 DUP2 AND PUSH1 0x44 DUP4 ADD MSTORE PUSH1 0x64 DUP3 ADD DUP4 SWAP1 MSTORE PUSH2 0xA6D SWAP2 DUP7 SWAP2 DUP3 AND SWAP1 PUSH4 0x23B872DD SWAP1 PUSH1 0x84 ADD PUSH2 0x8B8 JUMP JUMPDEST POP POP POP POP JUMP JUMPDEST PUSH0 PUSH0 PUSH1 0x20 PUSH0 DUP5 MLOAD PUSH1 0x20 DUP7 ADD PUSH0 DUP9 GAS CALL DUP1 PUSH2 0xA92 JUMPI PUSH1 0x40 MLOAD RETURNDATASIZE PUSH0 DUP3 RETURNDATACOPY RETURNDATASIZE DUP2 REVERT JUMPDEST POP POP PUSH0 MLOAD RETURNDATASIZE SWAP2 POP DUP2 ISZERO PUSH2 0xAA9 JUMPI DUP1 PUSH1 0x1 EQ ISZERO PUSH2 0xAB6 JUMP JUMPDEST PUSH1 0x1 PUSH1 0x1 PUSH1 0xA0 SHL SUB DUP5 AND EXTCODESIZE ISZERO JUMPDEST ISZERO PUSH2 0xA6D JUMPI PUSH1 0x40 MLOAD PUSH4 0x5274AFE7 PUSH1 0xE0 SHL DUP2 MSTORE PUSH1 0x1 PUSH1 0x1 PUSH1 0xA0 SHL SUB DUP6 AND PUSH1 0x4 DUP3 ADD MSTORE PUSH1 0x24 ADD PUSH1 0x40 MLOAD DUP1 SWAP2 SUB SWAP1 REVERT JUMPDEST PUSH1 0x40 MLOAD PUSH4 0xF47D33B5 PUSH1 0xE0 SHL DUP2 MSTORE PUSH1 0x4 DUP2 ADD DUP4 SWAP1 MSTORE PUSH1 0x24 DUP2 ADD DUP3 SWAP1 MSTORE PUSH0 SWAP1 PUSH32 0x0 PUSH1 0x1 PUSH1 0x1 PUSH1 0xA0 SHL SUB AND SWAP1 PUSH4 0xF47D33B5 SWAP1 PUSH1 0x44 ADD PUSH1 0x20 PUSH1 0x40 MLOAD DUP1 DUP4 SUB DUP2 DUP7 GAS STATICCALL ISZERO DUP1 ISZERO PUSH2 0xB4F JUMPI RETURNDATASIZE PUSH0 PUSH0 RETURNDATACOPY RETURNDATASIZE PUSH0 REVERT JUMPDEST POP POP POP POP PUSH1 0x40 MLOAD RETURNDATASIZE PUSH1 0x1F NOT PUSH1 0x1F DUP3 ADD AND DUP3 ADD DUP1 PUSH1 0x40 MSTORE POP DUP2 ADD SWAP1 PUSH2 0xB73 SWAP2 SWAP1 PUSH2 0xE02 JUMP JUMPDEST SWAP1 POP JUMPDEST SWAP3 SWAP2 POP POP JUMP JUMPDEST PUSH0 PUSH1 0x20 DUP3 DUP5 SUB SLT ISZERO PUSH2 0xB8C JUMPI PUSH0 PUSH0 REVERT JUMPDEST POP CALLDATALOAD SWAP2 SWAP1 POP JUMP JUMPDEST DUP1 CALLDATALOAD PUSH1 0x1 PUSH1 0x1 PUSH1 0xA0 SHL SUB DUP2 AND DUP2 EQ PUSH2 0xBA9 JUMPI PUSH0 PUSH0 REVERT JUMPDEST SWAP2 SWAP1 POP JUMP JUMPDEST PUSH0 PUSH0 PUSH0 PUSH0 PUSH0 PUSH0 PUSH2 0x1A0 DUP8 DUP10 SUB SLT ISZERO PUSH2 0xBC4 JUMPI PUSH0 PUSH0 REVERT JUMPDEST PUSH2 0x100 DUP8 ADD DUP9 DUP2 GT ISZERO PUSH2 0xBD5 JUMPI PUSH0 PUSH0 REVERT JUMPDEST DUP8 SWAP7 POP CALLDATALOAD SWAP5 POP PUSH2 0x120 DUP7 ADD CALLDATALOAD SWAP4 POP PUSH2 0xBF0 PUSH2 0x140 DUP8 ADD PUSH2 0xB93 JUMP JUMPDEST SWAP3 POP PUSH2 0xBFF PUSH2 0x160 DUP9 ADD PUSH2 0xB93 JUMP JUMPDEST SWAP6 SWAP9 SWAP5 SWAP8 POP SWAP3 SWAP6 SWAP2 SWAP5 SWAP4 PUSH2 0x180 SWAP1 SWAP3 ADD CALLDATALOAD SWAP3 POP POP JUMP JUMPDEST PUSH4 0x4E487B71 PUSH1 0xE0 SHL PUSH0 MSTORE PUSH1 0x32 PUSH1 0x4 MSTORE PUSH1 0x24 PUSH0 REVERT JUMPDEST PUSH4 0x4E487B71 PUSH1 0xE0 SHL PUSH0 MSTORE PUSH1 0x11 PUSH1 0x4 MSTORE PUSH1 0x24 PUSH0 REVERT JUMPDEST DUP2 DUP2 SUB DUP2 DUP2 GT ISZERO PUSH2 0xB76 JUMPI PUSH2 0xB76 PUSH2 0xC29 JUMP JUMPDEST PUSH0 DUP2 PUSH2 0xC5E JUMPI PUSH2 0xC5E PUSH2 0xC29 JUMP JUMPDEST POP PUSH0 NOT ADD SWAP1 JUMP JUMPDEST PUSH2 0x1C0 DUP2 ADD PUSH2 0x100 DUP5 DUP4 CALLDATACOPY PUSH2 0x100 DUP3 ADD DUP4 PUSH0 JUMPDEST PUSH1 0x6 DUP2 LT ISZERO PUSH2 0xC97 JUMPI DUP2 MLOAD DUP4 MSTORE PUSH1 0x20 SWAP3 DUP4 ADD SWAP3 SWAP1 SWAP2 ADD SWAP1 PUSH1 0x1 ADD PUSH2 0xC78 JUMP JUMPDEST POP POP POP SWAP4 SWAP3 POP POP POP JUMP JUMPDEST PUSH0 PUSH1 0x20 DUP3 DUP5 SUB SLT ISZERO PUSH2 0xCB1 JUMPI PUSH0 PUSH0 REVERT JUMPDEST DUP2 MLOAD DUP1 ISZERO ISZERO DUP2 EQ PUSH2 0xCC0 JUMPI PUSH0 PUSH0 REVERT JUMPDEST SWAP4 SWAP3 POP POP POP JUMP JUMPDEST PUSH1 0x1 DUP2 JUMPDEST PUSH1 0x1 DUP5 GT ISZERO PUSH2 0xD02 JUMPI DUP1 DUP6 DIV DUP2 GT ISZERO PUSH2 0xCE6 JUMPI PUSH2 0xCE6 PUSH2 0xC29 JUMP JUMPDEST PUSH1 0x1 DUP5 AND ISZERO PUSH2 0xCF4 JUMPI SWAP1 DUP2 MUL SWAP1 JUMPDEST PUSH1 0x1 SWAP4 SWAP1 SWAP4 SHR SWAP3 DUP1 MUL PUSH2 0xCCB JUMP JUMPDEST SWAP4 POP SWAP4 SWAP2 POP POP JUMP JUMPDEST PUSH0 DUP3 PUSH2 0xD18 JUMPI POP PUSH1 0x1 PUSH2 0xB76 JUMP JUMPDEST DUP2 PUSH2 0xD24 JUMPI POP PUSH0 PUSH2 0xB76 JUMP JUMPDEST DUP2 PUSH1 0x1 DUP2 EQ PUSH2 0xD3A JUMPI PUSH1 0x2 DUP2 EQ PUSH2 0xD44 JUMPI PUSH2 0xD60 JUMP JUMPDEST PUSH1 0x1 SWAP2 POP POP PUSH2 0xB76 JUMP JUMPDEST PUSH1 0xFF DUP5 GT ISZERO PUSH2 0xD55 JUMPI PUSH2 0xD55 PUSH2 0xC29 JUMP JUMPDEST POP POP PUSH1 0x1 DUP3 SHL PUSH2 0xB76 JUMP JUMPDEST POP PUSH1 0x20 DUP4 LT PUSH2 0x133 DUP4 LT AND PUSH1 0x4E DUP5 LT PUSH1 0xB DUP5 LT AND OR ISZERO PUSH2 0xD83 JUMPI POP DUP2 DUP2 EXP PUSH2 0xB76 JUMP JUMPDEST PUSH2 0xD8F PUSH0 NOT DUP5 DUP5 PUSH2 0xCC7 JUMP JUMPDEST DUP1 PUSH0 NOT DIV DUP3 GT ISZERO PUSH2 0xDA2 JUMPI PUSH2 0xDA2 PUSH2 0xC29 JUMP JUMPDEST MUL SWAP4 SWAP3 POP POP POP JUMP JUMPDEST PUSH0 PUSH2 0xCC0 DUP4 DUP4 PUSH2 0xD0A JUMP JUMPDEST PUSH4 0x4E487B71 PUSH1 0xE0 SHL PUSH0 MSTORE PUSH1 0x12 PUSH1 0x4 MSTORE PUSH1 0x24 PUSH0 REVERT JUMPDEST PUSH0 DUP3 PUSH2 0xDD7 JUMPI PUSH2 0xDD7 PUSH2 0xDB5 JUMP JUMPDEST POP MOD SWAP1 JUMP JUMPDEST PUSH0 DUP3 PUSH2 0xDEA JUMPI PUSH2 0xDEA PUSH2 0xDB5 JUMP JUMPDEST POP DIV SWAP1 JUMP JUMPDEST DUP1 DUP3 ADD DUP1 DUP3 GT ISZERO PUSH2 0xB76 JUMPI PUSH2 0xB76 PUSH2 0xC29 JUMP JUMPDEST PUSH0 PUSH1 0x20 DUP3 DUP5 SUB SLT ISZERO PUSH2 0xE12 JUMPI PUSH0 PUSH0 REVERT JUMPDEST POP MLOAD SWAP2 SWAP1 POP JUMP INVALID LOG2 PUSH5 0x6970667358 0x22 SLT KECCAK256 PUSH13 0x5F83C431A9F1E93D7015A3BA2E REVERT DUP3 LT NOT 0x28 0xBC PUSH9 0xC0C115387C244550B5 PUSH31 0x3264736F6C634300081E003300000000000000000000000000000000000000 "},"methodIdentifiers":{"FIELD_SIZE()":"414a37ba","ROOT_HISTORY_SIZE()":"cd87a3b4","TREE_DEPTH()":"f1650536","commitments(bytes32)":"839df945","currentRootIndex()":"90eeb02b","denomination()":"8bca6d16","deposit(bytes32)":"b214faa5","filledSubtrees(uint256)":"f178e47c","getLatestRoot()":"5445b007","getPoolInfo()":"60246c88","hasher()":"ed33639f","isDeposited(bytes32)":"230ddd90","isKnownRoot(bytes32)":"6d9833e3","isSpent(bytes32)":"e5285dcc","nextLeafIndex()":"0be4f422","nullifierHashes(bytes32)":"17cc915c","roots(uint256)":"c2b40ae4","token()":"fc0c546a","verifier()":"2b7ac3f3","withdraw(uint256[8],bytes32,bytes32,address,address,uint256)":"a151918a","zeros(uint256)":"e8295588"}}}}}