{"src/MiMCSponge.sol":{"MiMCSponge":{"abi":[{"inputs":[],"stateMutability":"nonpayable","type":"constructor"},{"inputs":[{"internalType":"uint256","name":"_left","type":"uint256"},{"internalType":"uint256","name":"_right","type":"uint256"}],"name":"MiMCHash","outputs":[{"internalType":"uint256","name":"","type":"uint256"}],"stateMutability":"view","type":"function"}],"evm":{"bytecode":{"linkReferences":{},"object":"608060405234801561000f575f5ffd5b505f80557f0fbe43c36a80e36d7c7c584d4f8f3759fb51f0d66065d8a227b688d12488c5d46001557f0b1be1e55d1138dcfc4eeee6618b1b7cde5c4a262e83139555673f5751efc1c96002557f27c0849dba2643077c13eb42ffb97663cdcecd669bf10f756be30bab71b86cf86003557f2bf76744736132e5c68f7dfdd5b792681d415098554fd8280f00d11b172b80d26004557f02aef041c0700b1b4b2c4629195a5a3c737b1ea990e32486c9e2d748cec585676005557f282767ed3103cd92e2b5593b56115d072f5dc7a45ad58962b692980a41c7fab66006557f085ff8f3e28f159cef57989c88bb8b3f91060bdd68522305d93cd30ab8f03ef36007557f120ed97b7792f9eb455f42029e68268193cd960d8c637c28fb497d95ea8744e36008557f18d343a251144f28d6b6b49372a8e078f87de959b85d4d262bb29475c18de9ff6009557f0db86182b7963c4a1a6bb2e4ddce9c998488c73195d5a27675f14777e727acf2600a557f18172a0b610b638b58fd06ad4702e4b8f03294eba526db4d3dbd1a4ba8a12562600b557f0a35b77d2364c525bfc79b188669438cc22e318c62df7e206bed00c9c0de28a0600c557f2d29440068d952b1107cff4aee94643fe8ace954e875f67f6ab296b259ff796c600d557f024b619541491cad1c7bb44a48a1a83dfe7243ab7c002bf2a04628ce11197efa600e557f0d59aa7de68556abc0a25a3b199fe3aa2b756a23fd53e4fe8027e52926df389c600f556101a88061023c5f395ff3fe608060405234801561000f575f5ffd5b5060043610610029575f3560e01c80636aafaa161461002d575b5f5ffd5b61004061003b36600461011e565b610052565b60405190815260200160405180910390f35b5f8080808585610063828285610070565b5098975050505050505050565b5f8080805b60dc811015610113575f5160206101535f395f51905f52855f5160206101535f395f51905f525f8460dc81106100ad576100ad61013e565b01548a080891505f5f5160206101535f395f51905f5283840990505f5f5160206101535f395f51905f5282830990505f5f5160206101535f395f51905f5285830990505f5160206101535f395f51905f52818a0899985050600190920191506100759050565b509495939450505050565b5f5f6040838503121561012f575f5ffd5b50508035926020909101359150565b634e487b7160e01b5f52603260045260245ffdfe30644e72e131a029b85045b68181585d2833e84879b9709143e1f593f0000001a2646970667358221220a94be9e174df52bfd34dde6724b8c009596018875844adda4f0c80413398710464736f6c634300081e0033","opcodes":"PUSH1 0x80 PUSH1 0x40 MSTORE CALLVALUE DUP1 ISZERO PUSH2 0xF JUMPI PUSH0 PUSH0 REVERT JUMPDEST POP PUSH0 DUP1 SSTORE PUSH32 0xFBE43C36A80E36D7C7C584D4F8F3759FB51F0D66065D8A227B688D12488C5D4 PUSH1 0x1 SSTORE PUSH32 0xB1BE1E55D1138DCFC4EEEE6618B1B7CDE5C4A262E83139555673F5751EFC1C9 PUSH1 0x2 SSTORE PUSH32 0x27C0849DBA2643077C13EB42FFB97663CDCECD669BF10F756BE30BAB71B86CF8 PUSH1 0x3 SSTORE PUSH32 0x2BF76744736132E5C68F7DFDD5B792681D415098554FD8280F00D11B172B80D2 PUSH1 0x4 SSTORE PUSH32 0x2AEF041C0700B1B4B2C4629195A5A3C737B1EA990E32486C9E2D748CEC58567 PUSH1 0x5 SSTORE PUSH32 0x282767ED3103CD92E2B5593B56115D072F5DC7A45AD58962B692980A41C7FAB6 PUSH1 0x6 SSTORE PUSH32 0x85FF8F3E28F159CEF57989C88BB8B3F91060BDD68522305D93CD30AB8F03EF3 PUSH1 0x7 SSTORE PUSH32 0x120ED97B7792F9EB455F42029E68268193CD960D8C637C28FB497D95EA8744E3 PUSH1 0x8 SSTORE PUSH32 0x18D343A251144F28D6B6B49372A8E078F87DE959B85D4D262BB29475C18DE9FF PUSH1 0x9 SSTORE PUSH32 0xDB86182B7963C4A1A6BB2E4DDCE9C998488C73195D5A27675F14777E727ACF2 PUSH1 0xA SSTORE PUSH32 0x18172A0B610B638B58FD06AD4702E4B8F03294EBA526DB4D3DBD1A4BA8A12562 PUSH1 0xB SSTORE PUSH32 0xA35B77D2364C525BFC79B188669438CC22E318C62DF7E206BED00C9C0DE28A0 PUSH1 0xC SSTORE PUSH32 0x2D29440068D952B1107CFF4AEE94643FE8ACE954E875F67F6AB296B259FF796C PUSH1 0xD SSTORE PUSH32 0x24B619541491CAD1C7BB44A48A1A83DFE7243AB7C002BF2A04628CE11197EFA PUSH1 0xE SSTORE PUSH32 0xD59AA7DE68556ABC0A25A3B199FE3AA2B756A23FD53E4FE8027E52926DF389C PUSH1 0xF SSTORE PUSH2 0x1A8 DUP1 PUSH2 0x23C PUSH0 CODECOPY PUSH0 RETURN INVALID PUSH1 0x80 PUSH1 0x40 MSTORE CALLVALUE DUP1 ISZERO PUSH2 0xF JUMPI PUSH0 PUSH0 REVERT JUMPDEST POP PUSH1 0x4 CALLDATASIZE LT PUSH2 0x29 JUMPI PUSH0 CALLDATALOAD PUSH1 0xE0 SHR DUP1 PUSH4 0x6AAFAA16 EQ PUSH2 0x2D JUMPI JUMPDEST PUSH0 PUSH0 REVERT JUMPDEST PUSH2 0x40 PUSH2 0x3B CALLDATASIZE PUSH1 0x4 PUSH2 0x11E JUMP JUMPDEST PUSH2 0x52 JUMP JUMPDEST PUSH1 0x40 MLOAD SWAP1 DUP2 MSTORE PUSH1 0x20 ADD PUSH1 0x40 MLOAD DUP1 SWAP2 SUB SWAP1 RETURN JUMPDEST PUSH0 DUP1 DUP1 DUP1 DUP6 DUP6 PUSH2 0x63 DUP3 DUP3 DUP6 PUSH2 0x70 JUMP JUMPDEST POP SWAP9 SWAP8 POP POP POP POP POP POP POP POP JUMP JUMPDEST PUSH0 DUP1 DUP1 DUP1 JUMPDEST PUSH1 0xDC DUP2 LT ISZERO PUSH2 0x113 JUMPI PUSH0 MLOAD PUSH1 0x20 PUSH2 0x153 PUSH0 CODECOPY PUSH0 MLOAD SWAP1 PUSH0 MSTORE DUP6 PUSH0 MLOAD PUSH1 0x20 PUSH2 0x153 PUSH0 CODECOPY PUSH0 MLOAD SWAP1 PUSH0 MSTORE PUSH0 DUP5 PUSH1 0xDC DUP2 LT PUSH2 0xAD JUMPI PUSH2 0xAD PUSH2 0x13E JUMP JUMPDEST ADD SLOAD DUP11 ADDMOD ADDMOD SWAP2 POP PUSH0 PUSH0 MLOAD PUSH1 0x20 PUSH2 0x153 PUSH0 CODECOPY PUSH0 MLOAD SWAP1 PUSH0 MSTORE DUP4 DUP5 MULMOD SWAP1 POP PUSH0 PUSH0 MLOAD PUSH1 0x20 PUSH2 0x153 PUSH0 CODECOPY PUSH0 MLOAD SWAP1 PUSH0 MSTORE DUP3 DUP4 MULMOD SWAP1 POP PUSH0 PUSH0 MLOAD PUSH1 0x20 PUSH2 0x153 PUSH0 CODECOPY PUSH0 MLOAD SWAP1 PUSH0 MSTORE DUP6 DUP4 MULMOD SWAP1 POP PUSH0 MLOAD PUSH1 0x20 PUSH2 0x153 PUSH0 CODECOPY PUSH0 MLOAD SWAP1 PUSH0 MSTORE DUP2 DUP11 ADDMOD SWAP10 SWAP9 POP POP PUSH1 0x1 SWAP1 SWAP3 ADD SWAP2 POP PUSH2 0x75 SWAP1 POP JUMP JUMPDEST POP SWAP5 SWAP6 SWAP4 SWAP5 POP POP POP POP JUMP JUMPDEST PUSH0 PUSH0 PUSH1 0x40 DUP4 DUP6 SUB SLT ISZERO PUSH2 0x12F JUMPI PUSH0 PUSH0 REVERT JUMPDEST POP POP DUP1 CALLDATALOAD SWAP3 PUSH1 0x20 SWAP1 SWAP2 ADD CALLDATALOAD SWAP2 POP JUMP JUMPDEST PUSH4 0x4E487B71 PUSH1 0xE0 SHL PUSH0 MSTORE PUSH1 0x32 PUSH1 0x4 MSTORE PUSH1 0x24 PUSH0 REVERT INVALID ADDRESS PUSH5 0x4E72E131A0 0x29 0xB8 POP GASLIMIT 0xB6 DUP2 DUP2 PC TSTORE 0x28 CALLER 0xE8 BASEFEE PUSH26 0xB9709143E1F593F0000001A2646970667358221220A94BE9E174 0xDF MSTORE 0xBF 0xD3 0x4D 0xDE PUSH8 0x24B8C00959601887 PC PREVRANDAO 0xAD 0xDA 0x4F 0xC DUP1 COINBASE CALLER SWAP9 PUSH18 0x464736F6C634300081E0033000000000000 "},"methodIdentifiers":{"MiMCHash(uint256,uint256)":"6aafaa16"}}}}}