{"src/Verifier.sol":{"Groth16Verifier":{"abi":[{"inputs":[{"internalType":"uint256[2]","name":"_pA","type":"uint256[2]"},{"internalType":"uint256[2][2]","name":"_pB","type":"uint256[2][2]"},{"internalType":"uint256[2]","name":"_pC","type":"uint256[2]"},{"internalType":"uint256[6]","name":"_pubSignals","type":"uint256[6]"}],"name":"verifyProof","outputs":[{"internalType":"bool","name":"","type":"bool"}],"stateMutability":"view","type":"function"}],"evm":{"bytecode":{"linkReferences":{},"object":"6080604052348015600e575f5ffd5b506107198061001c5f395ff3fe608060405234801561000f575f5ffd5b5060043610610029575f3560e01c8063f398789b1461002d575b5f5ffd5b61004061003b366004610681565b610054565b604051901515815260200160405180910390f35b5f6105fc565b7f30644e72e131a029b85045b68181585d2833e84879b9709143e1f593f00000018110610089575f5f5260205ff35b50565b5f60405183815284602082015285604082015260408160608360076107d05a03fa9150816100bc575f5f5260205ff35b825160408201526020830151606082015260408360808360066107d05a03fa915050806100eb575f5f5260205ff35b5050505050565b7f291d69483206634c6751c6adeb5a4b3de8ea048ee43e223089ef4939b65a4c2485527f10b8b9d2edd4184679c67350f69db27bcf1969a4ea2c456ad583221a80eaab3b60208601525f608086018661018e87357f22a7dc9b1d33ed064576b07103878e708c6fb9ad9b20a20c3625766e61a264c17f20613ec30bdb7e2da32e96850e4a99687f0cb1f33adab27ad4abe532b63e8f768461008c565b6101de60208801357f23df8902b21f52c7e27ac618d78e375f29489ca6b8cf24883d5e6a8b96fc7a537f26af472c2b4930b92e4df408c0c18e15da9bf2d84e53a3602c95eb7673c78d728461008c565b61022e60408801357f2b587a7a806d2b2f9c2a4de3ad634b8c91af7ffcf02022f1486b5ca4544d630d7f1ef3bb1c3d7b3e94b643b3bce30c5df47597536fb2dcc82aa4fd88602e6e37ae8461008c565b61027e60608801357f1aff40445215ea1197d21b62dd8568c3f2c59673eb3724e3737711a0c4c372f57f2dc409a38abdc7fdafb9e172fb042978bc8cdc3d30e0ef8a71e72cb185a6b64c8461008c565b6102ce60808801357f0f13a573e05b7a762c221c81fb06e7045bbb433dadc93283c7cf050663f2bbbd7f191788072c0ad8958c64266f9d18bb170f1118d553d7169580cc710d729b0de18461008c565b61031e60a08801357f27bedfccd9208c7e8632a47409e9e389d290731ec47867a10df3f1612fab15de7f0940f8389e5380cff0473bfa160fb38e14408e0510771ceea091e32b754b7ea28461008c565b50823581527f30644e72e131a029b85045b68181585d97816a916871ca8d3c208c16d87cfd4760208401357f30644e72e131a029b85045b68181585d97816a916871ca8d3c208c16d87cfd4703066020820152833560408201526020840135606082015260408401356080820152606084013560a08201527f2d4d9aa7e302d9df41749d5507949d05dbea33fbb16c643b22f599a2be6df2e260c08201527f14bedd503c37ceb061d8ec60209fe345ce89830a19230301f076caff004d192660e08201527f0967032fcbf776d1afc985f88877f182d38480a653f2decaa9794cbc3bf3060c6101008201527f0e187847ad4c798374d0d6732bf501847dd68bc0e071241e0213bc7fc13db7ab6101208201527f304cfbd1e08a704a99f5e847d93f8c3caafddec46b7a0d379da69a4d112346a76101408201527f1739c1b1a457a8c7313123d24d2f9192f896b7c63eea05a9d57f06547ad0cec86101608201525f87015161018082015260205f018701516101a08201527f198e9393920d483a7260bfb731fb5d25f1aa493335a9e71297e485b7aef312c26101c08201527f1800deef121f1e76426a00665e5c4479674322d4f75edadd46debd5cd992f6ed6101e08201527f090689d0585ff075ec9e99ad690c3395bc4b313370b38ef355acdadcd122975b6102008201527f12c85ea5db8c6deb4aab71808dcb408fe3d1e7690c43d37b4ce6cc0166fa7daa610220820152843561024082015260208501356102608201527f1976f8491786e899358bc4b50c3e0bc33645c7154bb5c5705dc9090428d6ff246102808201527f1ed306aae678f6c9794a3cdcef795d592bcb7972fa57e8b3c12c2bde78db0b6d6102a08201527f23354650c7dcbfc92c495ae5f5d7cae87a501130802b30a9e2970f9f01d797066102c08201527f1050d3de03b5c62de881b2899ebba61d52c81c2df6f43a0de15c52f472b690516102e08201526020816103008360086107d05a03fa9051169695505050505050565b60405161038081016040526106135f84013561005a565b610620602084013561005a565b61062d604084013561005a565b61063a606084013561005a565b610647608084013561005a565b61065460a084013561005a565b610661818486888a6100f2565b9050805f5260205ff35b806040810183101561067b575f5ffd5b92915050565b5f5f5f5f6101c08587031215610695575f5ffd5b61069f868661066b565b935060c08501868111156106b1575f5ffd5b6040860193506106c1878261066b565b925050856101c0860111156106d4575f5ffd5b5091949093509091610100019056fea2646970667358221220548a3f8f657008ac50477090f54fa727500d86ef569f487cbef7114e0a7165d164736f6c634300081e0033","opcodes":"PUSH1 0x80 PUSH1 0x40 MSTORE CALLVALUE DUP1 ISZERO PUSH1 0xE JUMPI PUSH0 PUSH0 REVERT JUMPDEST POP PUSH2 0x719 DUP1 PUSH2 0x1C PUSH0 CODECOPY PUSH0 RETURN INVALID PUSH1 0x80 PUSH1 0x40 MSTORE CALLVALUE DUP1 ISZERO PUSH2 0xF JUMPI PUSH0 PUSH0 REVERT JUMPDEST POP PUSH1 0x4 CALLDATASIZE LT PUSH2 0x29 JUMPI PUSH0 CALLDATALOAD PUSH1 0xE0 SHR DUP1 PUSH4 0xF398789B EQ PUSH2 0x2D JUMPI JUMPDEST PUSH0 PUSH0 REVERT JUMPDEST PUSH2 0x40 PUSH2 0x3B CALLDATASIZE PUSH1 0x4 PUSH2 0x681 JUMP JUMPDEST PUSH2 0x54 JUMP JUMPDEST PUSH1 0x40 MLOAD SWAP1 ISZERO ISZERO DUP2 MSTORE PUSH1 0x20 ADD PUSH1 0x40 MLOAD DUP1 SWAP2 SUB SWAP1 RETURN JUMPDEST PUSH0 PUSH2 0x5FC JUMP JUMPDEST PUSH32 0x30644E72E131A029B85045B68181585D2833E84879B9709143E1F593F0000001 DUP2 LT PUSH2 0x89 JUMPI PUSH0 PUSH0 MSTORE PUSH1 0x20 PUSH0 RETURN JUMPDEST POP JUMP JUMPDEST PUSH0 PUSH1 0x40 MLOAD DUP4 DUP2 MSTORE DUP5 PUSH1 0x20 DUP3 ADD MSTORE DUP6 PUSH1 0x40 DUP3 ADD MSTORE PUSH1 0x40 DUP2 PUSH1 0x60 DUP4 PUSH1 0x7 PUSH2 0x7D0 GAS SUB STATICCALL SWAP2 POP DUP2 PUSH2 0xBC JUMPI PUSH0 PUSH0 MSTORE PUSH1 0x20 PUSH0 RETURN JUMPDEST DUP3 MLOAD PUSH1 0x40 DUP3 ADD MSTORE PUSH1 0x20 DUP4 ADD MLOAD PUSH1 0x60 DUP3 ADD MSTORE PUSH1 0x40 DUP4 PUSH1 0x80 DUP4 PUSH1 0x6 PUSH2 0x7D0 GAS SUB STATICCALL SWAP2 POP POP DUP1 PUSH2 0xEB JUMPI PUSH0 PUSH0 MSTORE PUSH1 0x20 PUSH0 RETURN JUMPDEST POP POP POP POP POP JUMP JUMPDEST PUSH32 0x291D69483206634C6751C6ADEB5A4B3DE8EA048EE43E223089EF4939B65A4C24 DUP6 MSTORE PUSH32 0x10B8B9D2EDD4184679C67350F69DB27BCF1969A4EA2C456AD583221A80EAAB3B PUSH1 0x20 DUP7 ADD MSTORE PUSH0 PUSH1 0x80 DUP7 ADD DUP7 PUSH2 0x18E DUP8 CALLDATALOAD PUSH32 0x22A7DC9B1D33ED064576B07103878E708C6FB9AD9B20A20C3625766E61A264C1 PUSH32 0x20613EC30BDB7E2DA32E96850E4A99687F0CB1F33ADAB27AD4ABE532B63E8F76 DUP5 PUSH2 0x8C JUMP JUMPDEST PUSH2 0x1DE PUSH1 0x20 DUP9 ADD CALLDATALOAD PUSH32 0x23DF8902B21F52C7E27AC618D78E375F29489CA6B8CF24883D5E6A8B96FC7A53 PUSH32 0x26AF472C2B4930B92E4DF408C0C18E15DA9BF2D84E53A3602C95EB7673C78D72 DUP5 PUSH2 0x8C JUMP JUMPDEST PUSH2 0x22E PUSH1 0x40 DUP9 ADD CALLDATALOAD PUSH32 0x2B587A7A806D2B2F9C2A4DE3AD634B8C91AF7FFCF02022F1486B5CA4544D630D PUSH32 0x1EF3BB1C3D7B3E94B643B3BCE30C5DF47597536FB2DCC82AA4FD88602E6E37AE DUP5 PUSH2 0x8C JUMP JUMPDEST PUSH2 0x27E PUSH1 0x60 DUP9 ADD CALLDATALOAD PUSH32 0x1AFF40445215EA1197D21B62DD8568C3F2C59673EB3724E3737711A0C4C372F5 PUSH32 0x2DC409A38ABDC7FDAFB9E172FB042978BC8CDC3D30E0EF8A71E72CB185A6B64C DUP5 PUSH2 0x8C JUMP JUMPDEST PUSH2 0x2CE PUSH1 0x80 DUP9 ADD CALLDATALOAD PUSH32 0xF13A573E05B7A762C221C81FB06E7045BBB433DADC93283C7CF050663F2BBBD PUSH32 0x191788072C0AD8958C64266F9D18BB170F1118D553D7169580CC710D729B0DE1 DUP5 PUSH2 0x8C JUMP JUMPDEST PUSH2 0x31E PUSH1 0xA0 DUP9 ADD CALLDATALOAD PUSH32 0x27BEDFCCD9208C7E8632A47409E9E389D290731EC47867A10DF3F1612FAB15DE PUSH32 0x940F8389E5380CFF0473BFA160FB38E14408E0510771CEEA091E32B754B7EA2 DUP5 PUSH2 0x8C JUMP JUMPDEST POP DUP3 CALLDATALOAD DUP2 MSTORE PUSH32 0x30644E72E131A029B85045B68181585D97816A916871CA8D3C208C16D87CFD47 PUSH1 0x20 DUP5 ADD CALLDATALOAD PUSH32 0x30644E72E131A029B85045B68181585D97816A916871CA8D3C208C16D87CFD47 SUB MOD PUSH1 0x20 DUP3 ADD MSTORE DUP4 CALLDATALOAD PUSH1 0x40 DUP3 ADD MSTORE PUSH1 0x20 DUP5 ADD CALLDATALOAD PUSH1 0x60 DUP3 ADD MSTORE PUSH1 0x40 DUP5 ADD CALLDATALOAD PUSH1 0x80 DUP3 ADD MSTORE PUSH1 0x60 DUP5 ADD CALLDATALOAD PUSH1 0xA0 DUP3 ADD MSTORE PUSH32 0x2D4D9AA7E302D9DF41749D5507949D05DBEA33FBB16C643B22F599A2BE6DF2E2 PUSH1 0xC0 DUP3 ADD MSTORE PUSH32 0x14BEDD503C37CEB061D8EC60209FE345CE89830A19230301F076CAFF004D1926 PUSH1 0xE0 DUP3 ADD MSTORE PUSH32 0x967032FCBF776D1AFC985F88877F182D38480A653F2DECAA9794CBC3BF3060C PUSH2 0x100 DUP3 ADD MSTORE PUSH32 0xE187847AD4C798374D0D6732BF501847DD68BC0E071241E0213BC7FC13DB7AB PUSH2 0x120 DUP3 ADD MSTORE PUSH32 0x304CFBD1E08A704A99F5E847D93F8C3CAAFDDEC46B7A0D379DA69A4D112346A7 PUSH2 0x140 DUP3 ADD MSTORE PUSH32 0x1739C1B1A457A8C7313123D24D2F9192F896B7C63EEA05A9D57F06547AD0CEC8 PUSH2 0x160 DUP3 ADD MSTORE PUSH0 DUP8 ADD MLOAD PUSH2 0x180 DUP3 ADD MSTORE PUSH1 0x20 PUSH0 ADD DUP8 ADD MLOAD PUSH2 0x1A0 DUP3 ADD MSTORE PUSH32 0x198E9393920D483A7260BFB731FB5D25F1AA493335A9E71297E485B7AEF312C2 PUSH2 0x1C0 DUP3 ADD MSTORE PUSH32 0x1800DEEF121F1E76426A00665E5C4479674322D4F75EDADD46DEBD5CD992F6ED PUSH2 0x1E0 DUP3 ADD MSTORE PUSH32 0x90689D0585FF075EC9E99AD690C3395BC4B313370B38EF355ACDADCD122975B PUSH2 0x200 DUP3 ADD MSTORE PUSH32 0x12C85EA5DB8C6DEB4AAB71808DCB408FE3D1E7690C43D37B4CE6CC0166FA7DAA PUSH2 0x220 DUP3 ADD MSTORE DUP5 CALLDATALOAD PUSH2 0x240 DUP3 ADD MSTORE PUSH1 0x20 DUP6 ADD CALLDATALOAD PUSH2 0x260 DUP3 ADD MSTORE PUSH32 0x1976F8491786E899358BC4B50C3E0BC33645C7154BB5C5705DC9090428D6FF24 PUSH2 0x280 DUP3 ADD MSTORE PUSH32 0x1ED306AAE678F6C9794A3CDCEF795D592BCB7972FA57E8B3C12C2BDE78DB0B6D PUSH2 0x2A0 DUP3 ADD MSTORE PUSH32 0x23354650C7DCBFC92C495AE5F5D7CAE87A501130802B30A9E2970F9F01D79706 PUSH2 0x2C0 DUP3 ADD MSTORE PUSH32 0x1050D3DE03B5C62DE881B2899EBBA61D52C81C2DF6F43A0DE15C52F472B69051 PUSH2 0x2E0 DUP3 ADD MSTORE PUSH1 0x20 DUP2 PUSH2 0x300 DUP4 PUSH1 0x8 PUSH2 0x7D0 GAS SUB STATICCALL SWAP1 MLOAD AND SWAP7 SWAP6 POP POP POP POP POP POP JUMP JUMPDEST PUSH1 0x40 MLOAD PUSH2 0x380 DUP2 ADD PUSH1 0x40 MSTORE PUSH2 0x613 PUSH0 DUP5 ADD CALLDATALOAD PUSH2 0x5A JUMP JUMPDEST PUSH2 0x620 PUSH1 0x20 DUP5 ADD CALLDATALOAD PUSH2 0x5A JUMP JUMPDEST PUSH2 0x62D PUSH1 0x40 DUP5 ADD CALLDATALOAD PUSH2 0x5A JUMP JUMPDEST PUSH2 0x63A PUSH1 0x60 DUP5 ADD CALLDATALOAD PUSH2 0x5A JUMP JUMPDEST PUSH2 0x647 PUSH1 0x80 DUP5 ADD CALLDATALOAD PUSH2 0x5A JUMP JUMPDEST PUSH2 0x654 PUSH1 0xA0 DUP5 ADD CALLDATALOAD PUSH2 0x5A JUMP JUMPDEST PUSH2 0x661 DUP2 DUP5 DUP7 DUP9 DUP11 PUSH2 0xF2 JUMP JUMPDEST SWAP1 POP DUP1 PUSH0 MSTORE PUSH1 0x20 PUSH0 RETURN JUMPDEST DUP1 PUSH1 0x40 DUP2 ADD DUP4 LT ISZERO PUSH2 0x67B JUMPI PUSH0 PUSH0 REVERT JUMPDEST SWAP3 SWAP2 POP POP JUMP JUMPDEST PUSH0 PUSH0 PUSH0 PUSH0 PUSH2 0x1C0 DUP6 DUP8 SUB SLT ISZERO PUSH2 0x695 JUMPI PUSH0 PUSH0 REVERT JUMPDEST PUSH2 0x69F DUP7 DUP7 PUSH2 0x66B JUMP JUMPDEST SWAP4 POP PUSH1 0xC0 DUP6 ADD DUP7 DUP2 GT ISZERO PUSH2 0x6B1 JUMPI PUSH0 PUSH0 REVERT JUMPDEST PUSH1 0x40 DUP7 ADD SWAP4 POP PUSH2 0x6C1 DUP8 DUP3 PUSH2 0x66B JUMP JUMPDEST SWAP3 POP POP DUP6 PUSH2 0x1C0 DUP7 ADD GT ISZERO PUSH2 0x6D4 JUMPI PUSH0 PUSH0 REVERT JUMPDEST POP SWAP2 SWAP5 SWAP1 SWAP4 POP SWAP1 SWAP2 PUSH2 0x100 ADD SWAP1 JUMP INVALID LOG2 PUSH5 0x6970667358 0x22 SLT KECCAK256 SLOAD DUP11 EXTCODEHASH DUP16 PUSH6 0x7008AC504770 SWAP1 CREATE2 0x4F 0xA7 0x27 POP 0xD DUP7 0xEF JUMP SWAP16 BASEFEE PUSH29 0xBEF7114E0A7165D164736F6C634300081E003300000000000000000000 "},"methodIdentifiers":{"verifyProof(uint256[2],uint256[2][2],uint256[2],uint256[6])":"f398789b"}}}}}