{"src/VerifierAdapter.sol":{"VerifierAdapter":{"abi":[{"inputs":[{"internalType":"address","name":"_groth16Verifier","type":"address"}],"stateMutability":"nonpayable","type":"constructor"},{"inputs":[],"name":"groth16Verifier","outputs":[{"internalType":"contract IGroth16Verifier","name":"","type":"address"}],"stateMutability":"view","type":"function"},{"inputs":[{"internalType":"uint256[8]","name":"proof","type":"uint256[8]"},{"internalType":"uint256[6]","name":"input","type":"uint256[6]"}],"name":"verifyProof","outputs":[{"internalType":"bool","name":"","type":"bool"}],"stateMutability":"view","type":"function"}],"evm":{"bytecode":{"linkReferences":{},"object":"60a0604052348015600e575f5ffd5b50604051610495380380610495833981016040819052602b91603b565b6001600160a01b03166080526066565b5f60208284031215604a575f5ffd5b81516001600160a01b0381168114605f575f5ffd5b9392505050565b6080516104116100845f395f8181603d01526101f001526104115ff3fe608060405234801561000f575f5ffd5b5060043610610034575f3560e01c806319c813be146100385780639cb286581461007c575b5f5ffd5b61005f7f000000000000000000000000000000000000000000000000000000000000000081565b6040516001600160a01b0390911681526020015b60405180910390f35b61008f61008a366004610293565b61009f565b6040519015158152602001610073565b5f5f6040518060400160405280855f600881106100be576100be6102d4565b60200201358152602001856001600881106100db576100db6102d4565b6020020135905260408051608081018252868201359181019182529192505f919081906060820188600360200201358152508152602001604051806040016040528088600460088110610130576101306102d4565b602002013581526020018860056008811061014d5761014d6102d4565b602002013590529052604080518082019091529091505f90808760066020020135815260200187600760088110610186576101866102d4565b602002013590529050610197610275565b5f5b60068110156101d8578681600681106101b4576101b46102d4565b60200201358282600681106101cb576101cb6102d4565b6020020152600101610199565b5060405163f398789b60e01b81526001600160a01b037f0000000000000000000000000000000000000000000000000000000000000000169063f398789b9061022b908790879087908790600401610332565b602060405180830381865afa158015610246573d5f5f3e3d5ffd5b505050506040513d601f19601f8201168201806040525081019061026a91906103b5565b979650505050505050565b6040518060c001604052806006906020820280368337509192915050565b5f5f6101c083850312156102a5575f5ffd5b6101008301848111156102b6575f5ffd5b839250846101c0850111156102c9575f5ffd5b809150509250929050565b634e487b7160e01b5f52603260045260245ffd5b805f5b600281101561030a5781518452602093840193909101906001016102eb565b50505050565b805f5b600681101561030a578151845260209384019390910190600101610313565b6101c0810161034182876102e8565b60408201855f5b600281101561038e578151835f5b6002811015610375578251825260209283019290910190600101610356565b5050506040929092019160209190910190600101610348565b50505061039e60c08301856102e8565b6103ac610100830184610310565b95945050505050565b5f602082840312156103c5575f5ffd5b815180151581146103d4575f5ffd5b939250505056fea2646970667358221220a862e16ecc28d85de4bcae3d56b50ef752ea83e72066eae21f4415525e1a345064736f6c634300081e0033","opcodes":"PUSH1 0xA0 PUSH1 0x40 MSTORE CALLVALUE DUP1 ISZERO PUSH1 0xE JUMPI PUSH0 PUSH0 REVERT JUMPDEST POP PUSH1 0x40 MLOAD PUSH2 0x495 CODESIZE SUB DUP1 PUSH2 0x495 DUP4 CODECOPY DUP2 ADD PUSH1 0x40 DUP2 SWAP1 MSTORE PUSH1 0x2B SWAP2 PUSH1 0x3B JUMP JUMPDEST PUSH1 0x1 PUSH1 0x1 PUSH1 0xA0 SHL SUB AND PUSH1 0x80 MSTORE PUSH1 0x66 JUMP JUMPDEST PUSH0 PUSH1 0x20 DUP3 DUP5 SUB SLT ISZERO PUSH1 0x4A JUMPI PUSH0 PUSH0 REVERT JUMPDEST DUP2 MLOAD PUSH1 0x1 PUSH1 0x1 PUSH1 0xA0 SHL SUB DUP2 AND DUP2 EQ PUSH1 0x5F JUMPI PUSH0 PUSH0 REVERT JUMPDEST SWAP4 SWAP3 POP POP POP JUMP JUMPDEST PUSH1 0x80 MLOAD PUSH2 0x411 PUSH2 0x84 PUSH0 CODECOPY PUSH0 DUP2 DUP2 PUSH1 0x3D ADD MSTORE PUSH2 0x1F0 ADD MSTORE PUSH2 0x411 PUSH0 RETURN INVALID PUSH1 0x80 PUSH1 0x40 MSTORE CALLVALUE DUP1 ISZERO PUSH2 0xF JUMPI PUSH0 PUSH0 REVERT JUMPDEST POP PUSH1 0x4 CALLDATASIZE LT PUSH2 0x34 JUMPI PUSH0 CALLDATALOAD PUSH1 0xE0 SHR DUP1 PUSH4 0x19C813BE EQ PUSH2 0x38 JUMPI DUP1 PUSH4 0x9CB28658 EQ PUSH2 0x7C JUMPI JUMPDEST PUSH0 PUSH0 REVERT JUMPDEST PUSH2 0x5F PUSH32 0x0 DUP2 JUMP JUMPDEST PUSH1 0x40 MLOAD PUSH1 0x1 PUSH1 0x1 PUSH1 0xA0 SHL SUB SWAP1 SWAP2 AND DUP2 MSTORE PUSH1 0x20 ADD JUMPDEST PUSH1 0x40 MLOAD DUP1 SWAP2 SUB SWAP1 RETURN JUMPDEST PUSH2 0x8F PUSH2 0x8A CALLDATASIZE PUSH1 0x4 PUSH2 0x293 JUMP JUMPDEST PUSH2 0x9F JUMP JUMPDEST PUSH1 0x40 MLOAD SWAP1 ISZERO ISZERO DUP2 MSTORE PUSH1 0x20 ADD PUSH2 0x73 JUMP JUMPDEST PUSH0 PUSH0 PUSH1 0x40 MLOAD DUP1 PUSH1 0x40 ADD PUSH1 0x40 MSTORE DUP1 DUP6 PUSH0 PUSH1 0x8 DUP2 LT PUSH2 0xBE JUMPI PUSH2 0xBE PUSH2 0x2D4 JUMP JUMPDEST PUSH1 0x20 MUL ADD CALLDATALOAD DUP2 MSTORE PUSH1 0x20 ADD DUP6 PUSH1 0x1 PUSH1 0x8 DUP2 LT PUSH2 0xDB JUMPI PUSH2 0xDB PUSH2 0x2D4 JUMP JUMPDEST PUSH1 0x20 MUL ADD CALLDATALOAD SWAP1 MSTORE PUSH1 0x40 DUP1 MLOAD PUSH1 0x80 DUP2 ADD DUP3 MSTORE DUP7 DUP3 ADD CALLDATALOAD SWAP2 DUP2 ADD SWAP2 DUP3 MSTORE SWAP2 SWAP3 POP PUSH0 SWAP2 SWAP1 DUP2 SWAP1 PUSH1 0x60 DUP3 ADD DUP9 PUSH1 0x3 PUSH1 0x20 MUL ADD CALLDATALOAD DUP2 MSTORE POP DUP2 MSTORE PUSH1 0x20 ADD PUSH1 0x40 MLOAD DUP1 PUSH1 0x40 ADD PUSH1 0x40 MSTORE DUP1 DUP9 PUSH1 0x4 PUSH1 0x8 DUP2 LT PUSH2 0x130 JUMPI PUSH2 0x130 PUSH2 0x2D4 JUMP JUMPDEST PUSH1 0x20 MUL ADD CALLDATALOAD DUP2 MSTORE PUSH1 0x20 ADD DUP9 PUSH1 0x5 PUSH1 0x8 DUP2 LT PUSH2 0x14D JUMPI PUSH2 0x14D PUSH2 0x2D4 JUMP JUMPDEST PUSH1 0x20 MUL ADD CALLDATALOAD SWAP1 MSTORE SWAP1 MSTORE PUSH1 0x40 DUP1 MLOAD DUP1 DUP3 ADD SWAP1 SWAP2 MSTORE SWAP1 SWAP2 POP PUSH0 SWAP1 DUP1 DUP8 PUSH1 0x6 PUSH1 0x20 MUL ADD CALLDATALOAD DUP2 MSTORE PUSH1 0x20 ADD DUP8 PUSH1 0x7 PUSH1 0x8 DUP2 LT PUSH2 0x186 JUMPI PUSH2 0x186 PUSH2 0x2D4 JUMP JUMPDEST PUSH1 0x20 MUL ADD CALLDATALOAD SWAP1 MSTORE SWAP1 POP PUSH2 0x197 PUSH2 0x275 JUMP JUMPDEST PUSH0 JUMPDEST PUSH1 0x6 DUP2 LT ISZERO PUSH2 0x1D8 JUMPI DUP7 DUP2 PUSH1 0x6 DUP2 LT PUSH2 0x1B4 JUMPI PUSH2 0x1B4 PUSH2 0x2D4 JUMP JUMPDEST PUSH1 0x20 MUL ADD CALLDATALOAD DUP3 DUP3 PUSH1 0x6 DUP2 LT PUSH2 0x1CB JUMPI PUSH2 0x1CB PUSH2 0x2D4 JUMP JUMPDEST PUSH1 0x20 MUL ADD MSTORE PUSH1 0x1 ADD PUSH2 0x199 JUMP JUMPDEST POP PUSH1 0x40 MLOAD PUSH4 0xF398789B PUSH1 0xE0 SHL DUP2 MSTORE PUSH1 0x1 PUSH1 0x1 PUSH1 0xA0 SHL SUB PUSH32 0x0 AND SWAP1 PUSH4 0xF398789B SWAP1 PUSH2 0x22B SWAP1 DUP8 SWAP1 DUP8 SWAP1 DUP8 SWAP1 DUP8 SWAP1 PUSH1 0x4 ADD PUSH2 0x332 JUMP JUMPDEST PUSH1 0x20 PUSH1 0x40 MLOAD DUP1 DUP4 SUB DUP2 DUP7 GAS STATICCALL ISZERO DUP1 ISZERO PUSH2 0x246 JUMPI RETURNDATASIZE PUSH0 PUSH0 RETURNDATACOPY RETURNDATASIZE PUSH0 REVERT JUMPDEST POP POP POP POP PUSH1 0x40 MLOAD RETURNDATASIZE PUSH1 0x1F NOT PUSH1 0x1F DUP3 ADD AND DUP3 ADD DUP1 PUSH1 0x40 MSTORE POP DUP2 ADD SWAP1 PUSH2 0x26A SWAP2 SWAP1 PUSH2 0x3B5 JUMP JUMPDEST SWAP8 SWAP7 POP POP POP POP POP POP POP JUMP JUMPDEST PUSH1 0x40 MLOAD DUP1 PUSH1 0xC0 ADD PUSH1 0x40 MSTORE DUP1 PUSH1 0x6 SWAP1 PUSH1 0x20 DUP3 MUL DUP1 CALLDATASIZE DUP4 CALLDATACOPY POP SWAP2 SWAP3 SWAP2 POP POP JUMP JUMPDEST PUSH0 PUSH0 PUSH2 0x1C0 DUP4 DUP6 SUB SLT ISZERO PUSH2 0x2A5 JUMPI PUSH0 PUSH0 REVERT JUMPDEST PUSH2 0x100 DUP4 ADD DUP5 DUP2 GT ISZERO PUSH2 0x2B6 JUMPI PUSH0 PUSH0 REVERT JUMPDEST DUP4 SWAP3 POP DUP5 PUSH2 0x1C0 DUP6 ADD GT ISZERO PUSH2 0x2C9 JUMPI PUSH0 PUSH0 REVERT JUMPDEST DUP1 SWAP2 POP POP SWAP3 POP SWAP3 SWAP1 POP JUMP JUMPDEST PUSH4 0x4E487B71 PUSH1 0xE0 SHL PUSH0 MSTORE PUSH1 0x32 PUSH1 0x4 MSTORE PUSH1 0x24 PUSH0 REVERT JUMPDEST DUP1 PUSH0 JUMPDEST PUSH1 0x2 DUP2 LT ISZERO PUSH2 0x30A JUMPI DUP2 MLOAD DUP5 MSTORE PUSH1 0x20 SWAP4 DUP5 ADD SWAP4 SWAP1 SWAP2 ADD SWAP1 PUSH1 0x1 ADD PUSH2 0x2EB JUMP JUMPDEST POP POP POP POP JUMP JUMPDEST DUP1 PUSH0 JUMPDEST PUSH1 0x6 DUP2 LT ISZERO PUSH2 0x30A JUMPI DUP2 MLOAD DUP5 MSTORE PUSH1 0x20 SWAP4 DUP5 ADD SWAP4 SWAP1 SWAP2 ADD SWAP1 PUSH1 0x1 ADD PUSH2 0x313 JUMP JUMPDEST PUSH2 0x1C0 DUP2 ADD PUSH2 0x341 DUP3 DUP8 PUSH2 0x2E8 JUMP JUMPDEST PUSH1 0x40 DUP3 ADD DUP6 PUSH0 JUMPDEST PUSH1 0x2 DUP2 LT ISZERO PUSH2 0x38E JUMPI DUP2 MLOAD DUP4 PUSH0 JUMPDEST PUSH1 0x2 DUP2 LT ISZERO PUSH2 0x375 JUMPI DUP3 MLOAD DUP3 MSTORE PUSH1 0x20 SWAP3 DUP4 ADD SWAP3 SWAP1 SWAP2 ADD SWAP1 PUSH1 0x1 ADD PUSH2 0x356 JUMP JUMPDEST POP POP POP PUSH1 0x40 SWAP3 SWAP1 SWAP3 ADD SWAP2 PUSH1 0x20 SWAP2 SWAP1 SWAP2 ADD SWAP1 PUSH1 0x1 ADD PUSH2 0x348 JUMP JUMPDEST POP POP POP PUSH2 0x39E PUSH1 0xC0 DUP4 ADD DUP6 PUSH2 0x2E8 JUMP JUMPDEST PUSH2 0x3AC PUSH2 0x100 DUP4 ADD DUP5 PUSH2 0x310 JUMP JUMPDEST SWAP6 SWAP5 POP POP POP POP POP JUMP JUMPDEST PUSH0 PUSH1 0x20 DUP3 DUP5 SUB SLT ISZERO PUSH2 0x3C5 JUMPI PUSH0 PUSH0 REVERT JUMPDEST DUP2 MLOAD DUP1 ISZERO ISZERO DUP2 EQ PUSH2 0x3D4 JUMPI PUSH0 PUSH0 REVERT JUMPDEST SWAP4 SWAP3 POP POP POP JUMP INVALID LOG2 PUSH5 0x6970667358 0x22 SLT KECCAK256 0xA8 PUSH3 0xE16ECC 0x28 0xD8 TSTORE RETF 0xBC 0xAE RETURNDATASIZE JUMP 0xB5 0xE 0xF7 MSTORE 0xEA DUP4 SWAPN 0x20 PUSH7 0xEAE21F4415525E BYTE CALLVALUE POP PUSH5 0x736F6C6343 STOP ADDMOD 0x1E STOP CALLER "},"methodIdentifiers":{"groth16Verifier()":"19c813be","verifyProof(uint256[8],uint256[6])":"9cb28658"}}}}}