{"src/MixerPoolV2.sol":{"MixerPoolV2":{"abi":[{"inputs":[{"internalType":"address","name":"_verifier","type":"address"},{"internalType":"address","name":"_hasher","type":"address"},{"internalType":"address","name":"_token","type":"address"},{"internalType":"uint256","name":"_denomination","type":"uint256"}],"stateMutability":"nonpayable","type":"constructor"},{"inputs":[],"name":"CommitmentAlreadyExists","type":"error"},{"inputs":[],"name":"InvalidDelay","type":"error"},{"inputs":[],"name":"InvalidDenomination","type":"error"},{"inputs":[],"name":"InvalidFee","type":"error"},{"inputs":[],"name":"InvalidMerkleRoot","type":"error"},{"inputs":[],"name":"InvalidProof","type":"error"},{"inputs":[],"name":"InvalidRoot","type":"error"},{"inputs":[],"name":"MerkleTreeFull","type":"error"},{"inputs":[],"name":"NullifierAlreadyPending","type":"error"},{"inputs":[],"name":"NullifierAlreadySpent","type":"error"},{"inputs":[],"name":"ReentrancyGuardReentrantCall","type":"error"},{"inputs":[{"internalType":"address","name":"token","type":"address"}],"name":"SafeERC20FailedOperation","type":"error"},{"inputs":[],"name":"TransferFailed","type":"error"},{"inputs":[],"name":"WithdrawalAlreadyExecuted","type":"error"},{"inputs":[],"name":"WithdrawalNotFound","type":"error"},{"inputs":[],"name":"WithdrawalNotReady","type":"error"},{"anonymous":false,"inputs":[{"indexed":true,"internalType":"bytes32","name":"commitment","type":"bytes32"},{"indexed":true,"internalType":"uint256","name":"leafIndex","type":"uint256"},{"indexed":false,"internalType":"uint256","name":"timestamp","type":"uint256"}],"name":"Deposit","type":"event"},{"anonymous":false,"inputs":[{"indexed":true,"internalType":"bytes32","name":"leaf","type":"bytes32"},{"indexed":true,"internalType":"uint256","name":"leafIndex","type":"uint256"},{"indexed":false,"internalType":"bytes32","name":"newRoot","type":"bytes32"}],"name":"LeafInserted","type":"event"},{"anonymous":false,"inputs":[{"indexed":true,"internalType":"address","name":"recipient","type":"address"},{"indexed":true,"internalType":"bytes32","name":"nullifierHash","type":"bytes32"},{"indexed":true,"internalType":"address","name":"relayer","type":"address"},{"indexed":false,"internalType":"uint256","name":"fee","type":"uint256"}],"name":"Withdrawal","type":"event"},{"anonymous":false,"inputs":[{"indexed":true,"internalType":"bytes32","name":"nullifierHash","type":"bytes32"},{"indexed":true,"internalType":"address","name":"recipient","type":"address"}],"name":"WithdrawalCancelled","type":"event"},{"anonymous":false,"inputs":[{"indexed":true,"internalType":"bytes32","name":"nullifierHash","type":"bytes32"},{"indexed":true,"internalType":"address","name":"recipient","type":"address"},{"indexed":true,"internalType":"address","name":"executor","type":"address"},{"indexed":false,"internalType":"uint256","name":"amount","type":"uint256"}],"name":"WithdrawalExecuted","type":"event"},{"anonymous":false,"inputs":[{"indexed":true,"internalType":"bytes32","name":"nullifierHash","type":"bytes32"},{"indexed":true,"internalType":"address","name":"recipient","type":"address"},{"indexed":false,"internalType":"uint256","name":"unlockTime","type":"uint256"},{"indexed":false,"internalType":"uint256","name":"delay","type":"uint256"}],"name":"WithdrawalScheduled","type":"event"},{"inputs":[],"name":"FIELD_SIZE","outputs":[{"internalType":"uint256","name":"","type":"uint256"}],"stateMutability":"view","type":"function"},{"inputs":[],"name":"MAX_DELAY","outputs":[{"internalType":"uint256","name":"","type":"uint256"}],"stateMutability":"view","type":"function"},{"inputs":[],"name":"MIN_DELAY","outputs":[{"internalType":"uint256","name":"","type":"uint256"}],"stateMutability":"view","type":"function"},{"inputs":[],"name":"ROOT_HISTORY_SIZE","outputs":[{"internalType":"uint256","name":"","type":"uint256"}],"stateMutability":"view","type":"function"},{"inputs":[],"name":"TREE_DEPTH","outputs":[{"internalType":"uint256","name":"","type":"uint256"}],"stateMutability":"view","type":"function"},{"inputs":[{"internalType":"bytes32","name":"","type":"bytes32"}],"name":"commitments","outputs":[{"internalType":"bool","name":"","type":"bool"}],"stateMutability":"view","type":"function"},{"inputs":[],"name":"currentRootIndex","outputs":[{"internalType":"uint256","name":"","type":"uint256"}],"stateMutability":"view","type":"function"},{"inputs":[],"name":"denomination","outputs":[{"internalType":"uint256","name":"","type":"uint256"}],"stateMutability":"view","type":"function"},{"inputs":[{"internalType":"bytes32","name":"commitment","type":"bytes32"}],"name":"deposit","outputs":[],"stateMutability":"nonpayable","type":"function"},{"inputs":[{"internalType":"bytes32","name":"nullifierHash","type":"bytes32"}],"name":"executeScheduledWithdrawal","outputs":[],"stateMutability":"nonpayable","type":"function"},{"inputs":[{"internalType":"uint256","name":"","type":"uint256"}],"name":"filledSubtrees","outputs":[{"internalType":"bytes32","name":"","type":"bytes32"}],"stateMutability":"view","type":"function"},{"inputs":[],"name":"getLatestRoot","outputs":[{"internalType":"bytes32","name":"","type":"bytes32"}],"stateMutability":"view","type":"function"},{"inputs":[{"internalType":"bytes32","name":"nullifierHash","type":"bytes32"}],"name":"getPendingWithdrawal","outputs":[{"internalType":"address","name":"recipient","type":"address"},{"internalType":"address","name":"relayer","type":"address"},{"internalType":"uint256","name":"fee","type":"uint256"},{"internalType":"uint256","name":"unlockTime","type":"uint256"},{"internalType":"bool","name":"executed","type":"bool"},{"internalType":"bool","name":"exists","type":"bool"}],"stateMutability":"view","type":"function"},{"inputs":[],"name":"getPoolInfo","outputs":[{"internalType":"address","name":"_token","type":"address"},{"internalType":"uint256","name":"_denomination","type":"uint256"},{"internalType":"uint256","name":"_depositsCount","type":"uint256"},{"internalType":"bytes32","name":"_root","type":"bytes32"}],"stateMutability":"view","type":"function"},{"inputs":[],"name":"getPoolInfoV2","outputs":[{"internalType":"address","name":"_token","type":"address"},{"internalType":"uint256","name":"_denomination","type":"uint256"},{"internalType":"uint256","name":"_depositsCount","type":"uint256"},{"internalType":"uint256","name":"_scheduledCount","type":"uint256"},{"internalType":"bytes32","name":"_root","type":"bytes32"},{"internalType":"uint256","name":"_minDelay","type":"uint256"},{"internalType":"uint256","name":"_maxDelay","type":"uint256"}],"stateMutability":"view","type":"function"},{"inputs":[{"internalType":"bytes32","name":"nullifierHash","type":"bytes32"}],"name":"getWithdrawalStatus","outputs":[{"internalType":"uint256","name":"timeRemaining","type":"uint256"},{"internalType":"uint256","name":"unlockTime","type":"uint256"},{"internalType":"bool","name":"isReady","type":"bool"},{"internalType":"bool","name":"executed","type":"bool"}],"stateMutability":"view","type":"function"},{"inputs":[],"name":"hasher","outputs":[{"internalType":"contract IHasher","name":"","type":"address"}],"stateMutability":"view","type":"function"},{"inputs":[{"internalType":"bytes32","name":"commitment","type":"bytes32"}],"name":"isDeposited","outputs":[{"internalType":"bool","name":"","type":"bool"}],"stateMutability":"view","type":"function"},{"inputs":[{"internalType":"bytes32","name":"root","type":"bytes32"}],"name":"isKnownRoot","outputs":[{"internalType":"bool","name":"","type":"bool"}],"stateMutability":"view","type":"function"},{"inputs":[{"internalType":"bytes32","name":"nullifierHash","type":"bytes32"}],"name":"isSpent","outputs":[{"internalType":"bool","name":"","type":"bool"}],"stateMutability":"view","type":"function"},{"inputs":[],"name":"nextLeafIndex","outputs":[{"internalType":"uint256","name":"","type":"uint256"}],"stateMutability":"view","type":"function"},{"inputs":[{"internalType":"bytes32","name":"","type":"bytes32"}],"name":"nullifierHashes","outputs":[{"internalType":"bool","name":"","type":"bool"}],"stateMutability":"view","type":"function"},{"inputs":[{"internalType":"bytes32","name":"","type":"bytes32"}],"name":"pendingWithdrawals","outputs":[{"internalType":"address","name":"recipient","type":"address"},{"internalType":"address","name":"relayer","type":"address"},{"internalType":"uint256","name":"fee","type":"uint256"},{"internalType":"uint256","name":"unlockTime","type":"uint256"},{"internalType":"bool","name":"executed","type":"bool"},{"internalType":"bool","name":"exists","type":"bool"}],"stateMutability":"view","type":"function"},{"inputs":[{"internalType":"uint256","name":"","type":"uint256"}],"name":"roots","outputs":[{"internalType":"bytes32","name":"","type":"bytes32"}],"stateMutability":"view","type":"function"},{"inputs":[{"internalType":"uint256[8]","name":"proof","type":"uint256[8]"},{"internalType":"bytes32","name":"root","type":"bytes32"},{"internalType":"bytes32","name":"nullifierHash","type":"bytes32"},{"internalType":"address","name":"recipient","type":"address"},{"internalType":"address","name":"relayer","type":"address"},{"internalType":"uint256","name":"fee","type":"uint256"},{"internalType":"uint256","name":"delay","type":"uint256"}],"name":"scheduleWithdrawal","outputs":[],"stateMutability":"nonpayable","type":"function"},{"inputs":[],"name":"scheduledCount","outputs":[{"internalType":"uint256","name":"","type":"uint256"}],"stateMutability":"view","type":"function"},{"inputs":[],"name":"token","outputs":[{"internalType":"contract IERC20","name":"","type":"address"}],"stateMutability":"view","type":"function"},{"inputs":[],"name":"verifier","outputs":[{"internalType":"contract IVerifier","name":"","type":"address"}],"stateMutability":"view","type":"function"},{"inputs":[{"internalType":"uint256[8]","name":"proof","type":"uint256[8]"},{"internalType":"bytes32","name":"root","type":"bytes32"},{"internalType":"bytes32","name":"nullifierHash","type":"bytes32"},{"internalType":"address","name":"recipient","type":"address"},{"internalType":"address","name":"relayer","type":"address"},{"internalType":"uint256","name":"fee","type":"uint256"}],"name":"withdraw","outputs":[],"stateMutability":"nonpayable","type":"function"},{"inputs":[{"internalType":"uint256","name":"","type":"uint256"}],"name":"zeros","outputs":[{"internalType":"bytes32","name":"","type":"bytes32"}],"stateMutability":"view","type":"function"}],"evm":{"bytecode":{"linkReferences":{},"object":"610100604052348015610010575f5ffd5b506040516118e03803806118e083398101604081905261002f916101e9565b6001600160a01b038316608052825f6100887f30644e72e131a029b85045b68181585d2833e84879b9709143e1f593f00000017f98f11393d33c3dd6396a2e60bad04496198a5a84ef2f23eda310218433f9acf0610231565b90508060215f01555f8052600160208190527fa6eef7e35abe7026729641147f7915573c7e97b47efa546f5f6e3230263bcb498290555b6014811015610103576100d28280610155565b915081602182601481106100e8576100e8610250565b01555f818152600160208190526040909120839055016100bf565b5061010e8180610155565b600255505060016035555f81900361013957604051637833d9e360e11b815260040160405180910390fd5b6001600160a01b0393841660c052921660a0525060e05261027b565b60805160405163f47d33b560e01b815260048101849052602481018390525f916001600160a01b03169063f47d33b590604401602060405180830381865afa1580156101a3573d5f5f3e3d5ffd5b505050506040513d601f19601f820116820180604052508101906101c79190610264565b9392505050565b80516001600160a01b03811681146101e4575f5ffd5b919050565b5f5f5f5f608085870312156101fc575f5ffd5b610205856101ce565b9350610213602086016101ce565b9250610221604086016101ce565b6060959095015193969295505050565b5f8261024b57634e487b7160e01b5f52601260045260245ffd5b500690565b634e487b7160e01b5f52603260045260245ffd5b5f60208284031215610274575f5ffd5b5051919050565b60805160a05160c05160e0516115d06103105f395f8181610381015281816108ee01528181610aa001528181610c1e01528181610c9701528181610d0b01528181610da40152610ece01525f81816102490152610dd801525f81816105bf015281816108cd01528181610a7c01528181610c7601528181610f010152610f5101525f818161052a015261117f01526115d05ff3fe608060405234801561000f575f5ffd5b50600436106101d1575f3560e01c80639f81aed7116100fe578063e11d84e21161009e578063f16505361161006e578063f16505361461054c578063f178e47c14610554578063f499c19614610573578063fc0c546a146105ba575f5ffd5b8063e11d84e2146104dd578063e5285dcc146104f0578063e829558814610512578063ed33639f14610525575f5ffd5b8063b7f06ebe116100d9578063b7f06ebe146103db578063c2b40ae41461046b578063cd87a3b41461047e578063d0fe00db14610486575f5ffd5b80639f81aed7146103ac578063a151918a146103b5578063b214faa5146103c8575f5ffd5b80635e35d480116101745780636d9833e3116101445780636d9833e314610347578063839df9451461035a5780638bca6d161461037c57806390eeb02b146103a3575f5ffd5b80635e35d480146102bc5780635f18f590146102d157806360246c881461030c5780636c28fa751461033e575f5ffd5b80632b7ac3f3116101af5780632b7ac3f3146102445780634125ff9014610283578063414a37ba1461028d5780635445b007146102b4575f5ffd5b80630be4f422146101d557806317cc915c146101f0578063230ddd9014610222575b5f5ffd5b6101dd5f5481565b6040519081526020015b60405180910390f35b6102126101fe366004611269565b60366020525f908152604090205460ff1681565b60405190151581526020016101e7565b610212610230366004611269565b5f9081526037602052604090205460ff1690565b61026b7f000000000000000000000000000000000000000000000000000000000000000081565b6040516001600160a01b0390911681526020016101e7565b6101dd62093a8081565b6101dd7f30644e72e131a029b85045b68181585d2833e84879b9709143e1f593f000000181565b6101dd6105e1565b6102cf6102ca3660046112ac565b6105fe565b005b6102e46102df366004611269565b610852565b60408051948552602085019390935290151591830191909152151560608201526080016101e7565b6103146108c7565b604080516001600160a01b03909516855260208501939093529183015260608201526080016101e7565b6101dd60395481565b610212610355366004611269565b610925565b610212610368366004611269565b60376020525f908152604090205460ff1681565b6101dd7f000000000000000000000000000000000000000000000000000000000000000081565b6101dd60205481565b6101dd610e1081565b6102cf6103c336600461131a565b610993565b6102cf6103d6366004611269565b610a14565b61042f6103e9366004611269565b60386020525f9081526040902080546001820154600283015460038401546004909401546001600160a01b03938416949390921692909160ff8082169161010090041686565b604080516001600160a01b03978816815296909516602087015293850192909252606084015215156080830152151560a082015260c0016101e7565b6101dd610479366004611269565b610b0d565b6101dd601e81565b61042f610494366004611269565b5f90815260386020526040902080546001820154600283015460038401546004909401546001600160a01b039384169593909216939092909160ff808216926101009092041690565b6102cf6104eb366004611269565b610b23565b6102126104fe366004611269565b5f9081526036602052604090205460ff1690565b6101dd610520366004611269565b610c5e565b61026b7f000000000000000000000000000000000000000000000000000000000000000081565b6101dd601481565b6101dd610562366004611269565b60016020525f908152604090205481565b61057b610c6d565b604080516001600160a01b0390981688526020880196909652948601939093526060850191909152608084015260a083015260c082015260e0016101e7565b61026b7f000000000000000000000000000000000000000000000000000000000000000081565b5f6002602054601e81106105f7576105f761137e565b0154905090565b610606610cdf565b610e10811080610618575062093a8081115b15610636576040516327df2edd60e11b815260040160405180910390fd5b5f85815260386020526040902060040154610100900460ff161561066d5760405163246ad63b60e01b815260040160405180910390fd5b61067b878787878787610d09565b5f8581526036602052604090205460ff16156106aa5760405163b115d85760e01b815260040160405180910390fd5b5f6106b582426113a6565b90506040518060c00160405280866001600160a01b03168152602001856001600160a01b031681526020018481526020018281526020015f151581526020016001151581525060385f8881526020019081526020015f205f820151815f015f6101000a8154816001600160a01b0302191690836001600160a01b031602179055506020820151816001015f6101000a8154816001600160a01b0302191690836001600160a01b0316021790555060408201518160020155606082015181600301556080820151816004015f6101000a81548160ff02191690831515021790555060a08201518160040160016101000a81548160ff021916908315150217905550905050600160365f8881526020019081526020015f205f6101000a81548160ff02191690831515021790555060395f8154809291906107f3906113b9565b909155505060408051828152602081018490526001600160a01b0387169188917f3b423fbfee76039f99f543e0aff845bc6fcf27114930f0ee213ca425ad2ab754910160405180910390a3506108496001603555565b50505050505050565b5f818152603860205260408120600481015482918291829190610100900460ff16610889575f5f5f5f9450945094509450506108c0565b6003810154600482015490945060ff1691504284116108ae575f9450811592506108be565b6108b842856113d1565b94505f92505b505b9193509193565b5f5f5f5f7f00000000000000000000000000000000000000000000000000000000000000007f00000000000000000000000000000000000000000000000000000000000000005f546109176105e1565b935093509350935090919293565b5f8161093257505f919050565b6020545b600281601e81106109495761094961137e565b0154830361095a5750600192915050565b805f036109745761096d6001601e6113d1565b9050610982565b8061097e816113e4565b9150505b602054810361093657505f92915050565b61099b610cdf565b6109a9868686868686610e6b565b6109b4838383610ec7565b816001600160a01b031684846001600160a01b03167fe9e508bad6d4c3227e881ca19068f099da81b5164dd6d62b2eaf1e8bc6c34931846040516109fa91815260200190565b60405180910390a4610a0c6001603555565b505050505050565b610a1c610cdf565b5f8181526037602052604090205460ff1615610a4b5760405163145718a760e01b815260040160405180910390fd5b5f610a5582610f7e565b5f838152603760205260409020805460ff191660011790559050610ac46001600160a01b037f00000000000000000000000000000000000000000000000000000000000000001633307f00000000000000000000000000000000000000000000000000000000000000006110c3565b80827fe1f1096fd8bc7d572fb7ad7e4102736b6615500975c0252ea91ef1b765c4989742604051610af791815260200190565b60405180910390a350610b0a6001603555565b50565b600281601e8110610b1c575f80fd5b0154905081565b610b2b610cdf565b5f8181526038602052604090206004810154610100900460ff16610b6257604051638d0fc1dd60e01b815260040160405180910390fd5b600481015460ff1615610b8857604051632569702d60e21b815260040160405180910390fd5b8060030154421015610bad57604051630f2ca6e760e01b815260040160405180910390fd5b60048101805460ff191660019081179091558154908201546002830154610be1926001600160a01b03908116921690610ec7565b8054600282015433916001600160a01b03169084907fedbb1d2a668dc012e1f90419b492c1cdd90c45e48afaa766e9befc71e992d70c90610c42907f00000000000000000000000000000000000000000000000000000000000000006113d1565b60405190815260200160405180910390a450610b0a6001603555565b60218160148110610b1c575f80fd5b5f5f5f5f5f5f5f7f00000000000000000000000000000000000000000000000000000000000000007f00000000000000000000000000000000000000000000000000000000000000005f54603954610cc36105e1565b939b929a509098509650909450610e10935062093a8092509050565b600260355403610d0257604051633ee5aeb560e01b815260040160405180910390fd5b6002603555565b7f0000000000000000000000000000000000000000000000000000000000000000811115610d4a576040516358d620b360e01b815260040160405180910390fd5b610d5385610925565b610d7057604051639dd854d360e01b815260040160405180910390fd5b6040805160c081018252868152602081018690526001600160a01b03808616828401528481166060830152608082018490527f000000000000000000000000000000000000000000000000000000000000000060a0830152915163139650cb60e31b815290917f00000000000000000000000000000000000000000000000000000000000000001690639cb2865890610e0f908a9085906004016113f9565b602060405180830381865afa158015610e2a573d5f5f3e3d5ffd5b505050506040513d601f19601f82011682018060405250810190610e4e9190611435565b610849576040516309bde33960e01b815260040160405180910390fd5b5f8481526036602052604090205460ff1615610e9a5760405163b115d85760e01b815260040160405180910390fd5b610ea8868686868686610d09565b5050505f908152603660205260409020805460ff191660011790555050565b5f610ef2827f00000000000000000000000000000000000000000000000000000000000000006113d1565b9050610f286001600160a01b037f000000000000000000000000000000000000000000000000000000000000000016858361112a565b5f82118015610f3f57506001600160a01b03831615155b15610f7857610f786001600160a01b037f000000000000000000000000000000000000000000000000000000000000000016848461112a565b50505050565b5f8054610f8d6014600261153e565b8110610fac576040516377ae67b360e11b815260040160405180910390fd5b80835f80805b601481101561103057610fc660028661155d565b5f03610ffb5783925060218160148110610fe257610fe261137e565b01545f828152600160205260409020859055915061100f565b5f8181526001602052604090205492508391505b6110198383611160565b9350611026600286611570565b9450600101610fb2565b505f601e602054600161104391906113a6565b61104d919061155d565b905083600282601e81106110635761106361137e565b015560208190556110758660016113a6565b5f8190555085965086887fd50e83984b64a106ac2ee6314d689ec4d2a656d5ece6d94c585796944b52240c866040516110b091815260200190565b60405180910390a3505050505050919050565b6040516001600160a01b038481166024830152838116604483015260648201839052610f789186918216906323b872dd906084015b604051602081830303815290604052915060e01b6020820180516001600160e01b0383818316178352505050506111f9565b6040516001600160a01b0383811660248301526044820183905261115b91859182169063a9059cbb906064016110f8565b505050565b60405163f47d33b560e01b815260048101839052602481018290525f907f00000000000000000000000000000000000000000000000000000000000000006001600160a01b03169063f47d33b590604401602060405180830381865afa1580156111cc573d5f5f3e3d5ffd5b505050506040513d601f19601f820116820180604052508101906111f09190611583565b90505b92915050565b5f5f60205f8451602086015f885af180611218576040513d5f823e3d81fd5b50505f513d9150811561122f57806001141561123c565b6001600160a01b0384163b155b15610f7857604051635274afe760e01b81526001600160a01b038516600482015260240160405180910390fd5b5f60208284031215611279575f5ffd5b5035919050565b8061010081018310156111f3575f5ffd5b80356001600160a01b03811681146112a7575f5ffd5b919050565b5f5f5f5f5f5f5f6101c0888a0312156112c3575f5ffd5b6112cd8989611280565b9650610100880135955061012088013594506112ec6101408901611291565b93506112fb6101608901611291565b9699959850939692959461018084013594506101a09093013592915050565b5f5f5f5f5f5f6101a08789031215611330575f5ffd5b61133a8888611280565b9550610100870135945061012087013593506113596101408801611291565b92506113686101608801611291565b9598949750929591949361018090920135925050565b634e487b7160e01b5f52603260045260245ffd5b634e487b7160e01b5f52601160045260245ffd5b808201808211156111f3576111f3611392565b5f600182016113ca576113ca611392565b5060010190565b818103818111156111f3576111f3611392565b5f816113f2576113f2611392565b505f190190565b6101c081016101008483376101008201835f5b600681101561142b57815183526020928301929091019060010161140c565b5050509392505050565b5f60208284031215611445575f5ffd5b81518015158114611454575f5ffd5b9392505050565b6001815b60018411156114965780850481111561147a5761147a611392565b600184161561148857908102905b60019390931c92800261145f565b935093915050565b5f826114ac575060016111f3565b816114b857505f6111f3565b81600181146114ce57600281146114d8576114f4565b60019150506111f3565b60ff8411156114e9576114e9611392565b50506001821b6111f3565b5060208310610133831016604e8410600b8410161715611517575081810a6111f3565b6115235f19848461145b565b805f190482111561153657611536611392565b029392505050565b5f611454838361149e565b634e487b7160e01b5f52601260045260245ffd5b5f8261156b5761156b611549565b500690565b5f8261157e5761157e611549565b500490565b5f60208284031215611593575f5ffd5b505191905056fea26469706673582212202f29666c8fa00403012c0fb2d4ed3465c40cd812cac3100d57339f336963bf4864736f6c634300081e0033","opcodes":"PUSH2 0x100 PUSH1 0x40 MSTORE CALLVALUE DUP1 ISZERO PUSH2 0x10 JUMPI PUSH0 PUSH0 REVERT JUMPDEST POP PUSH1 0x40 MLOAD PUSH2 0x18E0 CODESIZE SUB DUP1 PUSH2 0x18E0 DUP4 CODECOPY DUP2 ADD PUSH1 0x40 DUP2 SWAP1 MSTORE PUSH2 0x2F SWAP2 PUSH2 0x1E9 JUMP JUMPDEST PUSH1 0x1 PUSH1 0x1 PUSH1 0xA0 SHL SUB DUP4 AND PUSH1 0x80 MSTORE DUP3 PUSH0 PUSH2 0x88 PUSH32 0x30644E72E131A029B85045B68181585D2833E84879B9709143E1F593F0000001 PUSH32 0x98F11393D33C3DD6396A2E60BAD04496198A5A84EF2F23EDA310218433F9ACF0 PUSH2 0x231 JUMP JUMPDEST SWAP1 POP DUP1 PUSH1 0x21 PUSH0 ADD SSTORE PUSH0 DUP1 MSTORE PUSH1 0x1 PUSH1 0x20 DUP2 SWAP1 MSTORE PUSH32 0xA6EEF7E35ABE7026729641147F7915573C7E97B47EFA546F5F6E3230263BCB49 DUP3 SWAP1 SSTORE JUMPDEST PUSH1 0x14 DUP2 LT ISZERO PUSH2 0x103 JUMPI PUSH2 0xD2 DUP3 DUP1 PUSH2 0x155 JUMP JUMPDEST SWAP2 POP DUP2 PUSH1 0x21 DUP3 PUSH1 0x14 DUP2 LT PUSH2 0xE8 JUMPI PUSH2 0xE8 PUSH2 0x250 JUMP JUMPDEST ADD SSTORE PUSH0 DUP2 DUP2 MSTORE PUSH1 0x1 PUSH1 0x20 DUP2 SWAP1 MSTORE PUSH1 0x40 SWAP1 SWAP2 KECCAK256 DUP4 SWAP1 SSTORE ADD PUSH2 0xBF JUMP JUMPDEST POP PUSH2 0x10E DUP2 DUP1 PUSH2 0x155 JUMP JUMPDEST PUSH1 0x2 SSTORE POP POP PUSH1 0x1 PUSH1 0x35 SSTORE PUSH0 DUP2 SWAP1 SUB PUSH2 0x139 JUMPI PUSH1 0x40 MLOAD PUSH4 0x7833D9E3 PUSH1 0xE1 SHL DUP2 MSTORE PUSH1 0x4 ADD PUSH1 0x40 MLOAD DUP1 SWAP2 SUB SWAP1 REVERT JUMPDEST PUSH1 0x1 PUSH1 0x1 PUSH1 0xA0 SHL SUB SWAP4 DUP5 AND PUSH1 0xC0 MSTORE SWAP3 AND PUSH1 0xA0 MSTORE POP PUSH1 0xE0 MSTORE PUSH2 0x27B JUMP JUMPDEST PUSH1 0x80 MLOAD PUSH1 0x40 MLOAD PUSH4 0xF47D33B5 PUSH1 0xE0 SHL DUP2 MSTORE PUSH1 0x4 DUP2 ADD DUP5 SWAP1 MSTORE PUSH1 0x24 DUP2 ADD DUP4 SWAP1 MSTORE PUSH0 SWAP2 PUSH1 0x1 PUSH1 0x1 PUSH1 0xA0 SHL SUB AND SWAP1 PUSH4 0xF47D33B5 SWAP1 PUSH1 0x44 ADD PUSH1 0x20 PUSH1 0x40 MLOAD DUP1 DUP4 SUB DUP2 DUP7 GAS STATICCALL ISZERO DUP1 ISZERO PUSH2 0x1A3 JUMPI RETURNDATASIZE PUSH0 PUSH0 RETURNDATACOPY RETURNDATASIZE PUSH0 REVERT JUMPDEST POP POP POP POP PUSH1 0x40 MLOAD RETURNDATASIZE PUSH1 0x1F NOT PUSH1 0x1F DUP3 ADD AND DUP3 ADD DUP1 PUSH1 0x40 MSTORE POP DUP2 ADD SWAP1 PUSH2 0x1C7 SWAP2 SWAP1 PUSH2 0x264 JUMP JUMPDEST SWAP4 SWAP3 POP POP POP JUMP JUMPDEST DUP1 MLOAD PUSH1 0x1 PUSH1 0x1 PUSH1 0xA0 SHL SUB DUP2 AND DUP2 EQ PUSH2 0x1E4 JUMPI PUSH0 PUSH0 REVERT JUMPDEST SWAP2 SWAP1 POP JUMP JUMPDEST PUSH0 PUSH0 PUSH0 PUSH0 PUSH1 0x80 DUP6 DUP8 SUB SLT ISZERO PUSH2 0x1FC JUMPI PUSH0 PUSH0 REVERT JUMPDEST PUSH2 0x205 DUP6 PUSH2 0x1CE JUMP JUMPDEST SWAP4 POP PUSH2 0x213 PUSH1 0x20 DUP7 ADD PUSH2 0x1CE JUMP JUMPDEST SWAP3 POP PUSH2 0x221 PUSH1 0x40 DUP7 ADD PUSH2 0x1CE JUMP JUMPDEST PUSH1 0x60 SWAP6 SWAP1 SWAP6 ADD MLOAD SWAP4 SWAP7 SWAP3 SWAP6 POP POP POP JUMP JUMPDEST PUSH0 DUP3 PUSH2 0x24B JUMPI PUSH4 0x4E487B71 PUSH1 0xE0 SHL PUSH0 MSTORE PUSH1 0x12 PUSH1 0x4 MSTORE PUSH1 0x24 PUSH0 REVERT JUMPDEST POP MOD SWAP1 JUMP JUMPDEST PUSH4 0x4E487B71 PUSH1 0xE0 SHL PUSH0 MSTORE PUSH1 0x32 PUSH1 0x4 MSTORE PUSH1 0x24 PUSH0 REVERT JUMPDEST PUSH0 PUSH1 0x20 DUP3 DUP5 SUB SLT ISZERO PUSH2 0x274 JUMPI PUSH0 PUSH0 REVERT JUMPDEST POP MLOAD SWAP2 SWAP1 POP JUMP JUMPDEST PUSH1 0x80 MLOAD PUSH1 0xA0 MLOAD PUSH1 0xC0 MLOAD PUSH1 0xE0 MLOAD PUSH2 0x15D0 PUSH2 0x310 PUSH0 CODECOPY PUSH0 DUP2 DUP2 PUSH2 0x381 ADD MSTORE DUP2 DUP2 PUSH2 0x8EE ADD MSTORE DUP2 DUP2 PUSH2 0xAA0 ADD MSTORE DUP2 DUP2 PUSH2 0xC1E ADD MSTORE DUP2 DUP2 PUSH2 0xC97 ADD MSTORE DUP2 DUP2 PUSH2 0xD0B ADD MSTORE DUP2 DUP2 PUSH2 0xDA4 ADD MSTORE PUSH2 0xECE ADD MSTORE PUSH0 DUP2 DUP2 PUSH2 0x249 ADD MSTORE PUSH2 0xDD8 ADD MSTORE PUSH0 DUP2 DUP2 PUSH2 0x5BF ADD MSTORE DUP2 DUP2 PUSH2 0x8CD ADD MSTORE DUP2 DUP2 PUSH2 0xA7C ADD MSTORE DUP2 DUP2 PUSH2 0xC76 ADD MSTORE DUP2 DUP2 PUSH2 0xF01 ADD MSTORE PUSH2 0xF51 ADD MSTORE PUSH0 DUP2 DUP2 PUSH2 0x52A ADD MSTORE PUSH2 0x117F ADD MSTORE PUSH2 0x15D0 PUSH0 RETURN INVALID PUSH1 0x80 PUSH1 0x40 MSTORE CALLVALUE DUP1 ISZERO PUSH2 0xF JUMPI PUSH0 PUSH0 REVERT JUMPDEST POP PUSH1 0x4 CALLDATASIZE LT PUSH2 0x1D1 JUMPI PUSH0 CALLDATALOAD PUSH1 0xE0 SHR DUP1 PUSH4 0x9F81AED7 GT PUSH2 0xFE JUMPI DUP1 PUSH4 0xE11D84E2 GT PUSH2 0x9E JUMPI DUP1 PUSH4 0xF1650536 GT PUSH2 0x6E JUMPI DUP1 PUSH4 0xF1650536 EQ PUSH2 0x54C JUMPI DUP1 PUSH4 0xF178E47C EQ PUSH2 0x554 JUMPI DUP1 PUSH4 0xF499C196 EQ PUSH2 0x573 JUMPI DUP1 PUSH4 0xFC0C546A EQ PUSH2 0x5BA JUMPI PUSH0 PUSH0 REVERT JUMPDEST DUP1 PUSH4 0xE11D84E2 EQ PUSH2 0x4DD JUMPI DUP1 PUSH4 0xE5285DCC EQ PUSH2 0x4F0 JUMPI DUP1 PUSH4 0xE8295588 EQ PUSH2 0x512 JUMPI DUP1 PUSH4 0xED33639F EQ PUSH2 0x525 JUMPI PUSH0 PUSH0 REVERT JUMPDEST DUP1 PUSH4 0xB7F06EBE GT PUSH2 0xD9 JUMPI DUP1 PUSH4 0xB7F06EBE EQ PUSH2 0x3DB JUMPI DUP1 PUSH4 0xC2B40AE4 EQ PUSH2 0x46B JUMPI DUP1 PUSH4 0xCD87A3B4 EQ PUSH2 0x47E JUMPI DUP1 PUSH4 0xD0FE00DB EQ PUSH2 0x486 JUMPI PUSH0 PUSH0 REVERT JUMPDEST DUP1 PUSH4 0x9F81AED7 EQ PUSH2 0x3AC JUMPI DUP1 PUSH4 0xA151918A EQ PUSH2 0x3B5 JUMPI DUP1 PUSH4 0xB214FAA5 EQ PUSH2 0x3C8 JUMPI PUSH0 PUSH0 REVERT JUMPDEST DUP1 PUSH4 0x5E35D480 GT PUSH2 0x174 JUMPI DUP1 PUSH4 0x6D9833E3 GT PUSH2 0x144 JUMPI DUP1 PUSH4 0x6D9833E3 EQ PUSH2 0x347 JUMPI DUP1 PUSH4 0x839DF945 EQ PUSH2 0x35A JUMPI DUP1 PUSH4 0x8BCA6D16 EQ PUSH2 0x37C JUMPI DUP1 PUSH4 0x90EEB02B EQ PUSH2 0x3A3 JUMPI PUSH0 PUSH0 REVERT JUMPDEST DUP1 PUSH4 0x5E35D480 EQ PUSH2 0x2BC JUMPI DUP1 PUSH4 0x5F18F590 EQ PUSH2 0x2D1 JUMPI DUP1 PUSH4 0x60246C88 EQ PUSH2 0x30C JUMPI DUP1 PUSH4 0x6C28FA75 EQ PUSH2 0x33E JUMPI PUSH0 PUSH0 REVERT JUMPDEST DUP1 PUSH4 0x2B7AC3F3 GT PUSH2 0x1AF JUMPI DUP1 PUSH4 0x2B7AC3F3 EQ PUSH2 0x244 JUMPI DUP1 PUSH4 0x4125FF90 EQ PUSH2 0x283 JUMPI DUP1 PUSH4 0x414A37BA EQ PUSH2 0x28D JUMPI DUP1 PUSH4 0x5445B007 EQ PUSH2 0x2B4 JUMPI PUSH0 PUSH0 REVERT JUMPDEST DUP1 PUSH4 0xBE4F422 EQ PUSH2 0x1D5 JUMPI DUP1 PUSH4 0x17CC915C EQ PUSH2 0x1F0 JUMPI DUP1 PUSH4 0x230DDD90 EQ PUSH2 0x222 JUMPI JUMPDEST PUSH0 PUSH0 REVERT JUMPDEST PUSH2 0x1DD PUSH0 SLOAD DUP2 JUMP JUMPDEST PUSH1 0x40 MLOAD SWAP1 DUP2 MSTORE PUSH1 0x20 ADD JUMPDEST PUSH1 0x40 MLOAD DUP1 SWAP2 SUB SWAP1 RETURN JUMPDEST PUSH2 0x212 PUSH2 0x1FE CALLDATASIZE PUSH1 0x4 PUSH2 0x1269 JUMP JUMPDEST PUSH1 0x36 PUSH1 0x20 MSTORE PUSH0 SWAP1 DUP2 MSTORE PUSH1 0x40 SWAP1 KECCAK256 SLOAD PUSH1 0xFF AND DUP2 JUMP JUMPDEST PUSH1 0x40 MLOAD SWAP1 ISZERO ISZERO DUP2 MSTORE PUSH1 0x20 ADD PUSH2 0x1E7 JUMP JUMPDEST PUSH2 0x212 PUSH2 0x230 CALLDATASIZE PUSH1 0x4 PUSH2 0x1269 JUMP JUMPDEST PUSH0 SWAP1 DUP2 MSTORE PUSH1 0x37 PUSH1 0x20 MSTORE PUSH1 0x40 SWAP1 KECCAK256 SLOAD PUSH1 0xFF AND SWAP1 JUMP JUMPDEST PUSH2 0x26B PUSH32 0x0 DUP2 JUMP JUMPDEST PUSH1 0x40 MLOAD PUSH1 0x1 PUSH1 0x1 PUSH1 0xA0 SHL SUB SWAP1 SWAP2 AND DUP2 MSTORE PUSH1 0x20 ADD PUSH2 0x1E7 JUMP JUMPDEST PUSH2 0x1DD PUSH3 0x93A80 DUP2 JUMP JUMPDEST PUSH2 0x1DD PUSH32 0x30644E72E131A029B85045B68181585D2833E84879B9709143E1F593F0000001 DUP2 JUMP JUMPDEST PUSH2 0x1DD PUSH2 0x5E1 JUMP JUMPDEST PUSH2 0x2CF PUSH2 0x2CA CALLDATASIZE PUSH1 0x4 PUSH2 0x12AC JUMP JUMPDEST PUSH2 0x5FE JUMP JUMPDEST STOP JUMPDEST PUSH2 0x2E4 PUSH2 0x2DF CALLDATASIZE PUSH1 0x4 PUSH2 0x1269 JUMP JUMPDEST PUSH2 0x852 JUMP JUMPDEST PUSH1 0x40 DUP1 MLOAD SWAP5 DUP6 MSTORE PUSH1 0x20 DUP6 ADD SWAP4 SWAP1 SWAP4 MSTORE SWAP1 ISZERO ISZERO SWAP2 DUP4 ADD SWAP2 SWAP1 SWAP2 MSTORE ISZERO ISZERO PUSH1 0x60 DUP3 ADD MSTORE PUSH1 0x80 ADD PUSH2 0x1E7 JUMP JUMPDEST PUSH2 0x314 PUSH2 0x8C7 JUMP JUMPDEST PUSH1 0x40 DUP1 MLOAD PUSH1 0x1 PUSH1 0x1 PUSH1 0xA0 SHL SUB SWAP1 SWAP6 AND DUP6 MSTORE PUSH1 0x20 DUP6 ADD SWAP4 SWAP1 SWAP4 MSTORE SWAP2 DUP4 ADD MSTORE PUSH1 0x60 DUP3 ADD MSTORE PUSH1 0x80 ADD PUSH2 0x1E7 JUMP JUMPDEST PUSH2 0x1DD PUSH1 0x39 SLOAD DUP2 JUMP JUMPDEST PUSH2 0x212 PUSH2 0x355 CALLDATASIZE PUSH1 0x4 PUSH2 0x1269 JUMP JUMPDEST PUSH2 0x925 JUMP JUMPDEST PUSH2 0x212 PUSH2 0x368 CALLDATASIZE PUSH1 0x4 PUSH2 0x1269 JUMP JUMPDEST PUSH1 0x37 PUSH1 0x20 MSTORE PUSH0 SWAP1 DUP2 MSTORE PUSH1 0x40 SWAP1 KECCAK256 SLOAD PUSH1 0xFF AND DUP2 JUMP JUMPDEST PUSH2 0x1DD PUSH32 0x0 DUP2 JUMP JUMPDEST PUSH2 0x1DD PUSH1 0x20 SLOAD DUP2 JUMP JUMPDEST PUSH2 0x1DD PUSH2 0xE10 DUP2 JUMP JUMPDEST PUSH2 0x2CF PUSH2 0x3C3 CALLDATASIZE PUSH1 0x4 PUSH2 0x131A JUMP JUMPDEST PUSH2 0x993 JUMP JUMPDEST PUSH2 0x2CF PUSH2 0x3D6 CALLDATASIZE PUSH1 0x4 PUSH2 0x1269 JUMP JUMPDEST PUSH2 0xA14 JUMP JUMPDEST PUSH2 0x42F PUSH2 0x3E9 CALLDATASIZE PUSH1 0x4 PUSH2 0x1269 JUMP JUMPDEST PUSH1 0x38 PUSH1 0x20 MSTORE PUSH0 SWAP1 DUP2 MSTORE PUSH1 0x40 SWAP1 KECCAK256 DUP1 SLOAD PUSH1 0x1 DUP3 ADD SLOAD PUSH1 0x2 DUP4 ADD SLOAD PUSH1 0x3 DUP5 ADD SLOAD PUSH1 0x4 SWAP1 SWAP5 ADD SLOAD PUSH1 0x1 PUSH1 0x1 PUSH1 0xA0 SHL SUB SWAP4 DUP5 AND SWAP5 SWAP4 SWAP1 SWAP3 AND SWAP3 SWAP1 SWAP2 PUSH1 0xFF DUP1 DUP3 AND SWAP2 PUSH2 0x100 SWAP1 DIV AND DUP7 JUMP JUMPDEST PUSH1 0x40 DUP1 MLOAD PUSH1 0x1 PUSH1 0x1 PUSH1 0xA0 SHL SUB SWAP8 DUP9 AND DUP2 MSTORE SWAP7 SWAP1 SWAP6 AND PUSH1 0x20 DUP8 ADD MSTORE SWAP4 DUP6 ADD SWAP3 SWAP1 SWAP3 MSTORE PUSH1 0x60 DUP5 ADD MSTORE ISZERO ISZERO PUSH1 0x80 DUP4 ADD MSTORE ISZERO ISZERO PUSH1 0xA0 DUP3 ADD MSTORE PUSH1 0xC0 ADD PUSH2 0x1E7 JUMP JUMPDEST PUSH2 0x1DD PUSH2 0x479 CALLDATASIZE PUSH1 0x4 PUSH2 0x1269 JUMP JUMPDEST PUSH2 0xB0D JUMP JUMPDEST PUSH2 0x1DD PUSH1 0x1E DUP2 JUMP JUMPDEST PUSH2 0x42F PUSH2 0x494 CALLDATASIZE PUSH1 0x4 PUSH2 0x1269 JUMP JUMPDEST PUSH0 SWAP1 DUP2 MSTORE PUSH1 0x38 PUSH1 0x20 MSTORE PUSH1 0x40 SWAP1 KECCAK256 DUP1 SLOAD PUSH1 0x1 DUP3 ADD SLOAD PUSH1 0x2 DUP4 ADD SLOAD PUSH1 0x3 DUP5 ADD SLOAD PUSH1 0x4 SWAP1 SWAP5 ADD SLOAD PUSH1 0x1 PUSH1 0x1 PUSH1 0xA0 SHL SUB SWAP4 DUP5 AND SWAP6 SWAP4 SWAP1 SWAP3 AND SWAP4 SWAP1 SWAP3 SWAP1 SWAP2 PUSH1 0xFF DUP1 DUP3 AND SWAP3 PUSH2 0x100 SWAP1 SWAP3 DIV AND SWAP1 JUMP JUMPDEST PUSH2 0x2CF PUSH2 0x4EB CALLDATASIZE PUSH1 0x4 PUSH2 0x1269 JUMP JUMPDEST PUSH2 0xB23 JUMP JUMPDEST PUSH2 0x212 PUSH2 0x4FE CALLDATASIZE PUSH1 0x4 PUSH2 0x1269 JUMP JUMPDEST PUSH0 SWAP1 DUP2 MSTORE PUSH1 0x36 PUSH1 0x20 MSTORE PUSH1 0x40 SWAP1 KECCAK256 SLOAD PUSH1 0xFF AND SWAP1 JUMP JUMPDEST PUSH2 0x1DD PUSH2 0x520 CALLDATASIZE PUSH1 0x4 PUSH2 0x1269 JUMP JUMPDEST PUSH2 0xC5E JUMP JUMPDEST PUSH2 0x26B PUSH32 0x0 DUP2 JUMP JUMPDEST PUSH2 0x1DD PUSH1 0x14 DUP2 JUMP JUMPDEST PUSH2 0x1DD PUSH2 0x562 CALLDATASIZE PUSH1 0x4 PUSH2 0x1269 JUMP JUMPDEST PUSH1 0x1 PUSH1 0x20 MSTORE PUSH0 SWAP1 DUP2 MSTORE PUSH1 0x40 SWAP1 KECCAK256 SLOAD DUP2 JUMP JUMPDEST PUSH2 0x57B PUSH2 0xC6D JUMP JUMPDEST PUSH1 0x40 DUP1 MLOAD PUSH1 0x1 PUSH1 0x1 PUSH1 0xA0 SHL SUB SWAP1 SWAP9 AND DUP9 MSTORE PUSH1 0x20 DUP9 ADD SWAP7 SWAP1 SWAP7 MSTORE SWAP5 DUP7 ADD SWAP4 SWAP1 SWAP4 MSTORE PUSH1 0x60 DUP6 ADD SWAP2 SWAP1 SWAP2 MSTORE PUSH1 0x80 DUP5 ADD MSTORE PUSH1 0xA0 DUP4 ADD MSTORE PUSH1 0xC0 DUP3 ADD MSTORE PUSH1 0xE0 ADD PUSH2 0x1E7 JUMP JUMPDEST PUSH2 0x26B PUSH32 0x0 DUP2 JUMP JUMPDEST PUSH0 PUSH1 0x2 PUSH1 0x20 SLOAD PUSH1 0x1E DUP2 LT PUSH2 0x5F7 JUMPI PUSH2 0x5F7 PUSH2 0x137E JUMP JUMPDEST ADD SLOAD SWAP1 POP SWAP1 JUMP JUMPDEST PUSH2 0x606 PUSH2 0xCDF JUMP JUMPDEST PUSH2 0xE10 DUP2 LT DUP1 PUSH2 0x618 JUMPI POP PUSH3 0x93A80 DUP2 GT JUMPDEST ISZERO PUSH2 0x636 JUMPI PUSH1 0x40 MLOAD PUSH4 0x27DF2EDD PUSH1 0xE1 SHL DUP2 MSTORE PUSH1 0x4 ADD PUSH1 0x40 MLOAD DUP1 SWAP2 SUB SWAP1 REVERT JUMPDEST PUSH0 DUP6 DUP2 MSTORE PUSH1 0x38 PUSH1 0x20 MSTORE PUSH1 0x40 SWAP1 KECCAK256 PUSH1 0x4 ADD SLOAD PUSH2 0x100 SWAP1 DIV PUSH1 0xFF AND ISZERO PUSH2 0x66D JUMPI PUSH1 0x40 MLOAD PUSH4 0x246AD63B PUSH1 0xE0 SHL DUP2 MSTORE PUSH1 0x4 ADD PUSH1 0x40 MLOAD DUP1 SWAP2 SUB SWAP1 REVERT JUMPDEST PUSH2 0x67B DUP8 DUP8 DUP8 DUP8 DUP8 DUP8 PUSH2 0xD09 JUMP JUMPDEST PUSH0 DUP6 DUP2 MSTORE PUSH1 0x36 PUSH1 0x20 MSTORE PUSH1 0x40 SWAP1 KECCAK256 SLOAD PUSH1 0xFF AND ISZERO PUSH2 0x6AA JUMPI PUSH1 0x40 MLOAD PUSH4 0xB115D857 PUSH1 0xE0 SHL DUP2 MSTORE PUSH1 0x4 ADD PUSH1 0x40 MLOAD DUP1 SWAP2 SUB SWAP1 REVERT JUMPDEST PUSH0 PUSH2 0x6B5 DUP3 TIMESTAMP PUSH2 0x13A6 JUMP JUMPDEST SWAP1 POP PUSH1 0x40 MLOAD DUP1 PUSH1 0xC0 ADD PUSH1 0x40 MSTORE DUP1 DUP7 PUSH1 0x1 PUSH1 0x1 PUSH1 0xA0 SHL SUB AND DUP2 MSTORE PUSH1 0x20 ADD DUP6 PUSH1 0x1 PUSH1 0x1 PUSH1 0xA0 SHL SUB AND DUP2 MSTORE PUSH1 0x20 ADD DUP5 DUP2 MSTORE PUSH1 0x20 ADD DUP3 DUP2 MSTORE PUSH1 0x20 ADD PUSH0 ISZERO ISZERO DUP2 MSTORE PUSH1 0x20 ADD PUSH1 0x1 ISZERO ISZERO DUP2 MSTORE POP PUSH1 0x38 PUSH0 DUP9 DUP2 MSTORE PUSH1 0x20 ADD SWAP1 DUP2 MSTORE PUSH1 0x20 ADD PUSH0 KECCAK256 PUSH0 DUP3 ADD MLOAD DUP2 PUSH0 ADD PUSH0 PUSH2 0x100 EXP DUP2 SLOAD DUP2 PUSH1 0x1 PUSH1 0x1 PUSH1 0xA0 SHL SUB MUL NOT AND SWAP1 DUP4 PUSH1 0x1 PUSH1 0x1 PUSH1 0xA0 SHL SUB AND MUL OR SWAP1 SSTORE POP PUSH1 0x20 DUP3 ADD MLOAD DUP2 PUSH1 0x1 ADD PUSH0 PUSH2 0x100 EXP DUP2 SLOAD DUP2 PUSH1 0x1 PUSH1 0x1 PUSH1 0xA0 SHL SUB MUL NOT AND SWAP1 DUP4 PUSH1 0x1 PUSH1 0x1 PUSH1 0xA0 SHL SUB AND MUL OR SWAP1 SSTORE POP PUSH1 0x40 DUP3 ADD MLOAD DUP2 PUSH1 0x2 ADD SSTORE PUSH1 0x60 DUP3 ADD MLOAD DUP2 PUSH1 0x3 ADD SSTORE PUSH1 0x80 DUP3 ADD MLOAD DUP2 PUSH1 0x4 ADD PUSH0 PUSH2 0x100 EXP DUP2 SLOAD DUP2 PUSH1 0xFF MUL NOT AND SWAP1 DUP4 ISZERO ISZERO MUL OR SWAP1 SSTORE POP PUSH1 0xA0 DUP3 ADD MLOAD DUP2 PUSH1 0x4 ADD PUSH1 0x1 PUSH2 0x100 EXP DUP2 SLOAD DUP2 PUSH1 0xFF MUL NOT AND SWAP1 DUP4 ISZERO ISZERO MUL OR SWAP1 SSTORE POP SWAP1 POP POP PUSH1 0x1 PUSH1 0x36 PUSH0 DUP9 DUP2 MSTORE PUSH1 0x20 ADD SWAP1 DUP2 MSTORE PUSH1 0x20 ADD PUSH0 KECCAK256 PUSH0 PUSH2 0x100 EXP DUP2 SLOAD DUP2 PUSH1 0xFF MUL NOT AND SWAP1 DUP4 ISZERO ISZERO MUL OR SWAP1 SSTORE POP PUSH1 0x39 PUSH0 DUP2 SLOAD DUP1 SWAP3 SWAP2 SWAP1 PUSH2 0x7F3 SWAP1 PUSH2 0x13B9 JUMP JUMPDEST SWAP1 SWAP2 SSTORE POP POP PUSH1 0x40 DUP1 MLOAD DUP3 DUP2 MSTORE PUSH1 0x20 DUP2 ADD DUP5 SWAP1 MSTORE PUSH1 0x1 PUSH1 0x1 PUSH1 0xA0 SHL SUB DUP8 AND SWAP2 DUP9 SWAP2 PUSH32 0x3B423FBFEE76039F99F543E0AFF845BC6FCF27114930F0EE213CA425AD2AB754 SWAP2 ADD PUSH1 0x40 MLOAD DUP1 SWAP2 SUB SWAP1 LOG3 POP PUSH2 0x849 PUSH1 0x1 PUSH1 0x35 SSTORE JUMP JUMPDEST POP POP POP POP POP POP POP JUMP JUMPDEST PUSH0 DUP2 DUP2 MSTORE PUSH1 0x38 PUSH1 0x20 MSTORE PUSH1 0x40 DUP2 KECCAK256 PUSH1 0x4 DUP2 ADD SLOAD DUP3 SWAP2 DUP3 SWAP2 DUP3 SWAP2 SWAP1 PUSH2 0x100 SWAP1 DIV PUSH1 0xFF AND PUSH2 0x889 JUMPI PUSH0 PUSH0 PUSH0 PUSH0 SWAP5 POP SWAP5 POP SWAP5 POP SWAP5 POP POP PUSH2 0x8C0 JUMP JUMPDEST PUSH1 0x3 DUP2 ADD SLOAD PUSH1 0x4 DUP3 ADD SLOAD SWAP1 SWAP5 POP PUSH1 0xFF AND SWAP2 POP TIMESTAMP DUP5 GT PUSH2 0x8AE JUMPI PUSH0 SWAP5 POP DUP2 ISZERO SWAP3 POP PUSH2 0x8BE JUMP JUMPDEST PUSH2 0x8B8 TIMESTAMP DUP6 PUSH2 0x13D1 JUMP JUMPDEST SWAP5 POP PUSH0 SWAP3 POP JUMPDEST POP JUMPDEST SWAP2 SWAP4 POP SWAP2 SWAP4 JUMP JUMPDEST PUSH0 PUSH0 PUSH0 PUSH0 PUSH32 0x0 PUSH32 0x0 PUSH0 SLOAD PUSH2 0x917 PUSH2 0x5E1 JUMP JUMPDEST SWAP4 POP SWAP4 POP SWAP4 POP SWAP4 POP SWAP1 SWAP2 SWAP3 SWAP4 JUMP JUMPDEST PUSH0 DUP2 PUSH2 0x932 JUMPI POP PUSH0 SWAP2 SWAP1 POP JUMP JUMPDEST PUSH1 0x20 SLOAD JUMPDEST PUSH1 0x2 DUP2 PUSH1 0x1E DUP2 LT PUSH2 0x949 JUMPI PUSH2 0x949 PUSH2 0x137E JUMP JUMPDEST ADD SLOAD DUP4 SUB PUSH2 0x95A JUMPI POP PUSH1 0x1 SWAP3 SWAP2 POP POP JUMP JUMPDEST DUP1 PUSH0 SUB PUSH2 0x974 JUMPI PUSH2 0x96D PUSH1 0x1 PUSH1 0x1E PUSH2 0x13D1 JUMP JUMPDEST SWAP1 POP PUSH2 0x982 JUMP JUMPDEST DUP1 PUSH2 0x97E DUP2 PUSH2 0x13E4 JUMP JUMPDEST SWAP2 POP POP JUMPDEST PUSH1 0x20 SLOAD DUP2 SUB PUSH2 0x936 JUMPI POP PUSH0 SWAP3 SWAP2 POP POP JUMP JUMPDEST PUSH2 0x99B PUSH2 0xCDF JUMP JUMPDEST PUSH2 0x9A9 DUP7 DUP7 DUP7 DUP7 DUP7 DUP7 PUSH2 0xE6B JUMP JUMPDEST PUSH2 0x9B4 DUP4 DUP4 DUP4 PUSH2 0xEC7 JUMP JUMPDEST DUP2 PUSH1 0x1 PUSH1 0x1 PUSH1 0xA0 SHL SUB AND DUP5 DUP5 PUSH1 0x1 PUSH1 0x1 PUSH1 0xA0 SHL SUB AND PUSH32 0xE9E508BAD6D4C3227E881CA19068F099DA81B5164DD6D62B2EAF1E8BC6C34931 DUP5 PUSH1 0x40 MLOAD PUSH2 0x9FA SWAP2 DUP2 MSTORE PUSH1 0x20 ADD SWAP1 JUMP JUMPDEST PUSH1 0x40 MLOAD DUP1 SWAP2 SUB SWAP1 LOG4 PUSH2 0xA0C PUSH1 0x1 PUSH1 0x35 SSTORE JUMP JUMPDEST POP POP POP POP POP POP JUMP JUMPDEST PUSH2 0xA1C PUSH2 0xCDF JUMP JUMPDEST PUSH0 DUP2 DUP2 MSTORE PUSH1 0x37 PUSH1 0x20 MSTORE PUSH1 0x40 SWAP1 KECCAK256 SLOAD PUSH1 0xFF AND ISZERO PUSH2 0xA4B JUMPI PUSH1 0x40 MLOAD PUSH4 0x145718A7 PUSH1 0xE0 SHL DUP2 MSTORE PUSH1 0x4 ADD PUSH1 0x40 MLOAD DUP1 SWAP2 SUB SWAP1 REVERT JUMPDEST PUSH0 PUSH2 0xA55 DUP3 PUSH2 0xF7E JUMP JUMPDEST PUSH0 DUP4 DUP2 MSTORE PUSH1 0x37 PUSH1 0x20 MSTORE PUSH1 0x40 SWAP1 KECCAK256 DUP1 SLOAD PUSH1 0xFF NOT AND PUSH1 0x1 OR SWAP1 SSTORE SWAP1 POP PUSH2 0xAC4 PUSH1 0x1 PUSH1 0x1 PUSH1 0xA0 SHL SUB PUSH32 0x0 AND CALLER ADDRESS PUSH32 0x0 PUSH2 0x10C3 JUMP JUMPDEST DUP1 DUP3 PUSH32 0xE1F1096FD8BC7D572FB7AD7E4102736B6615500975C0252EA91EF1B765C49897 TIMESTAMP PUSH1 0x40 MLOAD PUSH2 0xAF7 SWAP2 DUP2 MSTORE PUSH1 0x20 ADD SWAP1 JUMP JUMPDEST PUSH1 0x40 MLOAD DUP1 SWAP2 SUB SWAP1 LOG3 POP PUSH2 0xB0A PUSH1 0x1 PUSH1 0x35 SSTORE JUMP JUMPDEST POP JUMP JUMPDEST PUSH1 0x2 DUP2 PUSH1 0x1E DUP2 LT PUSH2 0xB1C JUMPI PUSH0 DUP1 REVERT JUMPDEST ADD SLOAD SWAP1 POP DUP2 JUMP JUMPDEST PUSH2 0xB2B PUSH2 0xCDF JUMP JUMPDEST PUSH0 DUP2 DUP2 MSTORE PUSH1 0x38 PUSH1 0x20 MSTORE PUSH1 0x40 SWAP1 KECCAK256 PUSH1 0x4 DUP2 ADD SLOAD PUSH2 0x100 SWAP1 DIV PUSH1 0xFF AND PUSH2 0xB62 JUMPI PUSH1 0x40 MLOAD PUSH4 0x8D0FC1DD PUSH1 0xE0 SHL DUP2 MSTORE PUSH1 0x4 ADD PUSH1 0x40 MLOAD DUP1 SWAP2 SUB SWAP1 REVERT JUMPDEST PUSH1 0x4 DUP2 ADD SLOAD PUSH1 0xFF AND ISZERO PUSH2 0xB88 JUMPI PUSH1 0x40 MLOAD PUSH4 0x2569702D PUSH1 0xE2 SHL DUP2 MSTORE PUSH1 0x4 ADD PUSH1 0x40 MLOAD DUP1 SWAP2 SUB SWAP1 REVERT JUMPDEST DUP1 PUSH1 0x3 ADD SLOAD TIMESTAMP LT ISZERO PUSH2 0xBAD JUMPI PUSH1 0x40 MLOAD PUSH4 0xF2CA6E7 PUSH1 0xE0 SHL DUP2 MSTORE PUSH1 0x4 ADD PUSH1 0x40 MLOAD DUP1 SWAP2 SUB SWAP1 REVERT JUMPDEST PUSH1 0x4 DUP2 ADD DUP1 SLOAD PUSH1 0xFF NOT AND PUSH1 0x1 SWAP1 DUP2 OR SWAP1 SWAP2 SSTORE DUP2 SLOAD SWAP1 DUP3 ADD SLOAD PUSH1 0x2 DUP4 ADD SLOAD PUSH2 0xBE1 SWAP3 PUSH1 0x1 PUSH1 0x1 PUSH1 0xA0 SHL SUB SWAP1 DUP2 AND SWAP3 AND SWAP1 PUSH2 0xEC7 JUMP JUMPDEST DUP1 SLOAD PUSH1 0x2 DUP3 ADD SLOAD CALLER SWAP2 PUSH1 0x1 PUSH1 0x1 PUSH1 0xA0 SHL SUB AND SWAP1 DUP5 SWAP1 PUSH32 0xEDBB1D2A668DC012E1F90419B492C1CDD90C45E48AFAA766E9BEFC71E992D70C SWAP1 PUSH2 0xC42 SWAP1 PUSH32 0x0 PUSH2 0x13D1 JUMP JUMPDEST PUSH1 0x40 MLOAD SWAP1 DUP2 MSTORE PUSH1 0x20 ADD PUSH1 0x40 MLOAD DUP1 SWAP2 SUB SWAP1 LOG4 POP PUSH2 0xB0A PUSH1 0x1 PUSH1 0x35 SSTORE JUMP JUMPDEST PUSH1 0x21 DUP2 PUSH1 0x14 DUP2 LT PUSH2 0xB1C JUMPI PUSH0 DUP1 REVERT JUMPDEST PUSH0 PUSH0 PUSH0 PUSH0 PUSH0 PUSH0 PUSH0 PUSH32 0x0 PUSH32 0x0 PUSH0 SLOAD PUSH1 0x39 SLOAD PUSH2 0xCC3 PUSH2 0x5E1 JUMP JUMPDEST SWAP4 SWAP12 SWAP3 SWAP11 POP SWAP1 SWAP9 POP SWAP7 POP SWAP1 SWAP5 POP PUSH2 0xE10 SWAP4 POP PUSH3 0x93A80 SWAP3 POP SWAP1 POP JUMP JUMPDEST PUSH1 0x2 PUSH1 0x35 SLOAD SUB PUSH2 0xD02 JUMPI PUSH1 0x40 MLOAD PUSH4 0x3EE5AEB5 PUSH1 0xE0 SHL DUP2 MSTORE PUSH1 0x4 ADD PUSH1 0x40 MLOAD DUP1 SWAP2 SUB SWAP1 REVERT JUMPDEST PUSH1 0x2 PUSH1 0x35 SSTORE JUMP JUMPDEST PUSH32 0x0 DUP2 GT ISZERO PUSH2 0xD4A JUMPI PUSH1 0x40 MLOAD PUSH4 0x58D620B3 PUSH1 0xE0 SHL DUP2 MSTORE PUSH1 0x4 ADD PUSH1 0x40 MLOAD DUP1 SWAP2 SUB SWAP1 REVERT JUMPDEST PUSH2 0xD53 DUP6 PUSH2 0x925 JUMP JUMPDEST PUSH2 0xD70 JUMPI PUSH1 0x40 MLOAD PUSH4 0x9DD854D3 PUSH1 0xE0 SHL DUP2 MSTORE PUSH1 0x4 ADD PUSH1 0x40 MLOAD DUP1 SWAP2 SUB SWAP1 REVERT JUMPDEST PUSH1 0x40 DUP1 MLOAD PUSH1 0xC0 DUP2 ADD DUP3 MSTORE DUP7 DUP2 MSTORE PUSH1 0x20 DUP2 ADD DUP7 SWAP1 MSTORE PUSH1 0x1 PUSH1 0x1 PUSH1 0xA0 SHL SUB DUP1 DUP7 AND DUP3 DUP5 ADD MSTORE DUP5 DUP2 AND PUSH1 0x60 DUP4 ADD MSTORE PUSH1 0x80 DUP3 ADD DUP5 SWAP1 MSTORE PUSH32 0x0 PUSH1 0xA0 DUP4 ADD MSTORE SWAP2 MLOAD PUSH4 0x139650CB PUSH1 0xE3 SHL DUP2 MSTORE SWAP1 SWAP2 PUSH32 0x0 AND SWAP1 PUSH4 0x9CB28658 SWAP1 PUSH2 0xE0F SWAP1 DUP11 SWAP1 DUP6 SWAP1 PUSH1 0x4 ADD PUSH2 0x13F9 JUMP JUMPDEST PUSH1 0x20 PUSH1 0x40 MLOAD DUP1 DUP4 SUB DUP2 DUP7 GAS STATICCALL ISZERO DUP1 ISZERO PUSH2 0xE2A JUMPI RETURNDATASIZE PUSH0 PUSH0 RETURNDATACOPY RETURNDATASIZE PUSH0 REVERT JUMPDEST POP POP POP POP PUSH1 0x40 MLOAD RETURNDATASIZE PUSH1 0x1F NOT PUSH1 0x1F DUP3 ADD AND DUP3 ADD DUP1 PUSH1 0x40 MSTORE POP DUP2 ADD SWAP1 PUSH2 0xE4E SWAP2 SWAP1 PUSH2 0x1435 JUMP JUMPDEST PUSH2 0x849 JUMPI PUSH1 0x40 MLOAD PUSH4 0x9BDE339 PUSH1 0xE0 SHL DUP2 MSTORE PUSH1 0x4 ADD PUSH1 0x40 MLOAD DUP1 SWAP2 SUB SWAP1 REVERT JUMPDEST PUSH0 DUP5 DUP2 MSTORE PUSH1 0x36 PUSH1 0x20 MSTORE PUSH1 0x40 SWAP1 KECCAK256 SLOAD PUSH1 0xFF AND ISZERO PUSH2 0xE9A JUMPI PUSH1 0x40 MLOAD PUSH4 0xB115D857 PUSH1 0xE0 SHL DUP2 MSTORE PUSH1 0x4 ADD PUSH1 0x40 MLOAD DUP1 SWAP2 SUB SWAP1 REVERT JUMPDEST PUSH2 0xEA8 DUP7 DUP7 DUP7 DUP7 DUP7 DUP7 PUSH2 0xD09 JUMP JUMPDEST POP POP POP PUSH0 SWAP1 DUP2 MSTORE PUSH1 0x36 PUSH1 0x20 MSTORE PUSH1 0x40 SWAP1 KECCAK256 DUP1 SLOAD PUSH1 0xFF NOT AND PUSH1 0x1 OR SWAP1 SSTORE POP POP JUMP JUMPDEST PUSH0 PUSH2 0xEF2 DUP3 PUSH32 0x0 PUSH2 0x13D1 JUMP JUMPDEST SWAP1 POP PUSH2 0xF28 PUSH1 0x1 PUSH1 0x1 PUSH1 0xA0 SHL SUB PUSH32 0x0 AND DUP6 DUP4 PUSH2 0x112A JUMP JUMPDEST PUSH0 DUP3 GT DUP1 ISZERO PUSH2 0xF3F JUMPI POP PUSH1 0x1 PUSH1 0x1 PUSH1 0xA0 SHL SUB DUP4 AND ISZERO ISZERO JUMPDEST ISZERO PUSH2 0xF78 JUMPI PUSH2 0xF78 PUSH1 0x1 PUSH1 0x1 PUSH1 0xA0 SHL SUB PUSH32 0x0 AND DUP5 DUP5 PUSH2 0x112A JUMP JUMPDEST POP POP POP POP JUMP JUMPDEST PUSH0 DUP1 SLOAD PUSH2 0xF8D PUSH1 0x14 PUSH1 0x2 PUSH2 0x153E JUMP JUMPDEST DUP2 LT PUSH2 0xFAC JUMPI PUSH1 0x40 MLOAD PUSH4 0x77AE67B3 PUSH1 0xE1 SHL DUP2 MSTORE PUSH1 0x4 ADD PUSH1 0x40 MLOAD DUP1 SWAP2 SUB SWAP1 REVERT JUMPDEST DUP1 DUP4 PUSH0 DUP1 DUP1 JUMPDEST PUSH1 0x14 DUP2 LT ISZERO PUSH2 0x1030 JUMPI PUSH2 0xFC6 PUSH1 0x2 DUP7 PUSH2 0x155D JUMP JUMPDEST PUSH0 SUB PUSH2 0xFFB JUMPI DUP4 SWAP3 POP PUSH1 0x21 DUP2 PUSH1 0x14 DUP2 LT PUSH2 0xFE2 JUMPI PUSH2 0xFE2 PUSH2 0x137E JUMP JUMPDEST ADD SLOAD PUSH0 DUP3 DUP2 MSTORE PUSH1 0x1 PUSH1 0x20 MSTORE PUSH1 0x40 SWAP1 KECCAK256 DUP6 SWAP1 SSTORE SWAP2 POP PUSH2 0x100F JUMP JUMPDEST PUSH0 DUP2 DUP2 MSTORE PUSH1 0x1 PUSH1 0x20 MSTORE PUSH1 0x40 SWAP1 KECCAK256 SLOAD SWAP3 POP DUP4 SWAP2 POP JUMPDEST PUSH2 0x1019 DUP4 DUP4 PUSH2 0x1160 JUMP JUMPDEST SWAP4 POP PUSH2 0x1026 PUSH1 0x2 DUP7 PUSH2 0x1570 JUMP JUMPDEST SWAP5 POP PUSH1 0x1 ADD PUSH2 0xFB2 JUMP JUMPDEST POP PUSH0 PUSH1 0x1E PUSH1 0x20 SLOAD PUSH1 0x1 PUSH2 0x1043 SWAP2 SWAP1 PUSH2 0x13A6 JUMP JUMPDEST PUSH2 0x104D SWAP2 SWAP1 PUSH2 0x155D JUMP JUMPDEST SWAP1 POP DUP4 PUSH1 0x2 DUP3 PUSH1 0x1E DUP2 LT PUSH2 0x1063 JUMPI PUSH2 0x1063 PUSH2 0x137E JUMP JUMPDEST ADD SSTORE PUSH1 0x20 DUP2 SWAP1 SSTORE PUSH2 0x1075 DUP7 PUSH1 0x1 PUSH2 0x13A6 JUMP JUMPDEST PUSH0 DUP2 SWAP1 SSTORE POP DUP6 SWAP7 POP DUP7 DUP9 PUSH32 0xD50E83984B64A106AC2EE6314D689EC4D2A656D5ECE6D94C585796944B52240C DUP7 PUSH1 0x40 MLOAD PUSH2 0x10B0 SWAP2 DUP2 MSTORE PUSH1 0x20 ADD SWAP1 JUMP JUMPDEST PUSH1 0x40 MLOAD DUP1 SWAP2 SUB SWAP1 LOG3 POP POP POP POP POP POP SWAP2 SWAP1 POP JUMP JUMPDEST PUSH1 0x40 MLOAD PUSH1 0x1 PUSH1 0x1 PUSH1 0xA0 SHL SUB DUP5 DUP2 AND PUSH1 0x24 DUP4 ADD MSTORE DUP4 DUP2 AND PUSH1 0x44 DUP4 ADD MSTORE PUSH1 0x64 DUP3 ADD DUP4 SWAP1 MSTORE PUSH2 0xF78 SWAP2 DUP7 SWAP2 DUP3 AND SWAP1 PUSH4 0x23B872DD SWAP1 PUSH1 0x84 ADD JUMPDEST PUSH1 0x40 MLOAD PUSH1 0x20 DUP2 DUP4 SUB SUB DUP2 MSTORE SWAP1 PUSH1 0x40 MSTORE SWAP2 POP PUSH1 0xE0 SHL PUSH1 0x20 DUP3 ADD DUP1 MLOAD PUSH1 0x1 PUSH1 0x1 PUSH1 0xE0 SHL SUB DUP4 DUP2 DUP4 AND OR DUP4 MSTORE POP POP POP POP PUSH2 0x11F9 JUMP JUMPDEST PUSH1 0x40 MLOAD PUSH1 0x1 PUSH1 0x1 PUSH1 0xA0 SHL SUB DUP4 DUP2 AND PUSH1 0x24 DUP4 ADD MSTORE PUSH1 0x44 DUP3 ADD DUP4 SWAP1 MSTORE PUSH2 0x115B SWAP2 DUP6 SWAP2 DUP3 AND SWAP1 PUSH4 0xA9059CBB SWAP1 PUSH1 0x64 ADD PUSH2 0x10F8 JUMP JUMPDEST POP POP POP JUMP JUMPDEST PUSH1 0x40 MLOAD PUSH4 0xF47D33B5 PUSH1 0xE0 SHL DUP2 MSTORE PUSH1 0x4 DUP2 ADD DUP4 SWAP1 MSTORE PUSH1 0x24 DUP2 ADD DUP3 SWAP1 MSTORE PUSH0 SWAP1 PUSH32 0x0 PUSH1 0x1 PUSH1 0x1 PUSH1 0xA0 SHL SUB AND SWAP1 PUSH4 0xF47D33B5 SWAP1 PUSH1 0x44 ADD PUSH1 0x20 PUSH1 0x40 MLOAD DUP1 DUP4 SUB DUP2 DUP7 GAS STATICCALL ISZERO DUP1 ISZERO PUSH2 0x11CC JUMPI RETURNDATASIZE PUSH0 PUSH0 RETURNDATACOPY RETURNDATASIZE PUSH0 REVERT JUMPDEST POP POP POP POP PUSH1 0x40 MLOAD RETURNDATASIZE PUSH1 0x1F NOT PUSH1 0x1F DUP3 ADD AND DUP3 ADD DUP1 PUSH1 0x40 MSTORE POP DUP2 ADD SWAP1 PUSH2 0x11F0 SWAP2 SWAP1 PUSH2 0x1583 JUMP JUMPDEST SWAP1 POP JUMPDEST SWAP3 SWAP2 POP POP JUMP JUMPDEST PUSH0 PUSH0 PUSH1 0x20 PUSH0 DUP5 MLOAD PUSH1 0x20 DUP7 ADD PUSH0 DUP9 GAS CALL DUP1 PUSH2 0x1218 JUMPI PUSH1 0x40 MLOAD RETURNDATASIZE PUSH0 DUP3 RETURNDATACOPY RETURNDATASIZE DUP2 REVERT JUMPDEST POP POP PUSH0 MLOAD RETURNDATASIZE SWAP2 POP DUP2 ISZERO PUSH2 0x122F JUMPI DUP1 PUSH1 0x1 EQ ISZERO PUSH2 0x123C JUMP JUMPDEST PUSH1 0x1 PUSH1 0x1 PUSH1 0xA0 SHL SUB DUP5 AND EXTCODESIZE ISZERO JUMPDEST ISZERO PUSH2 0xF78 JUMPI PUSH1 0x40 MLOAD PUSH4 0x5274AFE7 PUSH1 0xE0 SHL DUP2 MSTORE PUSH1 0x1 PUSH1 0x1 PUSH1 0xA0 SHL SUB DUP6 AND PUSH1 0x4 DUP3 ADD MSTORE PUSH1 0x24 ADD PUSH1 0x40 MLOAD DUP1 SWAP2 SUB SWAP1 REVERT JUMPDEST PUSH0 PUSH1 0x20 DUP3 DUP5 SUB SLT ISZERO PUSH2 0x1279 JUMPI PUSH0 PUSH0 REVERT JUMPDEST POP CALLDATALOAD SWAP2 SWAP1 POP JUMP JUMPDEST DUP1 PUSH2 0x100 DUP2 ADD DUP4 LT ISZERO PUSH2 0x11F3 JUMPI PUSH0 PUSH0 REVERT JUMPDEST DUP1 CALLDATALOAD PUSH1 0x1 PUSH1 0x1 PUSH1 0xA0 SHL SUB DUP2 AND DUP2 EQ PUSH2 0x12A7 JUMPI PUSH0 PUSH0 REVERT JUMPDEST SWAP2 SWAP1 POP JUMP JUMPDEST PUSH0 PUSH0 PUSH0 PUSH0 PUSH0 PUSH0 PUSH0 PUSH2 0x1C0 DUP9 DUP11 SUB SLT ISZERO PUSH2 0x12C3 JUMPI PUSH0 PUSH0 REVERT JUMPDEST PUSH2 0x12CD DUP10 DUP10 PUSH2 0x1280 JUMP JUMPDEST SWAP7 POP PUSH2 0x100 DUP9 ADD CALLDATALOAD SWAP6 POP PUSH2 0x120 DUP9 ADD CALLDATALOAD SWAP5 POP PUSH2 0x12EC PUSH2 0x140 DUP10 ADD PUSH2 0x1291 JUMP JUMPDEST SWAP4 POP PUSH2 0x12FB PUSH2 0x160 DUP10 ADD PUSH2 0x1291 JUMP JUMPDEST SWAP7 SWAP10 SWAP6 SWAP9 POP SWAP4 SWAP7 SWAP3 SWAP6 SWAP5 PUSH2 0x180 DUP5 ADD CALLDATALOAD SWAP5 POP PUSH2 0x1A0 SWAP1 SWAP4 ADD CALLDATALOAD SWAP3 SWAP2 POP POP JUMP JUMPDEST PUSH0 PUSH0 PUSH0 PUSH0 PUSH0 PUSH0 PUSH2 0x1A0 DUP8 DUP10 SUB SLT ISZERO PUSH2 0x1330 JUMPI PUSH0 PUSH0 REVERT JUMPDEST PUSH2 0x133A DUP9 DUP9 PUSH2 0x1280 JUMP JUMPDEST SWAP6 POP PUSH2 0x100 DUP8 ADD CALLDATALOAD SWAP5 POP PUSH2 0x120 DUP8 ADD CALLDATALOAD SWAP4 POP PUSH2 0x1359 PUSH2 0x140 DUP9 ADD PUSH2 0x1291 JUMP JUMPDEST SWAP3 POP PUSH2 0x1368 PUSH2 0x160 DUP9 ADD PUSH2 0x1291 JUMP JUMPDEST SWAP6 SWAP9 SWAP5 SWAP8 POP SWAP3 SWAP6 SWAP2 SWAP5 SWAP4 PUSH2 0x180 SWAP1 SWAP3 ADD CALLDATALOAD SWAP3 POP POP JUMP JUMPDEST PUSH4 0x4E487B71 PUSH1 0xE0 SHL PUSH0 MSTORE PUSH1 0x32 PUSH1 0x4 MSTORE PUSH1 0x24 PUSH0 REVERT JUMPDEST PUSH4 0x4E487B71 PUSH1 0xE0 SHL PUSH0 MSTORE PUSH1 0x11 PUSH1 0x4 MSTORE PUSH1 0x24 PUSH0 REVERT JUMPDEST DUP1 DUP3 ADD DUP1 DUP3 GT ISZERO PUSH2 0x11F3 JUMPI PUSH2 0x11F3 PUSH2 0x1392 JUMP JUMPDEST PUSH0 PUSH1 0x1 DUP3 ADD PUSH2 0x13CA JUMPI PUSH2 0x13CA PUSH2 0x1392 JUMP JUMPDEST POP PUSH1 0x1 ADD SWAP1 JUMP JUMPDEST DUP2 DUP2 SUB DUP2 DUP2 GT ISZERO PUSH2 0x11F3 JUMPI PUSH2 0x11F3 PUSH2 0x1392 JUMP JUMPDEST PUSH0 DUP2 PUSH2 0x13F2 JUMPI PUSH2 0x13F2 PUSH2 0x1392 JUMP JUMPDEST POP PUSH0 NOT ADD SWAP1 JUMP JUMPDEST PUSH2 0x1C0 DUP2 ADD PUSH2 0x100 DUP5 DUP4 CALLDATACOPY PUSH2 0x100 DUP3 ADD DUP4 PUSH0 JUMPDEST PUSH1 0x6 DUP2 LT ISZERO PUSH2 0x142B JUMPI DUP2 MLOAD DUP4 MSTORE PUSH1 0x20 SWAP3 DUP4 ADD SWAP3 SWAP1 SWAP2 ADD SWAP1 PUSH1 0x1 ADD PUSH2 0x140C JUMP JUMPDEST POP POP POP SWAP4 SWAP3 POP POP POP JUMP JUMPDEST PUSH0 PUSH1 0x20 DUP3 DUP5 SUB SLT ISZERO PUSH2 0x1445 JUMPI PUSH0 PUSH0 REVERT JUMPDEST DUP2 MLOAD DUP1 ISZERO ISZERO DUP2 EQ PUSH2 0x1454 JUMPI PUSH0 PUSH0 REVERT JUMPDEST SWAP4 SWAP3 POP POP POP JUMP JUMPDEST PUSH1 0x1 DUP2 JUMPDEST PUSH1 0x1 DUP5 GT ISZERO PUSH2 0x1496 JUMPI DUP1 DUP6 DIV DUP2 GT ISZERO PUSH2 0x147A JUMPI PUSH2 0x147A PUSH2 0x1392 JUMP JUMPDEST PUSH1 0x1 DUP5 AND ISZERO PUSH2 0x1488 JUMPI SWAP1 DUP2 MUL SWAP1 JUMPDEST PUSH1 0x1 SWAP4 SWAP1 SWAP4 SHR SWAP3 DUP1 MUL PUSH2 0x145F JUMP JUMPDEST SWAP4 POP SWAP4 SWAP2 POP POP JUMP JUMPDEST PUSH0 DUP3 PUSH2 0x14AC JUMPI POP PUSH1 0x1 PUSH2 0x11F3 JUMP JUMPDEST DUP2 PUSH2 0x14B8 JUMPI POP PUSH0 PUSH2 0x11F3 JUMP JUMPDEST DUP2 PUSH1 0x1 DUP2 EQ PUSH2 0x14CE JUMPI PUSH1 0x2 DUP2 EQ PUSH2 0x14D8 JUMPI PUSH2 0x14F4 JUMP JUMPDEST PUSH1 0x1 SWAP2 POP POP PUSH2 0x11F3 JUMP JUMPDEST PUSH1 0xFF DUP5 GT ISZERO PUSH2 0x14E9 JUMPI PUSH2 0x14E9 PUSH2 0x1392 JUMP JUMPDEST POP POP PUSH1 0x1 DUP3 SHL PUSH2 0x11F3 JUMP JUMPDEST POP PUSH1 0x20 DUP4 LT PUSH2 0x133 DUP4 LT AND PUSH1 0x4E DUP5 LT PUSH1 0xB DUP5 LT AND OR ISZERO PUSH2 0x1517 JUMPI POP DUP2 DUP2 EXP PUSH2 0x11F3 JUMP JUMPDEST PUSH2 0x1523 PUSH0 NOT DUP5 DUP5 PUSH2 0x145B JUMP JUMPDEST DUP1 PUSH0 NOT DIV DUP3 GT ISZERO PUSH2 0x1536 JUMPI PUSH2 0x1536 PUSH2 0x1392 JUMP JUMPDEST MUL SWAP4 SWAP3 POP POP POP JUMP JUMPDEST PUSH0 PUSH2 0x1454 DUP4 DUP4 PUSH2 0x149E JUMP JUMPDEST PUSH4 0x4E487B71 PUSH1 0xE0 SHL PUSH0 MSTORE PUSH1 0x12 PUSH1 0x4 MSTORE PUSH1 0x24 PUSH0 REVERT JUMPDEST PUSH0 DUP3 PUSH2 0x156B JUMPI PUSH2 0x156B PUSH2 0x1549 JUMP JUMPDEST POP MOD SWAP1 JUMP JUMPDEST PUSH0 DUP3 PUSH2 0x157E JUMPI PUSH2 0x157E PUSH2 0x1549 JUMP JUMPDEST POP DIV SWAP1 JUMP JUMPDEST PUSH0 PUSH1 0x20 DUP3 DUP5 SUB SLT ISZERO PUSH2 0x1593 JUMPI PUSH0 PUSH0 REVERT JUMPDEST POP MLOAD SWAP2 SWAP1 POP JUMP INVALID LOG2 PUSH5 0x6970667358 0x22 SLT KECCAK256 0x2F 0x29 PUSH7 0x6C8FA00403012C 0xF 0xB2 0xD4 0xED CALLVALUE PUSH6 0xC40CD812CAC3 LT 0xD JUMPI CALLER SWAP16 CALLER PUSH10 0x63BF4864736F6C634300 ADDMOD 0x1E STOP CALLER "},"methodIdentifiers":{"FIELD_SIZE()":"414a37ba","MAX_DELAY()":"4125ff90","MIN_DELAY()":"9f81aed7","ROOT_HISTORY_SIZE()":"cd87a3b4","TREE_DEPTH()":"f1650536","commitments(bytes32)":"839df945","currentRootIndex()":"90eeb02b","denomination()":"8bca6d16","deposit(bytes32)":"b214faa5","executeScheduledWithdrawal(bytes32)":"e11d84e2","filledSubtrees(uint256)":"f178e47c","getLatestRoot()":"5445b007","getPendingWithdrawal(bytes32)":"d0fe00db","getPoolInfo()":"60246c88","getPoolInfoV2()":"f499c196","getWithdrawalStatus(bytes32)":"5f18f590","hasher()":"ed33639f","isDeposited(bytes32)":"230ddd90","isKnownRoot(bytes32)":"6d9833e3","isSpent(bytes32)":"e5285dcc","nextLeafIndex()":"0be4f422","nullifierHashes(bytes32)":"17cc915c","pendingWithdrawals(bytes32)":"b7f06ebe","roots(uint256)":"c2b40ae4","scheduleWithdrawal(uint256[8],bytes32,bytes32,address,address,uint256,uint256)":"5e35d480","scheduledCount()":"6c28fa75","token()":"fc0c546a","verifier()":"2b7ac3f3","withdraw(uint256[8],bytes32,bytes32,address,address,uint256)":"a151918a","zeros(uint256)":"e8295588"}}}}}