{
  "_format": "hh-sol-artifact-1",
  "contractName": "DogeRouter",
  "sourceName": "src/DogeRouter.sol",
  "abi": [
    {
      "inputs": [
        {
          "internalType": "address",
          "name": "_wdoge",
          "type": "address"
        },
        {
          "internalType": "address[]",
          "name": "_pools",
          "type": "address[]"
        }
      ],
      "stateMutability": "nonpayable",
      "type": "constructor"
    },
    {
      "inputs": [],
      "name": "InvalidAmount",
      "type": "error"
    },
    {
      "inputs": [],
      "name": "InvalidPool",
      "type": "error"
    },
    {
      "inputs": [],
      "name": "NotOwner",
      "type": "error"
    },
    {
      "inputs": [],
      "name": "ReentrancyGuardReentrantCall",
      "type": "error"
    },
    {
      "inputs": [],
      "name": "TransferFailed",
      "type": "error"
    },
    {
      "inputs": [],
      "name": "UnwrapFailed",
      "type": "error"
    },
    {
      "inputs": [],
      "name": "WrapFailed",
      "type": "error"
    },
    {
      "anonymous": false,
      "inputs": [
        {
          "indexed": true,
          "internalType": "address",
          "name": "pool",
          "type": "address"
        },
        {
          "indexed": true,
          "internalType": "bytes32",
          "name": "commitment",
          "type": "bytes32"
        },
        {
          "indexed": false,
          "internalType": "uint256",
          "name": "amount",
          "type": "uint256"
        }
      ],
      "name": "DepositDoge",
      "type": "event"
    },
    {
      "anonymous": false,
      "inputs": [
        {
          "indexed": true,
          "internalType": "address",
          "name": "pool",
          "type": "address"
        }
      ],
      "name": "PoolAdded",
      "type": "event"
    },
    {
      "anonymous": false,
      "inputs": [
        {
          "indexed": true,
          "internalType": "address",
          "name": "pool",
          "type": "address"
        }
      ],
      "name": "PoolRemoved",
      "type": "event"
    },
    {
      "anonymous": false,
      "inputs": [
        {
          "indexed": true,
          "internalType": "address",
          "name": "pool",
          "type": "address"
        },
        {
          "indexed": true,
          "internalType": "address",
          "name": "recipient",
          "type": "address"
        },
        {
          "indexed": false,
          "internalType": "uint256",
          "name": "amount",
          "type": "uint256"
        }
      ],
      "name": "WithdrawDoge",
      "type": "event"
    },
    {
      "inputs": [
        {
          "internalType": "address",
          "name": "pool",
          "type": "address"
        }
      ],
      "name": "addPool",
      "outputs": [],
      "stateMutability": "nonpayable",
      "type": "function"
    },
    {
      "inputs": [
        {
          "internalType": "address",
          "name": "pool",
          "type": "address"
        },
        {
          "internalType": "bytes32",
          "name": "commitment",
          "type": "bytes32"
        }
      ],
      "name": "depositDoge",
      "outputs": [],
      "stateMutability": "payable",
      "type": "function"
    },
    {
      "inputs": [],
      "name": "owner",
      "outputs": [
        {
          "internalType": "address",
          "name": "",
          "type": "address"
        }
      ],
      "stateMutability": "view",
      "type": "function"
    },
    {
      "inputs": [
        {
          "internalType": "address",
          "name": "pool",
          "type": "address"
        }
      ],
      "name": "removePool",
      "outputs": [],
      "stateMutability": "nonpayable",
      "type": "function"
    },
    {
      "inputs": [
        {
          "internalType": "address",
          "name": "newOwner",
          "type": "address"
        }
      ],
      "name": "transferOwnership",
      "outputs": [],
      "stateMutability": "nonpayable",
      "type": "function"
    },
    {
      "inputs": [
        {
          "internalType": "address",
          "name": "",
          "type": "address"
        }
      ],
      "name": "validPools",
      "outputs": [
        {
          "internalType": "bool",
          "name": "",
          "type": "bool"
        }
      ],
      "stateMutability": "view",
      "type": "function"
    },
    {
      "inputs": [],
      "name": "wdoge",
      "outputs": [
        {
          "internalType": "contract IWrappedDoge",
          "name": "",
          "type": "address"
        }
      ],
      "stateMutability": "view",
      "type": "function"
    },
    {
      "inputs": [
        {
          "internalType": "address",
          "name": "pool",
          "type": "address"
        },
        {
          "internalType": "uint256[8]",
          "name": "proof",
          "type": "uint256[8]"
        },
        {
          "internalType": "bytes32",
          "name": "root",
          "type": "bytes32"
        },
        {
          "internalType": "bytes32",
          "name": "nullifierHash",
          "type": "bytes32"
        },
        {
          "internalType": "address payable",
          "name": "recipient",
          "type": "address"
        },
        {
          "internalType": "address payable",
          "name": "relayer",
          "type": "address"
        },
        {
          "internalType": "uint256",
          "name": "fee",
          "type": "uint256"
        }
      ],
      "name": "withdrawDoge",
      "outputs": [],
      "stateMutability": "nonpayable",
      "type": "function"
    },
    {
      "stateMutability": "payable",
      "type": "receive"
    }
  ],
  "bytecode": "0x60a060405234801561000f575f5ffd5b50604051610d61380380610d6183398101604081905261002e9161013e565b60015f9081556001600160a01b038316608052600280546001600160a01b031916331790555b8151811015610107576001805f8484815181106100735761007361021c565b60200260200101516001600160a01b03166001600160a01b031681526020019081526020015f205f6101000a81548160ff0219169083151502179055508181815181106100c2576100c261021c565b60200260200101516001600160a01b03167f73cca62ab1b520c9715bf4e6c71e3e518c754e7148f65102f43289a7df0efea660405160405180910390a2600101610054565b505050610230565b80516001600160a01b0381168114610125575f5ffd5b919050565b634e487b7160e01b5f52604160045260245ffd5b5f5f6040838503121561014f575f5ffd5b6101588361010f565b60208401519092506001600160401b03811115610173575f5ffd5b8301601f81018513610183575f5ffd5b80516001600160401b0381111561019c5761019c61012a565b604051600582901b90603f8201601f191681016001600160401b03811182821017156101ca576101ca61012a565b6040529182526020818401810192908101888411156101e7575f5ffd5b6020850194505b8385101561020d576101ff8561010f565b8152602094850194016101ee565b50809450505050509250929050565b634e487b7160e01b5f52603260045260245ffd5b608051610af761026a5f395f818160970152818161028f0152818161037c01528181610414015281816106ad015261073e0152610af75ff3fe60806040526004361061007b575f3560e01c80638da5cb5b1161004c5780638da5cb5b1461012957806393368fdf14610148578063d914cd4b14610186578063f2fde38b146101a5575f5ffd5b8062eb8253146100865780633b7d0946146100d657806358ad2062146100f757806358b51db114610116575f5ffd5b3661008257005b5f5ffd5b348015610091575f5ffd5b506100b97f000000000000000000000000000000000000000000000000000000000000000081565b6040516001600160a01b0390911681526020015b60405180910390f35b3480156100e1575f5ffd5b506100f56100f036600461095a565b6101c4565b005b348015610102575f5ffd5b506100f561011136600461097c565b610237565b6100f56101243660046109fa565b6105e5565b348015610134575f5ffd5b506002546100b9906001600160a01b031681565b348015610153575f5ffd5b5061017661016236600461095a565b60016020525f908152604090205460ff1681565b60405190151581526020016100cd565b348015610191575f5ffd5b506100f56101a036600461095a565b610855565b3480156101b0575f5ffd5b506100f56101bf36600461095a565b6108ce565b6002546001600160a01b031633146101ef576040516330cd747160e01b815260040160405180910390fd5b6001600160a01b0381165f81815260016020526040808220805460ff19169055517f4106dfdaa577573db51c0ca93f766dbedfa0758faa2e7f5bcdb7c142be803c3f9190a250565b61023f61091b565b6001600160a01b0387165f9081526001602052604090205460ff166102765760405162820f3560e61b815260040160405180910390fd5b6040516370a0823160e01b815230600482015287905f907f00000000000000000000000000000000000000000000000000000000000000006001600160a01b0316906370a0823190602401602060405180830381865afa1580156102dc573d5f5f3e3d5ffd5b505050506040513d601f19601f820116820180604052508101906103009190610a24565b6040516350a8c8c560e11b81529091506001600160a01b0383169063a151918a90610339908b908b908b9030908b908b90600401610a3b565b5f604051808303815f87803b158015610350575f5ffd5b505af1158015610362573d5f5f3e3d5ffd5b50506040516370a0823160e01b81523060048201525f92507f00000000000000000000000000000000000000000000000000000000000000006001600160a01b031691506370a0823190602401602060405180830381865afa1580156103ca573d5f5f3e3d5ffd5b505050506040513d601f19601f820116820180604052508101906103ee9190610a24565b90505f6103fb8383610a7d565b604051632e1a7d4d60e01b8152600481018290529091507f00000000000000000000000000000000000000000000000000000000000000006001600160a01b031690632e1a7d4d906024015f604051808303815f87803b15801561045d575f5ffd5b505af115801561046f573d5f5f3e3d5ffd5b505050505f85826104809190610a7d565b90505f886001600160a01b0316826040515f6040518083038185875af1925050503d805f81146104cb576040519150601f19603f3d011682016040523d82523d5f602084013e6104d0565b606091505b50509050806104f2576040516312171d8360e31b815260040160405180910390fd5b5f8711801561050957506001600160a01b03881615155b15610580575f886001600160a01b0316886040515f6040518083038185875af1925050503d805f8114610557576040519150601f19603f3d011682016040523d82523d5f602084013e61055c565b606091505b505090508061057e576040516312171d8360e31b815260040160405180910390fd5b505b886001600160a01b03168d6001600160a01b03167f08f21bb4c1f5cf0f035aab8b49720fb550bd64e2b5f4eba646990d0786d4da92846040516105c591815260200190565b60405180910390a35050505050506105dc60015f55565b50505050505050565b6105ed61091b565b6001600160a01b0382165f9081526001602052604090205460ff166106245760405162820f3560e61b815260040160405180910390fd5b5f8290505f816001600160a01b0316638bca6d166040518163ffffffff1660e01b8152600401602060405180830381865afa158015610665573d5f5f3e3d5ffd5b505050506040513d601f19601f820116820180604052508101906106899190610a24565b90508034146106ab5760405163162908e360e11b815260040160405180910390fd5b7f00000000000000000000000000000000000000000000000000000000000000006001600160a01b031663d0e30db0346040518263ffffffff1660e01b81526004015f604051808303818588803b158015610704575f5ffd5b505af1158015610716573d5f5f3e3d5ffd5b505060405163095ea7b360e01b81526001600160a01b038881166004830152602482018690527f000000000000000000000000000000000000000000000000000000000000000016935063095ea7b3925060440190506020604051808303815f875af1158015610788573d5f5f3e3d5ffd5b505050506040513d601f19601f820116820180604052508101906107ac9190610aa2565b5060405163b214faa560e01b8152600481018490526001600160a01b0383169063b214faa5906024015f604051808303815f87803b1580156107ec575f5ffd5b505af11580156107fe573d5f5f3e3d5ffd5b5050505082846001600160a01b03167f3689d5931f236d248368a90aba2d7ec4ca7822aff82aea16d535f33a0736d0ab8360405161083e91815260200190565b60405180910390a3505061085160015f55565b5050565b6002546001600160a01b03163314610880576040516330cd747160e01b815260040160405180910390fd5b6001600160a01b0381165f818152600160208190526040808320805460ff1916909217909155517f73cca62ab1b520c9715bf4e6c71e3e518c754e7148f65102f43289a7df0efea69190a250565b6002546001600160a01b031633146108f9576040516330cd747160e01b815260040160405180910390fd5b600280546001600160a01b0319166001600160a01b0392909216919091179055565b60025f540361093d57604051633ee5aeb560e01b815260040160405180910390fd5b60025f55565b6001600160a01b0381168114610957575f5ffd5b50565b5f6020828403121561096a575f5ffd5b813561097581610943565b9392505050565b5f5f5f5f5f5f5f6101c0888a031215610993575f5ffd5b873561099e81610943565b96506101208801898111156109b1575f5ffd5b60208901965035945061014088013593506101608801356109d181610943565b92506101808801356109e281610943565b809250506101a0880135905092959891949750929550565b5f5f60408385031215610a0b575f5ffd5b8235610a1681610943565b946020939093013593505050565b5f60208284031215610a34575f5ffd5b5051919050565b6101a081016101008883376101008201969096526101208101949094526001600160a01b03928316610140850152911661016083015261018090910152919050565b81810381811115610a9c57634e487b7160e01b5f52601160045260245ffd5b92915050565b5f60208284031215610ab2575f5ffd5b81518015158114610975575f5ffdfea2646970667358221220dcc3b4ade39ac58f214e97ec324bfea0e6308fd35aa84265e5c5093888e9292d64736f6c634300081e0033",
  "linkReferences": {},
  "deployedLinkReferences": {}
}