{
  "_format": "hh-sol-artifact-1",
  "contractName": "MixerPoolNative",
  "sourceName": "src/MixerPoolNative.sol",
  "abi": [
    {
      "inputs": [
        {
          "internalType": "address",
          "name": "_verifier",
          "type": "address"
        },
        {
          "internalType": "address",
          "name": "_hasher",
          "type": "address"
        },
        {
          "internalType": "uint256",
          "name": "_denomination",
          "type": "uint256"
        }
      ],
      "stateMutability": "nonpayable",
      "type": "constructor"
    },
    {
      "inputs": [],
      "name": "CommitmentAlreadyUsed",
      "type": "error"
    },
    {
      "inputs": [],
      "name": "InvalidDenomination",
      "type": "error"
    },
    {
      "inputs": [],
      "name": "InvalidFee",
      "type": "error"
    },
    {
      "inputs": [],
      "name": "InvalidMerkleRoot",
      "type": "error"
    },
    {
      "inputs": [],
      "name": "InvalidProof",
      "type": "error"
    },
    {
      "inputs": [],
      "name": "InvalidRoot",
      "type": "error"
    },
    {
      "inputs": [],
      "name": "MerkleTreeFull",
      "type": "error"
    },
    {
      "inputs": [],
      "name": "NullifierAlreadyUsed",
      "type": "error"
    },
    {
      "inputs": [],
      "name": "ReentrancyGuardReentrantCall",
      "type": "error"
    },
    {
      "inputs": [],
      "name": "TransferFailed",
      "type": "error"
    },
    {
      "anonymous": false,
      "inputs": [
        {
          "indexed": true,
          "internalType": "bytes32",
          "name": "commitment",
          "type": "bytes32"
        },
        {
          "indexed": true,
          "internalType": "uint256",
          "name": "leafIndex",
          "type": "uint256"
        },
        {
          "indexed": false,
          "internalType": "uint256",
          "name": "timestamp",
          "type": "uint256"
        }
      ],
      "name": "Deposit",
      "type": "event"
    },
    {
      "anonymous": false,
      "inputs": [
        {
          "indexed": true,
          "internalType": "bytes32",
          "name": "leaf",
          "type": "bytes32"
        },
        {
          "indexed": true,
          "internalType": "uint256",
          "name": "leafIndex",
          "type": "uint256"
        },
        {
          "indexed": false,
          "internalType": "bytes32",
          "name": "newRoot",
          "type": "bytes32"
        }
      ],
      "name": "LeafInserted",
      "type": "event"
    },
    {
      "anonymous": false,
      "inputs": [
        {
          "indexed": true,
          "internalType": "address",
          "name": "recipient",
          "type": "address"
        },
        {
          "indexed": true,
          "internalType": "bytes32",
          "name": "nullifierHash",
          "type": "bytes32"
        },
        {
          "indexed": true,
          "internalType": "address",
          "name": "relayer",
          "type": "address"
        },
        {
          "indexed": false,
          "internalType": "uint256",
          "name": "fee",
          "type": "uint256"
        }
      ],
      "name": "Withdrawal",
      "type": "event"
    },
    {
      "inputs": [],
      "name": "FIELD_SIZE",
      "outputs": [
        {
          "internalType": "uint256",
          "name": "",
          "type": "uint256"
        }
      ],
      "stateMutability": "view",
      "type": "function"
    },
    {
      "inputs": [],
      "name": "ROOT_HISTORY_SIZE",
      "outputs": [
        {
          "internalType": "uint256",
          "name": "",
          "type": "uint256"
        }
      ],
      "stateMutability": "view",
      "type": "function"
    },
    {
      "inputs": [],
      "name": "TREE_DEPTH",
      "outputs": [
        {
          "internalType": "uint256",
          "name": "",
          "type": "uint256"
        }
      ],
      "stateMutability": "view",
      "type": "function"
    },
    {
      "inputs": [
        {
          "internalType": "bytes32",
          "name": "",
          "type": "bytes32"
        }
      ],
      "name": "commitments",
      "outputs": [
        {
          "internalType": "bool",
          "name": "",
          "type": "bool"
        }
      ],
      "stateMutability": "view",
      "type": "function"
    },
    {
      "inputs": [],
      "name": "currentRootIndex",
      "outputs": [
        {
          "internalType": "uint256",
          "name": "",
          "type": "uint256"
        }
      ],
      "stateMutability": "view",
      "type": "function"
    },
    {
      "inputs": [],
      "name": "denomination",
      "outputs": [
        {
          "internalType": "uint256",
          "name": "",
          "type": "uint256"
        }
      ],
      "stateMutability": "view",
      "type": "function"
    },
    {
      "inputs": [
        {
          "internalType": "bytes32",
          "name": "commitment",
          "type": "bytes32"
        }
      ],
      "name": "deposit",
      "outputs": [],
      "stateMutability": "payable",
      "type": "function"
    },
    {
      "inputs": [
        {
          "internalType": "uint256",
          "name": "",
          "type": "uint256"
        }
      ],
      "name": "filledSubtrees",
      "outputs": [
        {
          "internalType": "bytes32",
          "name": "",
          "type": "bytes32"
        }
      ],
      "stateMutability": "view",
      "type": "function"
    },
    {
      "inputs": [],
      "name": "getLatestRoot",
      "outputs": [
        {
          "internalType": "bytes32",
          "name": "",
          "type": "bytes32"
        }
      ],
      "stateMutability": "view",
      "type": "function"
    },
    {
      "inputs": [],
      "name": "getPoolInfo",
      "outputs": [
        {
          "internalType": "uint256",
          "name": "_denomination",
          "type": "uint256"
        },
        {
          "internalType": "uint256",
          "name": "_depositsCount",
          "type": "uint256"
        },
        {
          "internalType": "bytes32",
          "name": "_root",
          "type": "bytes32"
        }
      ],
      "stateMutability": "view",
      "type": "function"
    },
    {
      "inputs": [],
      "name": "hasher",
      "outputs": [
        {
          "internalType": "contract IHasher",
          "name": "",
          "type": "address"
        }
      ],
      "stateMutability": "view",
      "type": "function"
    },
    {
      "inputs": [
        {
          "internalType": "bytes32",
          "name": "commitment",
          "type": "bytes32"
        }
      ],
      "name": "isDeposited",
      "outputs": [
        {
          "internalType": "bool",
          "name": "",
          "type": "bool"
        }
      ],
      "stateMutability": "view",
      "type": "function"
    },
    {
      "inputs": [
        {
          "internalType": "bytes32",
          "name": "root",
          "type": "bytes32"
        }
      ],
      "name": "isKnownRoot",
      "outputs": [
        {
          "internalType": "bool",
          "name": "",
          "type": "bool"
        }
      ],
      "stateMutability": "view",
      "type": "function"
    },
    {
      "inputs": [
        {
          "internalType": "bytes32",
          "name": "nullifierHash",
          "type": "bytes32"
        }
      ],
      "name": "isSpent",
      "outputs": [
        {
          "internalType": "bool",
          "name": "",
          "type": "bool"
        }
      ],
      "stateMutability": "view",
      "type": "function"
    },
    {
      "inputs": [],
      "name": "nextLeafIndex",
      "outputs": [
        {
          "internalType": "uint256",
          "name": "",
          "type": "uint256"
        }
      ],
      "stateMutability": "view",
      "type": "function"
    },
    {
      "inputs": [
        {
          "internalType": "bytes32",
          "name": "",
          "type": "bytes32"
        }
      ],
      "name": "nullifierHashes",
      "outputs": [
        {
          "internalType": "bool",
          "name": "",
          "type": "bool"
        }
      ],
      "stateMutability": "view",
      "type": "function"
    },
    {
      "inputs": [
        {
          "internalType": "uint256",
          "name": "",
          "type": "uint256"
        }
      ],
      "name": "roots",
      "outputs": [
        {
          "internalType": "bytes32",
          "name": "",
          "type": "bytes32"
        }
      ],
      "stateMutability": "view",
      "type": "function"
    },
    {
      "inputs": [],
      "name": "verifier",
      "outputs": [
        {
          "internalType": "contract IVerifierLegacy",
          "name": "",
          "type": "address"
        }
      ],
      "stateMutability": "view",
      "type": "function"
    },
    {
      "inputs": [
        {
          "internalType": "uint256[8]",
          "name": "proof",
          "type": "uint256[8]"
        },
        {
          "internalType": "bytes32",
          "name": "root",
          "type": "bytes32"
        },
        {
          "internalType": "bytes32",
          "name": "nullifierHash",
          "type": "bytes32"
        },
        {
          "internalType": "address payable",
          "name": "recipient",
          "type": "address"
        },
        {
          "internalType": "address payable",
          "name": "relayer",
          "type": "address"
        },
        {
          "internalType": "uint256",
          "name": "fee",
          "type": "uint256"
        }
      ],
      "name": "withdraw",
      "outputs": [],
      "stateMutability": "nonpayable",
      "type": "function"
    },
    {
      "inputs": [
        {
          "internalType": "uint256",
          "name": "",
          "type": "uint256"
        }
      ],
      "name": "zeros",
      "outputs": [
        {
          "internalType": "bytes32",
          "name": "",
          "type": "bytes32"
        }
      ],
      "stateMutability": "view",
      "type": "function"
    },
    {
      "stateMutability": "payable",
      "type": "receive"
    }
  ],
  "bytecode": "0x60e0806040523461015f57606081610c75803803809161001f8285610163565b83398101031261015f576100328161019a565b60406100406020840161019a565b9201516001600160a01b039092166080527f07c4283b2fa75d5910795d3d364c3b7ea0eea1ab8202d239d76a40c863f9aced6101f78190555f8052600160208190527fa6eef7e35abe7026729641147f7915573c7e97b47efa546f5f6e3230263bcb4982905592905b60148410156100da576100be816001926101ae565b9384816101f70155805f52816020528460405f205501926100a9565b6100e58391806101ae565b600255600161020b558115610150576001600160a01b031660a05260c052604051610a459081610230823960805181818161019e01526102d5015260a0518181816105d801526108ce015260c05181818161028c0152818161051c0152818161079301526108300152f35b637833d9e360e11b5f5260045ffd5b5f80fd5b601f909101601f19168101906001600160401b0382119082101761018657604052565b634e487b7160e01b5f52604160045260245ffd5b51906001600160a01b038216820361015f57565b60805160405163f47d33b560e01b81526004810192909252602482019290925290602090829060449082906001600160a01b03165afa908115610224575f916101f5575090565b90506020813d60201161021c575b8161021060209383610163565b8101031261015f575190565b3d9150610203565b6040513d5f823e3d90fdfe6080806040526004361015610058575b50361561001a575f80fd5b60405162461bcd60e51b81526020600482015260166024820152752ab9b2903232b837b9b4ba141490333ab731ba34b7b760511b6044820152606490fd5b5f3560e01c9081630be4f422146108fd5750806317cc915c146101fa578063230ddd90146107b65780632b7ac3f3146108b9578063414a37ba1461087f5780635445b0071461085d57806360246c881461080e5780636d9833e3146107e6578063839df945146107b65780638bca6d161461077c57806390eeb02b1461075e578063a151918a146104bd578063b214faa514610273578063c2b40ae414610246578063cd87a3b41461022a578063e5285dcc146101fa578063e8295588146101cd578063ed33639f14610189578063f16505361461016e5763f178e47c14610140575f61000f565b3461016a57602036600319011261016a576004355f526001602052602060405f2054604051908152f35b5f80fd5b3461016a575f36600319011261016a57602060405160148152f35b3461016a575f36600319011261016a576040517f00000000000000000000000000000000000000000000000000000000000000006001600160a01b03168152602090f35b3461016a57602036600319011261016a57600435601481101561016a576020906101f70154604051908152f35b3461016a57602036600319011261016a576004355f5261020c602052602060ff60405f2054166040519015158152f35b3461016a575f36600319011261016a5760206040516101f48152f35b3461016a57602036600319011261016a576004356101f481101561016a5760209060020154604051908152f35b602036600319011261016a5760043561028a6109ed565b7f000000000000000000000000000000000000000000000000000000000000000034036104ae57805f5261020d60205260ff60405f20541661049f575f5462100000811015610490577f00000000000000000000000000000000000000000000000000000000000000006001600160a01b031691905f9080835b60148410156103b957600183166103a65780846101f7015490855f52600160205260405f20555b6040519163f47d33b560e01b835260048301526024820152602081604481895afa801561039b575f90610369575b6001915092811c93019291610304565b506020813d8211610393575b816103826020938361098c565b8101031261016a5760019051610359565b3d9150610375565b6040513d5f823e3d90fd5b835f52600160205260405f20549061032b565b84906101f65460018101809111610468576101f490066101f481101561047c578181600201556101f65560018301808411610468577fd50e83984b64a106ac2ee6314d689ec4d2a656d5ece6d94c585796944b52240c6020859385935f55604051908152a3805f5261020d60205260405f20600160ff198254161790557fe1f1096fd8bc7d572fb7ad7e4102736b6615500975c0252ea91ef1b765c498976020604051428152a3600161020b55005b634e487b7160e01b5f52601160045260245ffd5b634e487b7160e01b5f52603260045260245ffd5b6377ae67b360e11b5f5260045ffd5b635be00f0f60e11b5f5260045ffd5b637833d9e360e11b5f5260045ffd5b3461016a576101a036600319011261016a57366101041161016a576101043561012435610144356001600160a01b0381169081900361016a57610164356001600160a01b038116939084900361016a57610184359061051a6109ed565b7f00000000000000000000000000000000000000000000000000000000000000009081831161074f57845f5261020c60205260ff60405f205416610740576105618161092b565b15610731576040519060c0820182811067ffffffffffffffff82111761071d5760405281528460208201528360408201528560608201528260808201528160a08201526040519063139650cb60e31b82526101006004808401375f61010483015b600682106107075750602091508290506101c4817f00000000000000000000000000000000000000000000000000000000000000006001600160a01b03165afa90811561039b575f916106cc575b50156106bd57835f5261020c60205260405f20600160ff19825416179055818103908111610468575f80808093865af16106486109ae565b50156106a557801515806106b4575b61068f575b60207fe9e508bad6d4c3227e881ca19068f099da81b5164dd6d62b2eaf1e8bc6c3493191604051908152a4600161020b55005b5f80808084885af161069f6109ae565b5061065c575b6312171d8360e31b5f5260045ffd5b50831515610657565b6309bde33960e01b5f5260045ffd5b90506020813d6020116106ff575b816106e76020938361098c565b8101031261016a5751801515810361016a5786610610565b3d91506106da565b60208060019285518152019301910190916105c2565b634e487b7160e01b5f52604160045260245ffd5b639dd854d360e01b5f5260045ffd5b636569570160e11b5f5260045ffd5b6358d620b360e01b5f5260045ffd5b3461016a575f36600319011261016a5760206101f654604051908152f35b3461016a575f36600319011261016a5760206040517f00000000000000000000000000000000000000000000000000000000000000008152f35b3461016a57602036600319011261016a576004355f5261020d602052602060ff60405f2054166040519015158152f35b3461016a57602036600319011261016a57602061080460043561092b565b6040519015158152f35b3461016a575f36600319011261016a5760605f5461082a610916565b604051917f0000000000000000000000000000000000000000000000000000000000000000835260208301526040820152f35b3461016a575f36600319011261016a576020610877610916565b604051908152f35b3461016a575f36600319011261016a5760206040517f30644e72e131a029b85045b68181585d2833e84879b9709143e1f593f00000018152f35b3461016a575f36600319011261016a576040517f00000000000000000000000000000000000000000000000000000000000000006001600160a01b03168152602090f35b3461016a575f36600319011261016a576020905f548152f35b6101f6546101f481101561047c576002015490565b908115610987576101f654918260015b15610979575b5f936101f481101561047c5780600201548314610970578061096757506101f39361093b565b5f19019361093b565b50600193505050565b80840361094157505f925050565b5f9150565b90601f8019910116810190811067ffffffffffffffff82111761071d57604052565b3d156109e8573d9067ffffffffffffffff821161071d57604051916109dd601f8201601f19166020018461098c565b82523d5f602084013e565b606090565b600261020b5414610a0057600261020b55565b633ee5aeb560e01b5f5260045ffdfea264697066735822122065cf27f4448b81b5f0c17d58dd4925f6d0d3d093e02c8498ffda0036bcb38d0264736f6c634300081e0033",
  "linkReferences": {},
  "deployedLinkReferences": {}
}