{
  "_format": "hh-sol-artifact-1",
  "contractName": "MixerPoolNative",
  "sourceName": "src/MixerPoolNative.sol",
  "abi": [
    {
      "inputs": [
        {
          "internalType": "address",
          "name": "_verifier",
          "type": "address"
        },
        {
          "internalType": "address",
          "name": "_hasher",
          "type": "address"
        },
        {
          "internalType": "uint256",
          "name": "_denomination",
          "type": "uint256"
        }
      ],
      "stateMutability": "nonpayable",
      "type": "constructor"
    },
    {
      "inputs": [],
      "name": "CommitmentAlreadyUsed",
      "type": "error"
    },
    {
      "inputs": [],
      "name": "InvalidDenomination",
      "type": "error"
    },
    {
      "inputs": [],
      "name": "InvalidFee",
      "type": "error"
    },
    {
      "inputs": [],
      "name": "InvalidMerkleRoot",
      "type": "error"
    },
    {
      "inputs": [],
      "name": "InvalidProof",
      "type": "error"
    },
    {
      "inputs": [],
      "name": "InvalidRoot",
      "type": "error"
    },
    {
      "inputs": [],
      "name": "MerkleTreeFull",
      "type": "error"
    },
    {
      "inputs": [],
      "name": "NullifierAlreadyUsed",
      "type": "error"
    },
    {
      "inputs": [],
      "name": "ReentrancyGuardReentrantCall",
      "type": "error"
    },
    {
      "inputs": [],
      "name": "TransferFailed",
      "type": "error"
    },
    {
      "anonymous": false,
      "inputs": [
        {
          "indexed": true,
          "internalType": "bytes32",
          "name": "commitment",
          "type": "bytes32"
        },
        {
          "indexed": true,
          "internalType": "uint256",
          "name": "leafIndex",
          "type": "uint256"
        },
        {
          "indexed": false,
          "internalType": "uint256",
          "name": "timestamp",
          "type": "uint256"
        }
      ],
      "name": "Deposit",
      "type": "event"
    },
    {
      "anonymous": false,
      "inputs": [
        {
          "indexed": true,
          "internalType": "bytes32",
          "name": "leaf",
          "type": "bytes32"
        },
        {
          "indexed": true,
          "internalType": "uint256",
          "name": "leafIndex",
          "type": "uint256"
        },
        {
          "indexed": false,
          "internalType": "bytes32",
          "name": "newRoot",
          "type": "bytes32"
        }
      ],
      "name": "LeafInserted",
      "type": "event"
    },
    {
      "anonymous": false,
      "inputs": [
        {
          "indexed": true,
          "internalType": "address",
          "name": "recipient",
          "type": "address"
        },
        {
          "indexed": true,
          "internalType": "bytes32",
          "name": "nullifierHash",
          "type": "bytes32"
        },
        {
          "indexed": true,
          "internalType": "address",
          "name": "relayer",
          "type": "address"
        },
        {
          "indexed": false,
          "internalType": "uint256",
          "name": "fee",
          "type": "uint256"
        }
      ],
      "name": "Withdrawal",
      "type": "event"
    },
    {
      "inputs": [],
      "name": "FIELD_SIZE",
      "outputs": [
        {
          "internalType": "uint256",
          "name": "",
          "type": "uint256"
        }
      ],
      "stateMutability": "view",
      "type": "function"
    },
    {
      "inputs": [],
      "name": "ROOT_HISTORY_SIZE",
      "outputs": [
        {
          "internalType": "uint256",
          "name": "",
          "type": "uint256"
        }
      ],
      "stateMutability": "view",
      "type": "function"
    },
    {
      "inputs": [],
      "name": "TREE_DEPTH",
      "outputs": [
        {
          "internalType": "uint256",
          "name": "",
          "type": "uint256"
        }
      ],
      "stateMutability": "view",
      "type": "function"
    },
    {
      "inputs": [
        {
          "internalType": "bytes32",
          "name": "",
          "type": "bytes32"
        }
      ],
      "name": "commitments",
      "outputs": [
        {
          "internalType": "bool",
          "name": "",
          "type": "bool"
        }
      ],
      "stateMutability": "view",
      "type": "function"
    },
    {
      "inputs": [],
      "name": "currentRootIndex",
      "outputs": [
        {
          "internalType": "uint256",
          "name": "",
          "type": "uint256"
        }
      ],
      "stateMutability": "view",
      "type": "function"
    },
    {
      "inputs": [],
      "name": "denomination",
      "outputs": [
        {
          "internalType": "uint256",
          "name": "",
          "type": "uint256"
        }
      ],
      "stateMutability": "view",
      "type": "function"
    },
    {
      "inputs": [
        {
          "internalType": "bytes32",
          "name": "commitment",
          "type": "bytes32"
        }
      ],
      "name": "deposit",
      "outputs": [],
      "stateMutability": "payable",
      "type": "function"
    },
    {
      "inputs": [
        {
          "internalType": "uint256",
          "name": "",
          "type": "uint256"
        }
      ],
      "name": "filledSubtrees",
      "outputs": [
        {
          "internalType": "bytes32",
          "name": "",
          "type": "bytes32"
        }
      ],
      "stateMutability": "view",
      "type": "function"
    },
    {
      "inputs": [],
      "name": "getLatestRoot",
      "outputs": [
        {
          "internalType": "bytes32",
          "name": "",
          "type": "bytes32"
        }
      ],
      "stateMutability": "view",
      "type": "function"
    },
    {
      "inputs": [],
      "name": "getPoolInfo",
      "outputs": [
        {
          "internalType": "uint256",
          "name": "_denomination",
          "type": "uint256"
        },
        {
          "internalType": "uint256",
          "name": "_depositsCount",
          "type": "uint256"
        },
        {
          "internalType": "bytes32",
          "name": "_root",
          "type": "bytes32"
        }
      ],
      "stateMutability": "view",
      "type": "function"
    },
    {
      "inputs": [],
      "name": "hasher",
      "outputs": [
        {
          "internalType": "contract IHasher",
          "name": "",
          "type": "address"
        }
      ],
      "stateMutability": "view",
      "type": "function"
    },
    {
      "inputs": [
        {
          "internalType": "bytes32",
          "name": "commitment",
          "type": "bytes32"
        }
      ],
      "name": "isDeposited",
      "outputs": [
        {
          "internalType": "bool",
          "name": "",
          "type": "bool"
        }
      ],
      "stateMutability": "view",
      "type": "function"
    },
    {
      "inputs": [
        {
          "internalType": "bytes32",
          "name": "root",
          "type": "bytes32"
        }
      ],
      "name": "isKnownRoot",
      "outputs": [
        {
          "internalType": "bool",
          "name": "",
          "type": "bool"
        }
      ],
      "stateMutability": "view",
      "type": "function"
    },
    {
      "inputs": [
        {
          "internalType": "bytes32",
          "name": "nullifierHash",
          "type": "bytes32"
        }
      ],
      "name": "isSpent",
      "outputs": [
        {
          "internalType": "bool",
          "name": "",
          "type": "bool"
        }
      ],
      "stateMutability": "view",
      "type": "function"
    },
    {
      "inputs": [],
      "name": "nextLeafIndex",
      "outputs": [
        {
          "internalType": "uint256",
          "name": "",
          "type": "uint256"
        }
      ],
      "stateMutability": "view",
      "type": "function"
    },
    {
      "inputs": [
        {
          "internalType": "bytes32",
          "name": "",
          "type": "bytes32"
        }
      ],
      "name": "nullifierHashes",
      "outputs": [
        {
          "internalType": "bool",
          "name": "",
          "type": "bool"
        }
      ],
      "stateMutability": "view",
      "type": "function"
    },
    {
      "inputs": [
        {
          "internalType": "uint256",
          "name": "",
          "type": "uint256"
        }
      ],
      "name": "roots",
      "outputs": [
        {
          "internalType": "bytes32",
          "name": "",
          "type": "bytes32"
        }
      ],
      "stateMutability": "view",
      "type": "function"
    },
    {
      "inputs": [],
      "name": "verifier",
      "outputs": [
        {
          "internalType": "contract IVerifierLegacy",
          "name": "",
          "type": "address"
        }
      ],
      "stateMutability": "view",
      "type": "function"
    },
    {
      "inputs": [
        {
          "internalType": "uint256[8]",
          "name": "proof",
          "type": "uint256[8]"
        },
        {
          "internalType": "bytes32",
          "name": "root",
          "type": "bytes32"
        },
        {
          "internalType": "bytes32",
          "name": "nullifierHash",
          "type": "bytes32"
        },
        {
          "internalType": "address payable",
          "name": "recipient",
          "type": "address"
        },
        {
          "internalType": "address payable",
          "name": "relayer",
          "type": "address"
        },
        {
          "internalType": "uint256",
          "name": "fee",
          "type": "uint256"
        }
      ],
      "name": "withdraw",
      "outputs": [],
      "stateMutability": "nonpayable",
      "type": "function"
    },
    {
      "inputs": [
        {
          "internalType": "uint256",
          "name": "",
          "type": "uint256"
        }
      ],
      "name": "zeros",
      "outputs": [
        {
          "internalType": "bytes32",
          "name": "",
          "type": "bytes32"
        }
      ],
      "stateMutability": "view",
      "type": "function"
    },
    {
      "stateMutability": "payable",
      "type": "receive"
    }
  ],
  "bytecode": "0x60e0806040523461015c57606081610c59803803809161001f8285610160565b83398101031261015c5761003281610197565b604061004060208401610197565b9201516001600160a01b039092166080527f07c4283b2fa75d5910795d3d364c3b7ea0eea1ab8202d239d76a40c863f9aced60218190555f8052600160208190527fa6eef7e35abe7026729641147f7915573c7e97b47efa546f5f6e3230263bcb4982905592905b60148410156100d8576100bd816001926101ab565b93848160210155805f52816020528460405f205501926100a8565b6100e38391806101ab565b6002556001603555811561014d576001600160a01b031660a05260c052604051610a2c908161022d823960805181818161019e01526102d0015260a0518181816105cb01526108bc015260c0518181816102880152818161051001528181610782015261081e0152f35b637833d9e360e11b5f5260045ffd5b5f80fd5b601f909101601f19168101906001600160401b0382119082101761018357604052565b634e487b7160e01b5f52604160045260245ffd5b51906001600160a01b038216820361015c57565b60805160405163f47d33b560e01b81526004810192909252602482019290925290602090829060449082906001600160a01b03165afa908115610221575f916101f2575090565b90506020813d602011610219575b8161020d60209383610160565b8101031261015c575190565b3d9150610200565b6040513d5f823e3d90fdfe6080806040526004361015610058575b50361561001a575f80fd5b60405162461bcd60e51b81526020600482015260166024820152752ab9b2903232b837b9b4ba141490333ab731ba34b7b760511b6044820152606490fd5b5f3560e01c9081630be4f422146108eb5750806317cc915c146101f9578063230ddd90146107a55780632b7ac3f3146108a7578063414a37ba1461086d5780635445b0071461084b57806360246c88146107fc5780636d9833e3146107d4578063839df945146107a55780638bca6d161461076b57806390eeb02b1461074f578063a151918a146104b1578063b214faa51461026f578063c2b40ae414610243578063cd87a3b414610228578063e5285dcc146101f9578063e8295588146101cd578063ed33639f14610189578063f16505361461016e5763f178e47c14610140575f61000f565b3461016a57602036600319011261016a576004355f526001602052602060405f2054604051908152f35b5f80fd5b3461016a575f36600319011261016a57602060405160148152f35b3461016a575f36600319011261016a576040517f00000000000000000000000000000000000000000000000000000000000000006001600160a01b03168152602090f35b3461016a57602036600319011261016a57600435601481101561016a5760209060210154604051908152f35b3461016a57602036600319011261016a576004355f526036602052602060ff60405f2054166040519015158152f35b3461016a575f36600319011261016a576020604051601e8152f35b3461016a57602036600319011261016a57600435601e81101561016a5760209060020154604051908152f35b602036600319011261016a576004356102866109d6565b7f000000000000000000000000000000000000000000000000000000000000000034036104a257805f52603760205260ff60405f205416610493575f5462100000811015610484577f00000000000000000000000000000000000000000000000000000000000000006001600160a01b031691905f9080835b60148410156103b357600183166103a05780846021015490855f52600160205260405f20555b6040519163f47d33b560e01b835260048301526024820152602081604481895afa8015610395575f90610363575b6001915092811c930192916102ff565b506020813d821161038d575b8161037c60209383610975565b8101031261016a5760019051610353565b3d915061036f565b6040513d5f823e3d90fd5b835f52600160205260405f205490610325565b84906020546001810180911161045c57601e9006601e811015610470578181600201556020556001830180841161045c577fd50e83984b64a106ac2ee6314d689ec4d2a656d5ece6d94c585796944b52240c6020859385935f55604051908152a3805f52603760205260405f20600160ff198254161790557fe1f1096fd8bc7d572fb7ad7e4102736b6615500975c0252ea91ef1b765c498976020604051428152a36001603555005b634e487b7160e01b5f52601160045260245ffd5b634e487b7160e01b5f52603260045260245ffd5b6377ae67b360e11b5f5260045ffd5b635be00f0f60e11b5f5260045ffd5b637833d9e360e11b5f5260045ffd5b3461016a576101a036600319011261016a57366101041161016a576101043561012435610144356001600160a01b0381169081900361016a57610164356001600160a01b038116939084900361016a57610184359061050e6109d6565b7f00000000000000000000000000000000000000000000000000000000000000009081831161074057845f52603660205260ff60405f2054166107315761055481610917565b15610722576040519060c0820182811067ffffffffffffffff82111761070e5760405281528460208201528360408201528560608201528260808201528160a08201526040519063139650cb60e31b82526101006004808401375f61010483015b600682106106f85750602091508290506101c4817f00000000000000000000000000000000000000000000000000000000000000006001600160a01b03165afa908115610395575f916106bd575b50156106ae57835f52603660205260405f20600160ff1982541617905581810390811161045c575f80808093865af161063a610997565b501561069657801515806106a5575b610680575b60207fe9e508bad6d4c3227e881ca19068f099da81b5164dd6d62b2eaf1e8bc6c3493191604051908152a46001603555005b5f80808084885af1610690610997565b5061064e575b6312171d8360e31b5f5260045ffd5b50831515610649565b6309bde33960e01b5f5260045ffd5b90506020813d6020116106f0575b816106d860209383610975565b8101031261016a5751801515810361016a5786610603565b3d91506106cb565b60208060019285518152019301910190916105b5565b634e487b7160e01b5f52604160045260245ffd5b639dd854d360e01b5f5260045ffd5b636569570160e11b5f5260045ffd5b6358d620b360e01b5f5260045ffd5b3461016a575f36600319011261016a5760208054604051908152f35b3461016a575f36600319011261016a5760206040517f00000000000000000000000000000000000000000000000000000000000000008152f35b3461016a57602036600319011261016a576004355f526037602052602060ff60405f2054166040519015158152f35b3461016a57602036600319011261016a5760206107f2600435610917565b6040519015158152f35b3461016a575f36600319011261016a5760605f54610818610904565b604051917f0000000000000000000000000000000000000000000000000000000000000000835260208301526040820152f35b3461016a575f36600319011261016a576020610865610904565b604051908152f35b3461016a575f36600319011261016a5760206040517f30644e72e131a029b85045b68181585d2833e84879b9709143e1f593f00000018152f35b3461016a575f36600319011261016a576040517f00000000000000000000000000000000000000000000000000000000000000006001600160a01b03168152602090f35b3461016a575f36600319011261016a576020905f548152f35b602054601e811015610470576002015490565b90811561097057602054918260015b15610962575b5f93601e811015610470578060020154831461095957806109505750601d93610926565b5f190193610926565b50600193505050565b80840361092c57505f925050565b5f9150565b90601f8019910116810190811067ffffffffffffffff82111761070e57604052565b3d156109d1573d9067ffffffffffffffff821161070e57604051916109c6601f8201601f191660200184610975565b82523d5f602084013e565b606090565b6002603554146109e7576002603555565b633ee5aeb560e01b5f5260045ffdfea26469706673582212201ac16e05f6e7728acd31e93f68b69b8216eba807e119c5e46097d0a103136e6664736f6c634300081e0033",
  "linkReferences": {},
  "deployedLinkReferences": {}
}