{
  "_format": "hh-sol-artifact-1",
  "contractName": "MixerPoolV2",
  "sourceName": "src/MixerPoolV2.sol",
  "abi": [
    {
      "inputs": [
        {
          "internalType": "address",
          "name": "_verifier",
          "type": "address"
        },
        {
          "internalType": "address",
          "name": "_hasher",
          "type": "address"
        },
        {
          "internalType": "address",
          "name": "_token",
          "type": "address"
        },
        {
          "internalType": "uint256",
          "name": "_denomination",
          "type": "uint256"
        }
      ],
      "stateMutability": "nonpayable",
      "type": "constructor"
    },
    {
      "inputs": [],
      "name": "CommitmentAlreadyExists",
      "type": "error"
    },
    {
      "inputs": [],
      "name": "InvalidDelay",
      "type": "error"
    },
    {
      "inputs": [],
      "name": "InvalidDenomination",
      "type": "error"
    },
    {
      "inputs": [],
      "name": "InvalidFee",
      "type": "error"
    },
    {
      "inputs": [],
      "name": "InvalidMerkleRoot",
      "type": "error"
    },
    {
      "inputs": [],
      "name": "InvalidProof",
      "type": "error"
    },
    {
      "inputs": [],
      "name": "InvalidRoot",
      "type": "error"
    },
    {
      "inputs": [],
      "name": "MerkleTreeFull",
      "type": "error"
    },
    {
      "inputs": [],
      "name": "NullifierAlreadyPending",
      "type": "error"
    },
    {
      "inputs": [],
      "name": "NullifierAlreadySpent",
      "type": "error"
    },
    {
      "inputs": [],
      "name": "ReentrancyGuardReentrantCall",
      "type": "error"
    },
    {
      "inputs": [
        {
          "internalType": "address",
          "name": "token",
          "type": "address"
        }
      ],
      "name": "SafeERC20FailedOperation",
      "type": "error"
    },
    {
      "inputs": [],
      "name": "TransferFailed",
      "type": "error"
    },
    {
      "inputs": [],
      "name": "WithdrawalAlreadyExecuted",
      "type": "error"
    },
    {
      "inputs": [],
      "name": "WithdrawalNotFound",
      "type": "error"
    },
    {
      "inputs": [],
      "name": "WithdrawalNotReady",
      "type": "error"
    },
    {
      "anonymous": false,
      "inputs": [
        {
          "indexed": true,
          "internalType": "bytes32",
          "name": "commitment",
          "type": "bytes32"
        },
        {
          "indexed": true,
          "internalType": "uint256",
          "name": "leafIndex",
          "type": "uint256"
        },
        {
          "indexed": false,
          "internalType": "uint256",
          "name": "timestamp",
          "type": "uint256"
        }
      ],
      "name": "Deposit",
      "type": "event"
    },
    {
      "anonymous": false,
      "inputs": [
        {
          "indexed": true,
          "internalType": "bytes32",
          "name": "leaf",
          "type": "bytes32"
        },
        {
          "indexed": true,
          "internalType": "uint256",
          "name": "leafIndex",
          "type": "uint256"
        },
        {
          "indexed": false,
          "internalType": "bytes32",
          "name": "newRoot",
          "type": "bytes32"
        }
      ],
      "name": "LeafInserted",
      "type": "event"
    },
    {
      "anonymous": false,
      "inputs": [
        {
          "indexed": true,
          "internalType": "address",
          "name": "recipient",
          "type": "address"
        },
        {
          "indexed": true,
          "internalType": "bytes32",
          "name": "nullifierHash",
          "type": "bytes32"
        },
        {
          "indexed": true,
          "internalType": "address",
          "name": "relayer",
          "type": "address"
        },
        {
          "indexed": false,
          "internalType": "uint256",
          "name": "fee",
          "type": "uint256"
        }
      ],
      "name": "Withdrawal",
      "type": "event"
    },
    {
      "anonymous": false,
      "inputs": [
        {
          "indexed": true,
          "internalType": "bytes32",
          "name": "nullifierHash",
          "type": "bytes32"
        },
        {
          "indexed": true,
          "internalType": "address",
          "name": "recipient",
          "type": "address"
        }
      ],
      "name": "WithdrawalCancelled",
      "type": "event"
    },
    {
      "anonymous": false,
      "inputs": [
        {
          "indexed": true,
          "internalType": "bytes32",
          "name": "nullifierHash",
          "type": "bytes32"
        },
        {
          "indexed": true,
          "internalType": "address",
          "name": "recipient",
          "type": "address"
        },
        {
          "indexed": true,
          "internalType": "address",
          "name": "executor",
          "type": "address"
        },
        {
          "indexed": false,
          "internalType": "uint256",
          "name": "amount",
          "type": "uint256"
        }
      ],
      "name": "WithdrawalExecuted",
      "type": "event"
    },
    {
      "anonymous": false,
      "inputs": [
        {
          "indexed": true,
          "internalType": "bytes32",
          "name": "nullifierHash",
          "type": "bytes32"
        },
        {
          "indexed": true,
          "internalType": "address",
          "name": "recipient",
          "type": "address"
        },
        {
          "indexed": false,
          "internalType": "uint256",
          "name": "unlockTime",
          "type": "uint256"
        },
        {
          "indexed": false,
          "internalType": "uint256",
          "name": "delay",
          "type": "uint256"
        }
      ],
      "name": "WithdrawalScheduled",
      "type": "event"
    },
    {
      "inputs": [],
      "name": "FIELD_SIZE",
      "outputs": [
        {
          "internalType": "uint256",
          "name": "",
          "type": "uint256"
        }
      ],
      "stateMutability": "view",
      "type": "function"
    },
    {
      "inputs": [],
      "name": "MAX_DELAY",
      "outputs": [
        {
          "internalType": "uint256",
          "name": "",
          "type": "uint256"
        }
      ],
      "stateMutability": "view",
      "type": "function"
    },
    {
      "inputs": [],
      "name": "MIN_DELAY",
      "outputs": [
        {
          "internalType": "uint256",
          "name": "",
          "type": "uint256"
        }
      ],
      "stateMutability": "view",
      "type": "function"
    },
    {
      "inputs": [],
      "name": "ROOT_HISTORY_SIZE",
      "outputs": [
        {
          "internalType": "uint256",
          "name": "",
          "type": "uint256"
        }
      ],
      "stateMutability": "view",
      "type": "function"
    },
    {
      "inputs": [],
      "name": "TREE_DEPTH",
      "outputs": [
        {
          "internalType": "uint256",
          "name": "",
          "type": "uint256"
        }
      ],
      "stateMutability": "view",
      "type": "function"
    },
    {
      "inputs": [
        {
          "internalType": "bytes32",
          "name": "",
          "type": "bytes32"
        }
      ],
      "name": "commitments",
      "outputs": [
        {
          "internalType": "bool",
          "name": "",
          "type": "bool"
        }
      ],
      "stateMutability": "view",
      "type": "function"
    },
    {
      "inputs": [],
      "name": "currentRootIndex",
      "outputs": [
        {
          "internalType": "uint256",
          "name": "",
          "type": "uint256"
        }
      ],
      "stateMutability": "view",
      "type": "function"
    },
    {
      "inputs": [],
      "name": "denomination",
      "outputs": [
        {
          "internalType": "uint256",
          "name": "",
          "type": "uint256"
        }
      ],
      "stateMutability": "view",
      "type": "function"
    },
    {
      "inputs": [
        {
          "internalType": "bytes32",
          "name": "commitment",
          "type": "bytes32"
        }
      ],
      "name": "deposit",
      "outputs": [],
      "stateMutability": "nonpayable",
      "type": "function"
    },
    {
      "inputs": [
        {
          "internalType": "bytes32",
          "name": "nullifierHash",
          "type": "bytes32"
        }
      ],
      "name": "executeScheduledWithdrawal",
      "outputs": [],
      "stateMutability": "nonpayable",
      "type": "function"
    },
    {
      "inputs": [
        {
          "internalType": "uint256",
          "name": "",
          "type": "uint256"
        }
      ],
      "name": "filledSubtrees",
      "outputs": [
        {
          "internalType": "bytes32",
          "name": "",
          "type": "bytes32"
        }
      ],
      "stateMutability": "view",
      "type": "function"
    },
    {
      "inputs": [],
      "name": "getLatestRoot",
      "outputs": [
        {
          "internalType": "bytes32",
          "name": "",
          "type": "bytes32"
        }
      ],
      "stateMutability": "view",
      "type": "function"
    },
    {
      "inputs": [
        {
          "internalType": "bytes32",
          "name": "nullifierHash",
          "type": "bytes32"
        }
      ],
      "name": "getPendingWithdrawal",
      "outputs": [
        {
          "internalType": "address",
          "name": "recipient",
          "type": "address"
        },
        {
          "internalType": "address",
          "name": "relayer",
          "type": "address"
        },
        {
          "internalType": "uint256",
          "name": "fee",
          "type": "uint256"
        },
        {
          "internalType": "uint256",
          "name": "unlockTime",
          "type": "uint256"
        },
        {
          "internalType": "bool",
          "name": "executed",
          "type": "bool"
        },
        {
          "internalType": "bool",
          "name": "exists",
          "type": "bool"
        }
      ],
      "stateMutability": "view",
      "type": "function"
    },
    {
      "inputs": [],
      "name": "getPoolInfo",
      "outputs": [
        {
          "internalType": "address",
          "name": "_token",
          "type": "address"
        },
        {
          "internalType": "uint256",
          "name": "_denomination",
          "type": "uint256"
        },
        {
          "internalType": "uint256",
          "name": "_depositsCount",
          "type": "uint256"
        },
        {
          "internalType": "bytes32",
          "name": "_root",
          "type": "bytes32"
        }
      ],
      "stateMutability": "view",
      "type": "function"
    },
    {
      "inputs": [],
      "name": "getPoolInfoV2",
      "outputs": [
        {
          "internalType": "address",
          "name": "_token",
          "type": "address"
        },
        {
          "internalType": "uint256",
          "name": "_denomination",
          "type": "uint256"
        },
        {
          "internalType": "uint256",
          "name": "_depositsCount",
          "type": "uint256"
        },
        {
          "internalType": "uint256",
          "name": "_scheduledCount",
          "type": "uint256"
        },
        {
          "internalType": "bytes32",
          "name": "_root",
          "type": "bytes32"
        },
        {
          "internalType": "uint256",
          "name": "_minDelay",
          "type": "uint256"
        },
        {
          "internalType": "uint256",
          "name": "_maxDelay",
          "type": "uint256"
        }
      ],
      "stateMutability": "view",
      "type": "function"
    },
    {
      "inputs": [
        {
          "internalType": "bytes32",
          "name": "nullifierHash",
          "type": "bytes32"
        }
      ],
      "name": "getWithdrawalStatus",
      "outputs": [
        {
          "internalType": "uint256",
          "name": "timeRemaining",
          "type": "uint256"
        },
        {
          "internalType": "uint256",
          "name": "unlockTime",
          "type": "uint256"
        },
        {
          "internalType": "bool",
          "name": "isReady",
          "type": "bool"
        },
        {
          "internalType": "bool",
          "name": "executed",
          "type": "bool"
        }
      ],
      "stateMutability": "view",
      "type": "function"
    },
    {
      "inputs": [],
      "name": "hasher",
      "outputs": [
        {
          "internalType": "contract IHasher",
          "name": "",
          "type": "address"
        }
      ],
      "stateMutability": "view",
      "type": "function"
    },
    {
      "inputs": [
        {
          "internalType": "bytes32",
          "name": "commitment",
          "type": "bytes32"
        }
      ],
      "name": "isDeposited",
      "outputs": [
        {
          "internalType": "bool",
          "name": "",
          "type": "bool"
        }
      ],
      "stateMutability": "view",
      "type": "function"
    },
    {
      "inputs": [
        {
          "internalType": "bytes32",
          "name": "root",
          "type": "bytes32"
        }
      ],
      "name": "isKnownRoot",
      "outputs": [
        {
          "internalType": "bool",
          "name": "",
          "type": "bool"
        }
      ],
      "stateMutability": "view",
      "type": "function"
    },
    {
      "inputs": [
        {
          "internalType": "bytes32",
          "name": "nullifierHash",
          "type": "bytes32"
        }
      ],
      "name": "isSpent",
      "outputs": [
        {
          "internalType": "bool",
          "name": "",
          "type": "bool"
        }
      ],
      "stateMutability": "view",
      "type": "function"
    },
    {
      "inputs": [],
      "name": "nextLeafIndex",
      "outputs": [
        {
          "internalType": "uint256",
          "name": "",
          "type": "uint256"
        }
      ],
      "stateMutability": "view",
      "type": "function"
    },
    {
      "inputs": [
        {
          "internalType": "bytes32",
          "name": "",
          "type": "bytes32"
        }
      ],
      "name": "nullifierHashes",
      "outputs": [
        {
          "internalType": "bool",
          "name": "",
          "type": "bool"
        }
      ],
      "stateMutability": "view",
      "type": "function"
    },
    {
      "inputs": [
        {
          "internalType": "bytes32",
          "name": "",
          "type": "bytes32"
        }
      ],
      "name": "pendingWithdrawals",
      "outputs": [
        {
          "internalType": "address",
          "name": "recipient",
          "type": "address"
        },
        {
          "internalType": "address",
          "name": "relayer",
          "type": "address"
        },
        {
          "internalType": "uint256",
          "name": "fee",
          "type": "uint256"
        },
        {
          "internalType": "uint256",
          "name": "unlockTime",
          "type": "uint256"
        },
        {
          "internalType": "bool",
          "name": "executed",
          "type": "bool"
        },
        {
          "internalType": "bool",
          "name": "exists",
          "type": "bool"
        }
      ],
      "stateMutability": "view",
      "type": "function"
    },
    {
      "inputs": [
        {
          "internalType": "uint256",
          "name": "",
          "type": "uint256"
        }
      ],
      "name": "roots",
      "outputs": [
        {
          "internalType": "bytes32",
          "name": "",
          "type": "bytes32"
        }
      ],
      "stateMutability": "view",
      "type": "function"
    },
    {
      "inputs": [
        {
          "internalType": "uint256[8]",
          "name": "proof",
          "type": "uint256[8]"
        },
        {
          "internalType": "bytes32",
          "name": "root",
          "type": "bytes32"
        },
        {
          "internalType": "bytes32",
          "name": "nullifierHash",
          "type": "bytes32"
        },
        {
          "internalType": "address",
          "name": "recipient",
          "type": "address"
        },
        {
          "internalType": "address",
          "name": "relayer",
          "type": "address"
        },
        {
          "internalType": "uint256",
          "name": "fee",
          "type": "uint256"
        },
        {
          "internalType": "uint256",
          "name": "delay",
          "type": "uint256"
        }
      ],
      "name": "scheduleWithdrawal",
      "outputs": [],
      "stateMutability": "nonpayable",
      "type": "function"
    },
    {
      "inputs": [],
      "name": "scheduledCount",
      "outputs": [
        {
          "internalType": "uint256",
          "name": "",
          "type": "uint256"
        }
      ],
      "stateMutability": "view",
      "type": "function"
    },
    {
      "inputs": [],
      "name": "token",
      "outputs": [
        {
          "internalType": "contract IERC20",
          "name": "",
          "type": "address"
        }
      ],
      "stateMutability": "view",
      "type": "function"
    },
    {
      "inputs": [],
      "name": "verifier",
      "outputs": [
        {
          "internalType": "contract IVerifier",
          "name": "",
          "type": "address"
        }
      ],
      "stateMutability": "view",
      "type": "function"
    },
    {
      "inputs": [
        {
          "internalType": "uint256[8]",
          "name": "proof",
          "type": "uint256[8]"
        },
        {
          "internalType": "bytes32",
          "name": "root",
          "type": "bytes32"
        },
        {
          "internalType": "bytes32",
          "name": "nullifierHash",
          "type": "bytes32"
        },
        {
          "internalType": "address",
          "name": "recipient",
          "type": "address"
        },
        {
          "internalType": "address",
          "name": "relayer",
          "type": "address"
        },
        {
          "internalType": "uint256",
          "name": "fee",
          "type": "uint256"
        }
      ],
      "name": "withdraw",
      "outputs": [],
      "stateMutability": "nonpayable",
      "type": "function"
    },
    {
      "inputs": [
        {
          "internalType": "uint256",
          "name": "",
          "type": "uint256"
        }
      ],
      "name": "zeros",
      "outputs": [
        {
          "internalType": "bytes32",
          "name": "",
          "type": "bytes32"
        }
      ],
      "stateMutability": "view",
      "type": "function"
    }
  ],
  "bytecode": "0x610100604052348015610010575f5ffd5b506040516118e03803806118e083398101604081905261002f916101e9565b6001600160a01b038316608052825f6100887f30644e72e131a029b85045b68181585d2833e84879b9709143e1f593f00000017f98f11393d33c3dd6396a2e60bad04496198a5a84ef2f23eda310218433f9acf0610231565b90508060215f01555f8052600160208190527fa6eef7e35abe7026729641147f7915573c7e97b47efa546f5f6e3230263bcb498290555b6014811015610103576100d28280610155565b915081602182601481106100e8576100e8610250565b01555f818152600160208190526040909120839055016100bf565b5061010e8180610155565b600255505060016035555f81900361013957604051637833d9e360e11b815260040160405180910390fd5b6001600160a01b0393841660c052921660a0525060e05261027b565b60805160405163f47d33b560e01b815260048101849052602481018390525f916001600160a01b03169063f47d33b590604401602060405180830381865afa1580156101a3573d5f5f3e3d5ffd5b505050506040513d601f19601f820116820180604052508101906101c79190610264565b9392505050565b80516001600160a01b03811681146101e4575f5ffd5b919050565b5f5f5f5f608085870312156101fc575f5ffd5b610205856101ce565b9350610213602086016101ce565b9250610221604086016101ce565b6060959095015193969295505050565b5f8261024b57634e487b7160e01b5f52601260045260245ffd5b500690565b634e487b7160e01b5f52603260045260245ffd5b5f60208284031215610274575f5ffd5b5051919050565b60805160a05160c05160e0516115d06103105f395f8181610381015281816108ee01528181610aa001528181610c1e01528181610c9701528181610d0b01528181610da40152610ece01525f81816102490152610dd801525f81816105bf015281816108cd01528181610a7c01528181610c7601528181610f010152610f5101525f818161052a015261117f01526115d05ff3fe608060405234801561000f575f5ffd5b50600436106101d1575f3560e01c80639f81aed7116100fe578063e11d84e21161009e578063f16505361161006e578063f16505361461054c578063f178e47c14610554578063f499c19614610573578063fc0c546a146105ba575f5ffd5b8063e11d84e2146104dd578063e5285dcc146104f0578063e829558814610512578063ed33639f14610525575f5ffd5b8063b7f06ebe116100d9578063b7f06ebe146103db578063c2b40ae41461046b578063cd87a3b41461047e578063d0fe00db14610486575f5ffd5b80639f81aed7146103ac578063a151918a146103b5578063b214faa5146103c8575f5ffd5b80635e35d480116101745780636d9833e3116101445780636d9833e314610347578063839df9451461035a5780638bca6d161461037c57806390eeb02b146103a3575f5ffd5b80635e35d480146102bc5780635f18f590146102d157806360246c881461030c5780636c28fa751461033e575f5ffd5b80632b7ac3f3116101af5780632b7ac3f3146102445780634125ff9014610283578063414a37ba1461028d5780635445b007146102b4575f5ffd5b80630be4f422146101d557806317cc915c146101f0578063230ddd9014610222575b5f5ffd5b6101dd5f5481565b6040519081526020015b60405180910390f35b6102126101fe366004611269565b60366020525f908152604090205460ff1681565b60405190151581526020016101e7565b610212610230366004611269565b5f9081526037602052604090205460ff1690565b61026b7f000000000000000000000000000000000000000000000000000000000000000081565b6040516001600160a01b0390911681526020016101e7565b6101dd62093a8081565b6101dd7f30644e72e131a029b85045b68181585d2833e84879b9709143e1f593f000000181565b6101dd6105e1565b6102cf6102ca3660046112ac565b6105fe565b005b6102e46102df366004611269565b610852565b60408051948552602085019390935290151591830191909152151560608201526080016101e7565b6103146108c7565b604080516001600160a01b03909516855260208501939093529183015260608201526080016101e7565b6101dd60395481565b610212610355366004611269565b610925565b610212610368366004611269565b60376020525f908152604090205460ff1681565b6101dd7f000000000000000000000000000000000000000000000000000000000000000081565b6101dd60205481565b6101dd610e1081565b6102cf6103c336600461131a565b610993565b6102cf6103d6366004611269565b610a14565b61042f6103e9366004611269565b60386020525f9081526040902080546001820154600283015460038401546004909401546001600160a01b03938416949390921692909160ff8082169161010090041686565b604080516001600160a01b03978816815296909516602087015293850192909252606084015215156080830152151560a082015260c0016101e7565b6101dd610479366004611269565b610b0d565b6101dd601e81565b61042f610494366004611269565b5f90815260386020526040902080546001820154600283015460038401546004909401546001600160a01b039384169593909216939092909160ff808216926101009092041690565b6102cf6104eb366004611269565b610b23565b6102126104fe366004611269565b5f9081526036602052604090205460ff1690565b6101dd610520366004611269565b610c5e565b61026b7f000000000000000000000000000000000000000000000000000000000000000081565b6101dd601481565b6101dd610562366004611269565b60016020525f908152604090205481565b61057b610c6d565b604080516001600160a01b0390981688526020880196909652948601939093526060850191909152608084015260a083015260c082015260e0016101e7565b61026b7f000000000000000000000000000000000000000000000000000000000000000081565b5f6002602054601e81106105f7576105f761137e565b0154905090565b610606610cdf565b610e10811080610618575062093a8081115b15610636576040516327df2edd60e11b815260040160405180910390fd5b5f85815260386020526040902060040154610100900460ff161561066d5760405163246ad63b60e01b815260040160405180910390fd5b61067b878787878787610d09565b5f8581526036602052604090205460ff16156106aa5760405163b115d85760e01b815260040160405180910390fd5b5f6106b582426113a6565b90506040518060c00160405280866001600160a01b03168152602001856001600160a01b031681526020018481526020018281526020015f151581526020016001151581525060385f8881526020019081526020015f205f820151815f015f6101000a8154816001600160a01b0302191690836001600160a01b031602179055506020820151816001015f6101000a8154816001600160a01b0302191690836001600160a01b0316021790555060408201518160020155606082015181600301556080820151816004015f6101000a81548160ff02191690831515021790555060a08201518160040160016101000a81548160ff021916908315150217905550905050600160365f8881526020019081526020015f205f6101000a81548160ff02191690831515021790555060395f8154809291906107f3906113b9565b909155505060408051828152602081018490526001600160a01b0387169188917f3b423fbfee76039f99f543e0aff845bc6fcf27114930f0ee213ca425ad2ab754910160405180910390a3506108496001603555565b50505050505050565b5f818152603860205260408120600481015482918291829190610100900460ff16610889575f5f5f5f9450945094509450506108c0565b6003810154600482015490945060ff1691504284116108ae575f9450811592506108be565b6108b842856113d1565b94505f92505b505b9193509193565b5f5f5f5f7f00000000000000000000000000000000000000000000000000000000000000007f00000000000000000000000000000000000000000000000000000000000000005f546109176105e1565b935093509350935090919293565b5f8161093257505f919050565b6020545b600281601e81106109495761094961137e565b0154830361095a5750600192915050565b805f036109745761096d6001601e6113d1565b9050610982565b8061097e816113e4565b9150505b602054810361093657505f92915050565b61099b610cdf565b6109a9868686868686610e6b565b6109b4838383610ec7565b816001600160a01b031684846001600160a01b03167fe9e508bad6d4c3227e881ca19068f099da81b5164dd6d62b2eaf1e8bc6c34931846040516109fa91815260200190565b60405180910390a4610a0c6001603555565b505050505050565b610a1c610cdf565b5f8181526037602052604090205460ff1615610a4b5760405163145718a760e01b815260040160405180910390fd5b5f610a5582610f7e565b5f838152603760205260409020805460ff191660011790559050610ac46001600160a01b037f00000000000000000000000000000000000000000000000000000000000000001633307f00000000000000000000000000000000000000000000000000000000000000006110c3565b80827fe1f1096fd8bc7d572fb7ad7e4102736b6615500975c0252ea91ef1b765c4989742604051610af791815260200190565b60405180910390a350610b0a6001603555565b50565b600281601e8110610b1c575f80fd5b0154905081565b610b2b610cdf565b5f8181526038602052604090206004810154610100900460ff16610b6257604051638d0fc1dd60e01b815260040160405180910390fd5b600481015460ff1615610b8857604051632569702d60e21b815260040160405180910390fd5b8060030154421015610bad57604051630f2ca6e760e01b815260040160405180910390fd5b60048101805460ff191660019081179091558154908201546002830154610be1926001600160a01b03908116921690610ec7565b8054600282015433916001600160a01b03169084907fedbb1d2a668dc012e1f90419b492c1cdd90c45e48afaa766e9befc71e992d70c90610c42907f00000000000000000000000000000000000000000000000000000000000000006113d1565b60405190815260200160405180910390a450610b0a6001603555565b60218160148110610b1c575f80fd5b5f5f5f5f5f5f5f7f00000000000000000000000000000000000000000000000000000000000000007f00000000000000000000000000000000000000000000000000000000000000005f54603954610cc36105e1565b939b929a509098509650909450610e10935062093a8092509050565b600260355403610d0257604051633ee5aeb560e01b815260040160405180910390fd5b6002603555565b7f0000000000000000000000000000000000000000000000000000000000000000811115610d4a576040516358d620b360e01b815260040160405180910390fd5b610d5385610925565b610d7057604051639dd854d360e01b815260040160405180910390fd5b6040805160c081018252868152602081018690526001600160a01b03808616828401528481166060830152608082018490527f000000000000000000000000000000000000000000000000000000000000000060a0830152915163139650cb60e31b815290917f00000000000000000000000000000000000000000000000000000000000000001690639cb2865890610e0f908a9085906004016113f9565b602060405180830381865afa158015610e2a573d5f5f3e3d5ffd5b505050506040513d601f19601f82011682018060405250810190610e4e9190611435565b610849576040516309bde33960e01b815260040160405180910390fd5b5f8481526036602052604090205460ff1615610e9a5760405163b115d85760e01b815260040160405180910390fd5b610ea8868686868686610d09565b5050505f908152603660205260409020805460ff191660011790555050565b5f610ef2827f00000000000000000000000000000000000000000000000000000000000000006113d1565b9050610f286001600160a01b037f000000000000000000000000000000000000000000000000000000000000000016858361112a565b5f82118015610f3f57506001600160a01b03831615155b15610f7857610f786001600160a01b037f000000000000000000000000000000000000000000000000000000000000000016848461112a565b50505050565b5f8054610f8d6014600261153e565b8110610fac576040516377ae67b360e11b815260040160405180910390fd5b80835f80805b601481101561103057610fc660028661155d565b5f03610ffb5783925060218160148110610fe257610fe261137e565b01545f828152600160205260409020859055915061100f565b5f8181526001602052604090205492508391505b6110198383611160565b9350611026600286611570565b9450600101610fb2565b505f601e602054600161104391906113a6565b61104d919061155d565b905083600282601e81106110635761106361137e565b015560208190556110758660016113a6565b5f8190555085965086887fd50e83984b64a106ac2ee6314d689ec4d2a656d5ece6d94c585796944b52240c866040516110b091815260200190565b60405180910390a3505050505050919050565b6040516001600160a01b038481166024830152838116604483015260648201839052610f789186918216906323b872dd906084015b604051602081830303815290604052915060e01b6020820180516001600160e01b0383818316178352505050506111f9565b6040516001600160a01b0383811660248301526044820183905261115b91859182169063a9059cbb906064016110f8565b505050565b60405163f47d33b560e01b815260048101839052602481018290525f907f00000000000000000000000000000000000000000000000000000000000000006001600160a01b03169063f47d33b590604401602060405180830381865afa1580156111cc573d5f5f3e3d5ffd5b505050506040513d601f19601f820116820180604052508101906111f09190611583565b90505b92915050565b5f5f60205f8451602086015f885af180611218576040513d5f823e3d81fd5b50505f513d9150811561122f57806001141561123c565b6001600160a01b0384163b155b15610f7857604051635274afe760e01b81526001600160a01b038516600482015260240160405180910390fd5b5f60208284031215611279575f5ffd5b5035919050565b8061010081018310156111f3575f5ffd5b80356001600160a01b03811681146112a7575f5ffd5b919050565b5f5f5f5f5f5f5f6101c0888a0312156112c3575f5ffd5b6112cd8989611280565b9650610100880135955061012088013594506112ec6101408901611291565b93506112fb6101608901611291565b9699959850939692959461018084013594506101a09093013592915050565b5f5f5f5f5f5f6101a08789031215611330575f5ffd5b61133a8888611280565b9550610100870135945061012087013593506113596101408801611291565b92506113686101608801611291565b9598949750929591949361018090920135925050565b634e487b7160e01b5f52603260045260245ffd5b634e487b7160e01b5f52601160045260245ffd5b808201808211156111f3576111f3611392565b5f600182016113ca576113ca611392565b5060010190565b818103818111156111f3576111f3611392565b5f816113f2576113f2611392565b505f190190565b6101c081016101008483376101008201835f5b600681101561142b57815183526020928301929091019060010161140c565b5050509392505050565b5f60208284031215611445575f5ffd5b81518015158114611454575f5ffd5b9392505050565b6001815b60018411156114965780850481111561147a5761147a611392565b600184161561148857908102905b60019390931c92800261145f565b935093915050565b5f826114ac575060016111f3565b816114b857505f6111f3565b81600181146114ce57600281146114d8576114f4565b60019150506111f3565b60ff8411156114e9576114e9611392565b50506001821b6111f3565b5060208310610133831016604e8410600b8410161715611517575081810a6111f3565b6115235f19848461145b565b805f190482111561153657611536611392565b029392505050565b5f611454838361149e565b634e487b7160e01b5f52601260045260245ffd5b5f8261156b5761156b611549565b500690565b5f8261157e5761157e611549565b500490565b5f60208284031215611593575f5ffd5b505191905056fea26469706673582212202f29666c8fa00403012c0fb2d4ed3465c40cd812cac3100d57339f336963bf4864736f6c634300081e0033",
  "linkReferences": {},
  "deployedLinkReferences": {}
}