{
  "_format": "hh-sol-artifact-1",
  "contractName": "Hasher",
  "sourceName": "src/Hasher.sol",
  "abi": [
    {
      "inputs": [],
      "stateMutability": "nonpayable",
      "type": "constructor"
    },
    {
      "inputs": [
        {
          "internalType": "uint256",
          "name": "left",
          "type": "uint256"
        },
        {
          "internalType": "uint256",
          "name": "right",
          "type": "uint256"
        }
      ],
      "name": "MiMCSponge",
      "outputs": [
        {
          "internalType": "uint256",
          "name": "result",
          "type": "uint256"
        }
      ],
      "stateMutability": "view",
      "type": "function"
    },
    {
      "inputs": [
        {
          "internalType": "uint256",
          "name": "input",
          "type": "uint256"
        }
      ],
      "name": "hash",
      "outputs": [
        {
          "internalType": "uint256",
          "name": "result",
          "type": "uint256"
        }
      ],
      "stateMutability": "view",
      "type": "function"
    }
  ],
  "bytecode": "0x60806040523460a2575f5b60dc81101560935760405190602082016c646f67656e61646f5f6d696d6360981b815281602d840152602d8352606083019083821060018060401b03831117607f576001937f30644e72e131a029b85045b68181585d2833e84879b9709143e1f593f00000019260405251902006815501600a565b634e487b7160e01b5f52604160045260245ffd5b60405161023790816100a78239f35b5f80fdfe6080806040526004361015610012575f80fd5b5f3560e01c908163b189fd4c1461012f575063f47d33b514610032575f80fd5b3461012b57604036600319011261012b575f600435815b60dc8310156100a557825490610091575f5160206101e25f395f51905f525f918193080860015f5160206101e25f395f51905f528083800992815f9480090992019190610049565b634e487b7160e01b5f52601260045260245ffd5b610091575f5160206101e25f395f51905f525f91815f6024359208085f915b60dc83101561010c57825490610091575f5160206101e25f395f51905f525f918193080860015f5160206101e25f395f51905f528083800992815f94800909920191906100c4565b610091576020905f5160206101e25f395f51905f525f60405192088152f35b5f80fd5b3461012b57602036600319011261012b5760043563f47d33b560e01b82528060048301526024820152602081604481305afa80156101d6575f90610179575b602090604051908152f35b5060203d6020116101cf575b601f8101601f1916820167ffffffffffffffff8111838210176101bb5760209183916040528101031261012b576020905161016e565b634e487b7160e01b5f52604160045260245ffd5b503d610185565b6040513d5f823e3d90fdfe30644e72e131a029b85045b68181585d2833e84879b9709143e1f593f0000001a264697066735822122086f39962a5bbd28c1430e132b23259f69142c612d58790da5b0471cabc08567864736f6c634300081e0033",
  "linkReferences": {},
  "deployedLinkReferences": {}
}