{
  "_format": "hh-sol-artifact-1",
  "contractName": "Groth16Verifier",
  "sourceName": "src/Verifier.sol",
  "abi": [
    {
      "inputs": [
        {
          "internalType": "uint256[2]",
          "name": "_pA",
          "type": "uint256[2]"
        },
        {
          "internalType": "uint256[2][2]",
          "name": "_pB",
          "type": "uint256[2][2]"
        },
        {
          "internalType": "uint256[2]",
          "name": "_pC",
          "type": "uint256[2]"
        },
        {
          "internalType": "uint256[6]",
          "name": "_pubSignals",
          "type": "uint256[6]"
        }
      ],
      "name": "verifyProof",
      "outputs": [
        {
          "internalType": "bool",
          "name": "",
          "type": "bool"
        }
      ],
      "stateMutability": "view",
      "type": "function"
    }
  ],
  "bytecode": "0x60808060405234601557610778908161001a8239f35b5f80fdfe60806040526004361015610011575f80fd5b5f3560e01c63f398789b14610024575f80fd5b346103b6576101c03660031901126103b65761003f366103ba565b3660c4116103b657610050366103c7565b366101c4116103b6577f30644e72e131a029b85045b68181585d97816a916871ca8d3c208c16d87cfd476020809361040060405261014d61010435610094816103d5565b610148610124356100a4816103d5565b610143610144356100b4816103d5565b61013e61016435916100c5836103d5565b61013961018435956100d6876103d5565b6101346101a435996100e78b6103d5565b7f291d69483206634c6751c6adeb5a4b3de8ea048ee43e223089ef4939b65a4c246080527f10b8b9d2edd4184679c67350f69db27bcf1969a4ea2c456ad583221a80eaab3b60a052610406565b610490565b61051a565b6105a4565b61062e565b6106b8565b80356101005201358103066101205260443561014052606435610160526084356101805260a4356101a0527f2d4d9aa7e302d9df41749d5507949d05dbea33fbb16c643b22f599a2be6df2e26101c0527f14bedd503c37ceb061d8ec60209fe345ce89830a19230301f076caff004d19266101e0527f0967032fcbf776d1afc985f88877f182d38480a653f2decaa9794cbc3bf3060c610200527f0e187847ad4c798374d0d6732bf501847dd68bc0e071241e0213bc7fc13db7ab610220527f304cfbd1e08a704a99f5e847d93f8c3caafddec46b7a0d379da69a4d112346a7610240527f1739c1b1a457a8c7313123d24d2f9192f896b7c63eea05a9d57f06547ad0cec8610260526080516102805260a0516102a0527f198e9393920d483a7260bfb731fb5d25f1aa493335a9e71297e485b7aef312c26102c0527f1800deef121f1e76426a00665e5c4479674322d4f75edadd46debd5cd992f6ed6102e0527f090689d0585ff075ec9e99ad690c3395bc4b313370b38ef355acdadcd122975b610300527f12c85ea5db8c6deb4aab71808dcb408fe3d1e7690c43d37b4ce6cc0166fa7daa610320528035610340520135610360527f1976f8491786e899358bc4b50c3e0bc33645c7154bb5c5705dc9090428d6ff24610380527f1ed306aae678f6c9794a3cdcef795d592bcb7972fa57e8b3c12c2bde78db0b6d6103a0527f23354650c7dcbfc92c495ae5f5d7cae87a501130802b30a9e2970f9f01d797066103c0527f1050d3de03b5c62de881b2899ebba61d52c81c2df6f43a0de15c52f472b690516103e05260206101006103008160086107cf195a01fa61010051165f5260205ff35b5f80fd5b906004916044116103b657565b9060c491610104116103b657565b7f30644e72e131a029b85045b68181585d2833e84879b9709143e1f593f000000111156103fe57565b5f805260205ff35b6040517f20613ec30bdb7e2da32e96850e4a99687f0cb1f33adab27ad4abe532b63e8f7681527f22a7dc9b1d33ed064576b07103878e708c6fb9ad9b20a20c3625766e61a264c160208201526040810191825260408160608160076107cf195a01fa156103fe57608080916040938251905260a051606082015260066107cf195a01fa156103fe57565b6040517f26af472c2b4930b92e4df408c0c18e15da9bf2d84e53a3602c95eb7673c78d7281527f23df8902b21f52c7e27ac618d78e375f29489ca6b8cf24883d5e6a8b96fc7a5360208201526040810191825260408160608160076107cf195a01fa156103fe57608080916040938251905260a051606082015260066107cf195a01fa156103fe57565b6040517f1ef3bb1c3d7b3e94b643b3bce30c5df47597536fb2dcc82aa4fd88602e6e37ae81527f2b587a7a806d2b2f9c2a4de3ad634b8c91af7ffcf02022f1486b5ca4544d630d60208201526040810191825260408160608160076107cf195a01fa156103fe57608080916040938251905260a051606082015260066107cf195a01fa156103fe57565b6040517f2dc409a38abdc7fdafb9e172fb042978bc8cdc3d30e0ef8a71e72cb185a6b64c81527f1aff40445215ea1197d21b62dd8568c3f2c59673eb3724e3737711a0c4c372f560208201526040810191825260408160608160076107cf195a01fa156103fe57608080916040938251905260a051606082015260066107cf195a01fa156103fe57565b6040517f191788072c0ad8958c64266f9d18bb170f1118d553d7169580cc710d729b0de181527f0f13a573e05b7a762c221c81fb06e7045bbb433dadc93283c7cf050663f2bbbd60208201526040810191825260408160608160076107cf195a01fa156103fe57608080916040938251905260a051606082015260066107cf195a01fa156103fe57565b6040517f0940f8389e5380cff0473bfa160fb38e14408e0510771ceea091e32b754b7ea281527f27bedfccd9208c7e8632a47409e9e389d290731ec47867a10df3f1612fab15de60208201526040810191825260408160608160076107cf195a01fa156103fe57608080916040938251905260a051606082015260066107cf195a01fa156103fe5756fea2646970667358221220f4461ddf6b7856c07303a2b27263a8bc22a1459373dcb12fd74094bed405425d64736f6c634300081e0033",
  "linkReferences": {},
  "deployedLinkReferences": {}
}